{
  "_format": "hh-sol-artifact-1",
  "contractName": "CertificateNFT",
  "sourceName": "contracts/CertificateNFT.sol",
  "abi": [
    {
      "inputs": [],
      "stateMutability": "nonpayable",
      "type": "constructor"
    },
    {
      "inputs": [
        {
          "internalType": "address",
          "name": "sender",
          "type": "address"
        },
        {
          "internalType": "uint256",
          "name": "tokenId",
          "type": "uint256"
        },
        {
          "internalType": "address",
          "name": "owner",
          "type": "address"
        }
      ],
      "name": "ERC721IncorrectOwner",
      "type": "error"
    },
    {
      "inputs": [
        {
          "internalType": "address",
          "name": "operator",
          "type": "address"
        },
        {
          "internalType": "uint256",
          "name": "tokenId",
          "type": "uint256"
        }
      ],
      "name": "ERC721InsufficientApproval",
      "type": "error"
    },
    {
      "inputs": [
        {
          "internalType": "address",
          "name": "approver",
          "type": "address"
        }
      ],
      "name": "ERC721InvalidApprover",
      "type": "error"
    },
    {
      "inputs": [
        {
          "internalType": "address",
          "name": "operator",
          "type": "address"
        }
      ],
      "name": "ERC721InvalidOperator",
      "type": "error"
    },
    {
      "inputs": [
        {
          "internalType": "address",
          "name": "owner",
          "type": "address"
        }
      ],
      "name": "ERC721InvalidOwner",
      "type": "error"
    },
    {
      "inputs": [
        {
          "internalType": "address",
          "name": "receiver",
          "type": "address"
        }
      ],
      "name": "ERC721InvalidReceiver",
      "type": "error"
    },
    {
      "inputs": [
        {
          "internalType": "address",
          "name": "sender",
          "type": "address"
        }
      ],
      "name": "ERC721InvalidSender",
      "type": "error"
    },
    {
      "inputs": [
        {
          "internalType": "uint256",
          "name": "tokenId",
          "type": "uint256"
        }
      ],
      "name": "ERC721NonexistentToken",
      "type": "error"
    },
    {
      "inputs": [
        {
          "internalType": "address",
          "name": "institution",
          "type": "address"
        }
      ],
      "name": "InstitutionAlreadyExist",
      "type": "error"
    },
    {
      "inputs": [],
      "name": "enteredInstitutionDoesNotExist",
      "type": "error"
    },
    {
      "inputs": [],
      "name": "notAnInstitution",
      "type": "error"
    },
    {
      "inputs": [],
      "name": "ownerOnly",
      "type": "error"
    },
    {
      "inputs": [],
      "name": "soulBoundToken",
      "type": "error"
    },
    {
      "inputs": [
        {
          "internalType": "address",
          "name": "institution",
          "type": "address"
        }
      ],
      "name": "unverifiedInstitution",
      "type": "error"
    },
    {
      "inputs": [
        {
          "internalType": "address",
          "name": "institution",
          "type": "address"
        }
      ],
      "name": "verifiedInstitutionAlreadyExists",
      "type": "error"
    },
    {
      "anonymous": false,
      "inputs": [
        {
          "indexed": true,
          "internalType": "address",
          "name": "owner",
          "type": "address"
        },
        {
          "indexed": true,
          "internalType": "address",
          "name": "approved",
          "type": "address"
        },
        {
          "indexed": true,
          "internalType": "uint256",
          "name": "tokenId",
          "type": "uint256"
        }
      ],
      "name": "Approval",
      "type": "event"
    },
    {
      "anonymous": false,
      "inputs": [
        {
          "indexed": true,
          "internalType": "address",
          "name": "owner",
          "type": "address"
        },
        {
          "indexed": true,
          "internalType": "address",
          "name": "operator",
          "type": "address"
        },
        {
          "indexed": false,
          "internalType": "bool",
          "name": "approved",
          "type": "bool"
        }
      ],
      "name": "ApprovalForAll",
      "type": "event"
    },
    {
      "anonymous": false,
      "inputs": [
        {
          "indexed": true,
          "internalType": "address",
          "name": "from",
          "type": "address"
        },
        {
          "indexed": true,
          "internalType": "address",
          "name": "to",
          "type": "address"
        },
        {
          "indexed": true,
          "internalType": "uint256",
          "name": "tokenId",
          "type": "uint256"
        }
      ],
      "name": "Transfer",
      "type": "event"
    },
    {
      "anonymous": false,
      "inputs": [
        {
          "indexed": true,
          "internalType": "address",
          "name": "recipient",
          "type": "address"
        },
        {
          "indexed": true,
          "internalType": "uint256",
          "name": "tokenId",
          "type": "uint256"
        }
      ],
      "name": "mintedCertificateNFT",
      "type": "event"
    },
    {
      "anonymous": false,
      "inputs": [
        {
          "indexed": true,
          "internalType": "address",
          "name": "institution",
          "type": "address"
        }
      ],
      "name": "newInstitutionAdded",
      "type": "event"
    },
    {
      "anonymous": false,
      "inputs": [
        {
          "indexed": true,
          "internalType": "address",
          "name": "institution",
          "type": "address"
        }
      ],
      "name": "verifiedInstitution",
      "type": "event"
    },
    {
      "inputs": [
        {
          "internalType": "address",
          "name": "institution",
          "type": "address"
        },
        {
          "internalType": "string",
          "name": "name",
          "type": "string"
        }
      ],
      "name": "addNewInstitution",
      "outputs": [],
      "stateMutability": "nonpayable",
      "type": "function"
    },
    {
      "inputs": [
        {
          "internalType": "address",
          "name": "to",
          "type": "address"
        },
        {
          "internalType": "uint256",
          "name": "tokenId",
          "type": "uint256"
        }
      ],
      "name": "approve",
      "outputs": [],
      "stateMutability": "nonpayable",
      "type": "function"
    },
    {
      "inputs": [
        {
          "internalType": "address",
          "name": "owner",
          "type": "address"
        }
      ],
      "name": "balanceOf",
      "outputs": [
        {
          "internalType": "uint256",
          "name": "",
          "type": "uint256"
        }
      ],
      "stateMutability": "view",
      "type": "function"
    },
    {
      "inputs": [],
      "name": "getAllInstitutions",
      "outputs": [
        {
          "internalType": "address[]",
          "name": "",
          "type": "address[]"
        }
      ],
      "stateMutability": "view",
      "type": "function"
    },
    {
      "inputs": [
        {
          "internalType": "uint256",
          "name": "tokenId",
          "type": "uint256"
        }
      ],
      "name": "getApproved",
      "outputs": [
        {
          "internalType": "address",
          "name": "",
          "type": "address"
        }
      ],
      "stateMutability": "view",
      "type": "function"
    },
    {
      "inputs": [],
      "name": "getCounter",
      "outputs": [
        {
          "internalType": "uint256",
          "name": "",
          "type": "uint256"
        }
      ],
      "stateMutability": "view",
      "type": "function"
    },
    {
      "inputs": [
        {
          "internalType": "address",
          "name": "institution",
          "type": "address"
        }
      ],
      "name": "getInstitutionName",
      "outputs": [
        {
          "internalType": "string",
          "name": "",
          "type": "string"
        }
      ],
      "stateMutability": "view",
      "type": "function"
    },
    {
      "inputs": [
        {
          "internalType": "address",
          "name": "institution",
          "type": "address"
        }
      ],
      "name": "getInstitutionStatus",
      "outputs": [
        {
          "internalType": "enum CertificateNFT.institutionStatus",
          "name": "",
          "type": "uint8"
        }
      ],
      "stateMutability": "view",
      "type": "function"
    },
    {
      "inputs": [],
      "name": "getOwner",
      "outputs": [
        {
          "internalType": "address",
          "name": "",
          "type": "address"
        }
      ],
      "stateMutability": "view",
      "type": "function"
    },
    {
      "inputs": [
        {
          "internalType": "uint256",
          "name": "tokenId",
          "type": "uint256"
        }
      ],
      "name": "getTokenURI",
      "outputs": [
        {
          "internalType": "string",
          "name": "",
          "type": "string"
        }
      ],
      "stateMutability": "view",
      "type": "function"
    },
    {
      "inputs": [
        {
          "internalType": "address",
          "name": "owner",
          "type": "address"
        },
        {
          "internalType": "address",
          "name": "operator",
          "type": "address"
        }
      ],
      "name": "isApprovedForAll",
      "outputs": [
        {
          "internalType": "bool",
          "name": "",
          "type": "bool"
        }
      ],
      "stateMutability": "view",
      "type": "function"
    },
    {
      "inputs": [
        {
          "internalType": "address",
          "name": "recipient",
          "type": "address"
        },
        {
          "internalType": "string",
          "name": "tokenURI",
          "type": "string"
        }
      ],
      "name": "mintNFT",
      "outputs": [],
      "stateMutability": "nonpayable",
      "type": "function"
    },
    {
      "inputs": [],
      "name": "name",
      "outputs": [
        {
          "internalType": "string",
          "name": "",
          "type": "string"
        }
      ],
      "stateMutability": "view",
      "type": "function"
    },
    {
      "inputs": [
        {
          "internalType": "uint256",
          "name": "tokenId",
          "type": "uint256"
        }
      ],
      "name": "ownerOf",
      "outputs": [
        {
          "internalType": "address",
          "name": "",
          "type": "address"
        }
      ],
      "stateMutability": "view",
      "type": "function"
    },
    {
      "inputs": [
        {
          "internalType": "address",
          "name": "from",
          "type": "address"
        },
        {
          "internalType": "address",
          "name": "to",
          "type": "address"
        },
        {
          "internalType": "uint256",
          "name": "tokenId",
          "type": "uint256"
        }
      ],
      "name": "safeTransferFrom",
      "outputs": [],
      "stateMutability": "nonpayable",
      "type": "function"
    },
    {
      "inputs": [
        {
          "internalType": "address",
          "name": "from",
          "type": "address"
        },
        {
          "internalType": "address",
          "name": "to",
          "type": "address"
        },
        {
          "internalType": "uint256",
          "name": "tokenId",
          "type": "uint256"
        },
        {
          "internalType": "bytes",
          "name": "data",
          "type": "bytes"
        }
      ],
      "name": "safeTransferFrom",
      "outputs": [],
      "stateMutability": "nonpayable",
      "type": "function"
    },
    {
      "inputs": [
        {
          "internalType": "address",
          "name": "operator",
          "type": "address"
        },
        {
          "internalType": "bool",
          "name": "approved",
          "type": "bool"
        }
      ],
      "name": "setApprovalForAll",
      "outputs": [],
      "stateMutability": "nonpayable",
      "type": "function"
    },
    {
      "inputs": [
        {
          "internalType": "bytes4",
          "name": "interfaceId",
          "type": "bytes4"
        }
      ],
      "name": "supportsInterface",
      "outputs": [
        {
          "internalType": "bool",
          "name": "",
          "type": "bool"
        }
      ],
      "stateMutability": "view",
      "type": "function"
    },
    {
      "inputs": [],
      "name": "symbol",
      "outputs": [
        {
          "internalType": "string",
          "name": "",
          "type": "string"
        }
      ],
      "stateMutability": "view",
      "type": "function"
    },
    {
      "inputs": [],
      "name": "tokenCounter",
      "outputs": [
        {
          "internalType": "uint256",
          "name": "",
          "type": "uint256"
        }
      ],
      "stateMutability": "view",
      "type": "function"
    },
    {
      "inputs": [
        {
          "internalType": "uint256",
          "name": "tokenId",
          "type": "uint256"
        }
      ],
      "name": "tokenURI",
      "outputs": [
        {
          "internalType": "string",
          "name": "",
          "type": "string"
        }
      ],
      "stateMutability": "view",
      "type": "function"
    },
    {
      "inputs": [
        {
          "internalType": "address",
          "name": "from",
          "type": "address"
        },
        {
          "internalType": "address",
          "name": "to",
          "type": "address"
        },
        {
          "internalType": "uint256",
          "name": "tokenId",
          "type": "uint256"
        }
      ],
      "name": "transferFrom",
      "outputs": [],
      "stateMutability": "nonpayable",
      "type": "function"
    },
    {
      "inputs": [
        {
          "internalType": "address",
          "name": "institution",
          "type": "address"
        }
      ],
      "name": "verifyInstitution",
      "outputs": [],
      "stateMutability": "nonpayable",
      "type": "function"
    }
  ],
  "bytecode": "0x608060405234801561001057600080fd5b506040518060400160405280600c81526020016b10d154951250d0551153919560a21b8152506040518060400160405280600381526020016210d49560ea1b8152508160009081610061919061012c565b50600161006e828261012c565b5050600060065550600780546001600160a01b031916331790556101ea565b634e487b7160e01b600052604160045260246000fd5b600181811c908216806100b757607f821691505b6020821081036100d757634e487b7160e01b600052602260045260246000fd5b50919050565b601f82111561012757806000526020600020601f840160051c810160208510156101045750805b601f840160051c820191505b818110156101245760008155600101610110565b50505b505050565b81516001600160401b038111156101455761014561008d565b6101598161015384546100a3565b846100dd565b6020601f82116001811461018d57600083156101755750848201515b600019600385901b1c1916600184901b178455610124565b600084815260208120601f198516915b828110156101bd578785015182556020948501946001909201910161019d565b50848210156101db5786840151600019600387901b60f8161c191681555b50505050600190811b01905550565b6116ea806101f96000396000f3fe608060405234801561001057600080fd5b506004361061018d5760003560e01c8063893d20e8116100e3578063b88d4fde1161008c578063e017ea3211610066578063e017ea321461034e578063e985e9c514610361578063eacabe141461039d57600080fd5b8063b88d4fde14610324578063c87b56dd14610332578063d082e3811461034557600080fd5b8063958319ec116100bd578063958319ec146102f657806395d89b4114610309578063a22cb4651461031157600080fd5b8063893d20e8146102a45780638959d070146102b55780638ada066e146102ee57600080fd5b80633bb3a24d1161014557806342842e0e1161011f57806342842e0e1461025d5780636352211e1461027057806370a082311461028357600080fd5b80633bb3a24d146102225780633e168516146102355780634104180e1461024857600080fd5b8063081812fc11610176578063081812fc146101cf578063095ea7b3146101fa57806323b872dd1461020f57600080fd5b806301ffc9a71461019257806306fdde03146101ba575b600080fd5b6101a56101a0366004611178565b6103b0565b60405190151581526020015b60405180910390f35b6101c261044d565b6040516101b191906111c6565b6101e26101dd3660046111f9565b6104df565b6040516001600160a01b0390911681526020016101b1565b61020d61020836600461122e565b610508565b005b61020d61021d366004611258565b610517565b6101c26102303660046111f9565b610569565b61020d610243366004611295565b61060b565b61025061072b565b6040516101b191906112b0565b61020d61026b366004611258565b61078c565b6101e261027e3660046111f9565b6107a7565b610296610291366004611295565b6107b2565b6040519081526020016101b1565b6007546001600160a01b03166101e2565b6102e16102c3366004611295565b6001600160a01b031660009081526008602052604090205460ff1690565b6040516101b19190611312565b600654610296565b61020d6103043660046113ca565b610813565b6101c2610984565b61020d61031f36600461142c565b610993565b61020d61021d366004611468565b6101c26103403660046111f9565b61099e565b61029660065481565b6101c261035c366004611295565b610a13565b6101a561036f3660046114e4565b6001600160a01b03918216600090815260056020908152604080832093909416825291909152205460ff1690565b61020d6103ab3660046113ca565b610a3a565b60006001600160e01b031982167f80ac58cd00000000000000000000000000000000000000000000000000000000148061041357506001600160e01b031982167f5b5e139f00000000000000000000000000000000000000000000000000000000145b8061044757507f01ffc9a7000000000000000000000000000000000000000000000000000000006001600160e01b03198316145b92915050565b60606000805461045c90611517565b80601f016020809104026020016040519081016040528092919081815260200182805461048890611517565b80156104d55780601f106104aa576101008083540402835291602001916104d5565b820191906000526020600020905b8154815290600101906020018083116104b857829003601f168201915b5050505050905090565b60006104ea82610b0d565b506000828152600460205260409020546001600160a01b0316610447565b610513828233610b46565b5050565b60405162461bcd60e51b815260206004820152600e60248201527f736f756c426f756e64546f6b656e00000000000000000000000000000000000060448201526064015b60405180910390fd5b505050565b6000818152600a6020526040902080546060919061058690611517565b80601f01602080910402602001604051908101604052809291908181526020018280546105b290611517565b80156105ff5780601f106105d4576101008083540402835291602001916105ff565b820191906000526020600020905b8154815290600101906020018083116105e257829003601f168201915b50505050509050919050565b6007546001600160a01b031633146106655760405162461bcd60e51b815260206004820152600960248201527f6f776e65724f6e6c790000000000000000000000000000000000000000000000604482015260640161055b565b6001600160a01b03811660009081526008602052604081205460ff166002811115610692576106926112fc565b036106df5760405162461bcd60e51b815260206004820152601060248201527f6e6f74416e496e737469747574696f6e00000000000000000000000000000000604482015260640161055b565b6001600160a01b038116600081815260086020526040808220805460ff19166002179055517f39280a66601974b5c7bd9edb5dc20e0b27a0e012296956a440bdd5fa9e54d0659190a250565b6060600b8054806020026020016040519081016040528092919081815260200182805480156104d557602002820191906000526020600020905b81546001600160a01b03168152600190910190602001808311610765575050505050905090565b61056483838360405180602001604052806000815250610517565b600061044782610b0d565b60006001600160a01b0382166107f7576040517f89c62b640000000000000000000000000000000000000000000000000000000081526000600482015260240161055b565b506001600160a01b031660009081526003602052604090205490565b60026001600160a01b03831660009081526008602052604090205460ff166002811115610842576108426112fc565b14158290610888576040517fef0cf6e80000000000000000000000000000000000000000000000000000000081526001600160a01b03909116600482015260240161055b565b506001600160a01b03821660009081526008602052604081205460ff1660028111156108b6576108b66112fc565b0361091457600b80546001810182556000919091527f0175b7a638427703f0dbe7bb9bbf987a2551717b34e79f33b5b1008d1fa01db901805473ffffffffffffffffffffffffffffffffffffffff19166001600160a01b0384161790555b6001600160a01b0382166000908152600860209081526040808320805460ff191660011790556009909152902061094b828261159f565b506040516001600160a01b038316907f2c54db169a61cbba174f220a56b7930596f02aeb3285801ff90fa9fa6a53982790600090a25050565b60606001805461045c90611517565b610513338383610b53565b60606109a982610b0d565b5060006109c160408051602081019091526000815290565b905060008151116109e15760405180602001604052806000815250610a0c565b806109eb84610c0b565b6040516020016109fc92919061165e565b6040516020818303038152906040525b9392505050565b6001600160a01b038116600090815260096020526040902080546060919061058690611517565b3360009081526008602052604081205460ff166002811115610a5e57610a5e6112fc565b03610a95576040517f86594fbb00000000000000000000000000000000000000000000000000000000815260040160405180910390fd5b610aa182600654610cab565b6006546000908152600a60205260409020610abc828261159f565b506006546040516001600160a01b038416907f531d98725e7944ace85707198df213b1a7421fd9165ced340cb189321672c4ae90600090a360068054906000610b048361168d565b91905055505050565b6000818152600260205260408120546001600160a01b03168061044757604051637e27328960e01b81526004810184905260240161055b565b6105648383836001610d42565b6001600160a01b038216610b9e576040517f5b08ba180000000000000000000000000000000000000000000000000000000081526001600160a01b038316600482015260240161055b565b6001600160a01b03838116600081815260056020908152604080832094871680845294825291829020805460ff191686151590811790915591519182527f17307eab39ab6107e8899845ad3d59bd9653f200f220920489ca2b5937696c31910160405180910390a3505050565b60606000610c1883610e8d565b600101905060008167ffffffffffffffff811115610c3857610c3861133a565b6040519080825280601f01601f191660200182016040528015610c62576020820181803683370190505b5090508181016020015b600019017f3031323334353637383961626364656600000000000000000000000000000000600a86061a8153600a8504945084610c6c57509392505050565b6001600160a01b038216610cee576040517f64a0ae920000000000000000000000000000000000000000000000000000000081526000600482015260240161055b565b6000610cfc83836000610f6f565b90506001600160a01b03811615610564576040517f73c6ac6e0000000000000000000000000000000000000000000000000000000081526000600482015260240161055b565b8080610d5657506001600160a01b03821615155b15610e50576000610d6684610b0d565b90506001600160a01b03831615801590610d925750826001600160a01b0316816001600160a01b031614155b8015610dc457506001600160a01b0380821660009081526005602090815260408083209387168352929052205460ff16155b15610e06576040517fa9fbf51f0000000000000000000000000000000000000000000000000000000081526001600160a01b038416600482015260240161055b565b8115610e4e5783856001600160a01b0316826001600160a01b03167f8c5be1e5ebec7d5bd14f71427d1e84f3dd0314c0f7b2291e5b200ac8c7c3b92560405160405180910390a45b505b50506000908152600460205260409020805473ffffffffffffffffffffffffffffffffffffffff19166001600160a01b0392909216919091179055565b6000807a184f03e93ff9f4daa797ed6e38ed64bf6a1f0100000000000000008310610ed6577a184f03e93ff9f4daa797ed6e38ed64bf6a1f010000000000000000830492506040015b6d04ee2d6d415b85acef81000000008310610f02576d04ee2d6d415b85acef8100000000830492506020015b662386f26fc100008310610f2057662386f26fc10000830492506010015b6305f5e1008310610f38576305f5e100830492506008015b6127108310610f4c57612710830492506004015b60648310610f5e576064830492506002015b600a83106104475760010192915050565b6000828152600260205260408120546001600160a01b0390811690831615610f9c57610f9c818486611075565b6001600160a01b03811615610fda57610fb9600085600080610d42565b6001600160a01b038116600090815260036020526040902080546000190190555b6001600160a01b03851615611009576001600160a01b0385166000908152600360205260409020805460010190555b600084815260026020526040808220805473ffffffffffffffffffffffffffffffffffffffff19166001600160a01b0389811691821790925591518793918516917fddf252ad1be2c89b69c2b068fc378daa952ba7f163c4a11628f55a4df523b3ef91a4949350505050565b6110808383836110f2565b610564576001600160a01b0383166110ae57604051637e27328960e01b81526004810182905260240161055b565b6040517f177e802f0000000000000000000000000000000000000000000000000000000081526001600160a01b03831660048201526024810182905260440161055b565b60006001600160a01b038316158015906111705750826001600160a01b0316846001600160a01b0316148061114c57506001600160a01b0380851660009081526005602090815260408083209387168352929052205460ff165b8061117057506000828152600460205260409020546001600160a01b038481169116145b949350505050565b60006020828403121561118a57600080fd5b81356001600160e01b031981168114610a0c57600080fd5b60005b838110156111bd5781810151838201526020016111a5565b50506000910152565b60208152600082518060208401526111e58160408501602087016111a2565b601f01601f19169190910160400192915050565b60006020828403121561120b57600080fd5b5035919050565b80356001600160a01b038116811461122957600080fd5b919050565b6000806040838503121561124157600080fd5b61124a83611212565b946020939093013593505050565b60008060006060848603121561126d57600080fd5b61127684611212565b925061128460208501611212565b929592945050506040919091013590565b6000602082840312156112a757600080fd5b610a0c82611212565b602080825282518282018190526000918401906040840190835b818110156112f15783516001600160a01b03168352602093840193909201916001016112ca565b509095945050505050565b634e487b7160e01b600052602160045260246000fd5b602081016003831061133457634e487b7160e01b600052602160045260246000fd5b91905290565b634e487b7160e01b600052604160045260246000fd5b60008067ffffffffffffffff84111561136b5761136b61133a565b50604051601f19601f85018116603f0116810181811067ffffffffffffffff8211171561139a5761139a61133a565b6040528381529050808284018510156113b257600080fd5b83836020830137600060208583010152509392505050565b600080604083850312156113dd57600080fd5b6113e683611212565b9150602083013567ffffffffffffffff81111561140257600080fd5b8301601f8101851361141357600080fd5b61142285823560208401611350565b9150509250929050565b6000806040838503121561143f57600080fd5b61144883611212565b91506020830135801515811461145d57600080fd5b809150509250929050565b6000806000806080858703121561147e57600080fd5b61148785611212565b935061149560208601611212565b925060408501359150606085013567ffffffffffffffff8111156114b857600080fd5b8501601f810187136114c957600080fd5b6114d887823560208401611350565b91505092959194509250565b600080604083850312156114f757600080fd5b61150083611212565b915061150e60208401611212565b90509250929050565b600181811c9082168061152b57607f821691505b60208210810361154b57634e487b7160e01b600052602260045260246000fd5b50919050565b601f82111561056457806000526020600020601f840160051c810160208510156115785750805b601f840160051c820191505b818110156115985760008155600101611584565b5050505050565b815167ffffffffffffffff8111156115b9576115b961133a565b6115cd816115c78454611517565b84611551565b6020601f82116001811461160157600083156115e95750848201515b600019600385901b1c1916600184901b178455611598565b600084815260208120601f198516915b828110156116315787850151825560209485019460019092019101611611565b508482101561164f5786840151600019600387901b60f8161c191681555b50505050600190811b01905550565b600083516116708184602088016111a2565b8351908301906116848183602088016111a2565b01949350505050565b6000600182016116ad57634e487b7160e01b600052601160045260246000fd5b506001019056fea264697066735822122063b85cdcad63476b7747a132b3319501726efb9bc057a81be10c49e1984efe4b64736f6c634300081c0033",
  "linkReferences": {},
  "deployedLinkReferences": {}
}