{
  "_format": "hh-sol-artifact-1",
  "contractName": "CertificateNFT",
  "sourceName": "contracts/CertificateNFT.sol",
  "abi": [
    {
      "inputs": [],
      "stateMutability": "nonpayable",
      "type": "constructor"
    },
    {
      "inputs": [
        {
          "internalType": "address",
          "name": "sender",
          "type": "address"
        },
        {
          "internalType": "uint256",
          "name": "tokenId",
          "type": "uint256"
        },
        {
          "internalType": "address",
          "name": "owner",
          "type": "address"
        }
      ],
      "name": "ERC721IncorrectOwner",
      "type": "error"
    },
    {
      "inputs": [
        {
          "internalType": "address",
          "name": "operator",
          "type": "address"
        },
        {
          "internalType": "uint256",
          "name": "tokenId",
          "type": "uint256"
        }
      ],
      "name": "ERC721InsufficientApproval",
      "type": "error"
    },
    {
      "inputs": [
        {
          "internalType": "address",
          "name": "approver",
          "type": "address"
        }
      ],
      "name": "ERC721InvalidApprover",
      "type": "error"
    },
    {
      "inputs": [
        {
          "internalType": "address",
          "name": "operator",
          "type": "address"
        }
      ],
      "name": "ERC721InvalidOperator",
      "type": "error"
    },
    {
      "inputs": [
        {
          "internalType": "address",
          "name": "owner",
          "type": "address"
        }
      ],
      "name": "ERC721InvalidOwner",
      "type": "error"
    },
    {
      "inputs": [
        {
          "internalType": "address",
          "name": "receiver",
          "type": "address"
        }
      ],
      "name": "ERC721InvalidReceiver",
      "type": "error"
    },
    {
      "inputs": [
        {
          "internalType": "address",
          "name": "sender",
          "type": "address"
        }
      ],
      "name": "ERC721InvalidSender",
      "type": "error"
    },
    {
      "inputs": [
        {
          "internalType": "uint256",
          "name": "tokenId",
          "type": "uint256"
        }
      ],
      "name": "ERC721NonexistentToken",
      "type": "error"
    },
    {
      "anonymous": false,
      "inputs": [
        {
          "indexed": true,
          "internalType": "address",
          "name": "owner",
          "type": "address"
        },
        {
          "indexed": true,
          "internalType": "address",
          "name": "approved",
          "type": "address"
        },
        {
          "indexed": true,
          "internalType": "uint256",
          "name": "tokenId",
          "type": "uint256"
        }
      ],
      "name": "Approval",
      "type": "event"
    },
    {
      "anonymous": false,
      "inputs": [
        {
          "indexed": true,
          "internalType": "address",
          "name": "owner",
          "type": "address"
        },
        {
          "indexed": true,
          "internalType": "address",
          "name": "operator",
          "type": "address"
        },
        {
          "indexed": false,
          "internalType": "bool",
          "name": "approved",
          "type": "bool"
        }
      ],
      "name": "ApprovalForAll",
      "type": "event"
    },
    {
      "anonymous": false,
      "inputs": [
        {
          "indexed": true,
          "internalType": "address",
          "name": "from",
          "type": "address"
        },
        {
          "indexed": true,
          "internalType": "address",
          "name": "to",
          "type": "address"
        },
        {
          "indexed": true,
          "internalType": "uint256",
          "name": "tokenId",
          "type": "uint256"
        }
      ],
      "name": "Transfer",
      "type": "event"
    },
    {
      "anonymous": false,
      "inputs": [
        {
          "indexed": true,
          "internalType": "address",
          "name": "recipient",
          "type": "address"
        },
        {
          "indexed": true,
          "internalType": "uint256",
          "name": "tokenId",
          "type": "uint256"
        }
      ],
      "name": "mintedCertificateNFT",
      "type": "event"
    },
    {
      "anonymous": false,
      "inputs": [
        {
          "indexed": false,
          "internalType": "address",
          "name": "institution",
          "type": "address"
        }
      ],
      "name": "verifiedInstitution",
      "type": "event"
    },
    {
      "inputs": [
        {
          "internalType": "address",
          "name": "institution",
          "type": "address"
        },
        {
          "internalType": "string",
          "name": "name",
          "type": "string"
        }
      ],
      "name": "addNewInstitution",
      "outputs": [],
      "stateMutability": "nonpayable",
      "type": "function"
    },
    {
      "inputs": [
        {
          "internalType": "address",
          "name": "to",
          "type": "address"
        },
        {
          "internalType": "uint256",
          "name": "tokenId",
          "type": "uint256"
        }
      ],
      "name": "approve",
      "outputs": [],
      "stateMutability": "nonpayable",
      "type": "function"
    },
    {
      "inputs": [
        {
          "internalType": "address",
          "name": "owner",
          "type": "address"
        }
      ],
      "name": "balanceOf",
      "outputs": [
        {
          "internalType": "uint256",
          "name": "",
          "type": "uint256"
        }
      ],
      "stateMutability": "view",
      "type": "function"
    },
    {
      "inputs": [],
      "name": "getAllInstitutions",
      "outputs": [
        {
          "internalType": "address[]",
          "name": "",
          "type": "address[]"
        }
      ],
      "stateMutability": "view",
      "type": "function"
    },
    {
      "inputs": [
        {
          "internalType": "uint256",
          "name": "tokenId",
          "type": "uint256"
        }
      ],
      "name": "getApproved",
      "outputs": [
        {
          "internalType": "address",
          "name": "",
          "type": "address"
        }
      ],
      "stateMutability": "view",
      "type": "function"
    },
    {
      "inputs": [],
      "name": "getCounter",
      "outputs": [
        {
          "internalType": "uint256",
          "name": "",
          "type": "uint256"
        }
      ],
      "stateMutability": "view",
      "type": "function"
    },
    {
      "inputs": [
        {
          "internalType": "address",
          "name": "institution",
          "type": "address"
        }
      ],
      "name": "getInstitutionName",
      "outputs": [
        {
          "internalType": "string",
          "name": "",
          "type": "string"
        }
      ],
      "stateMutability": "view",
      "type": "function"
    },
    {
      "inputs": [
        {
          "internalType": "address",
          "name": "institution",
          "type": "address"
        }
      ],
      "name": "getInstitutionStatus",
      "outputs": [
        {
          "internalType": "enum CertificateNFT.institutionStatus",
          "name": "",
          "type": "uint8"
        }
      ],
      "stateMutability": "view",
      "type": "function"
    },
    {
      "inputs": [],
      "name": "getOwner",
      "outputs": [
        {
          "internalType": "address",
          "name": "",
          "type": "address"
        }
      ],
      "stateMutability": "view",
      "type": "function"
    },
    {
      "inputs": [
        {
          "internalType": "uint256",
          "name": "tokenId",
          "type": "uint256"
        }
      ],
      "name": "getTokenURI",
      "outputs": [
        {
          "internalType": "string",
          "name": "",
          "type": "string"
        }
      ],
      "stateMutability": "view",
      "type": "function"
    },
    {
      "inputs": [
        {
          "internalType": "address",
          "name": "owner",
          "type": "address"
        },
        {
          "internalType": "address",
          "name": "operator",
          "type": "address"
        }
      ],
      "name": "isApprovedForAll",
      "outputs": [
        {
          "internalType": "bool",
          "name": "",
          "type": "bool"
        }
      ],
      "stateMutability": "view",
      "type": "function"
    },
    {
      "inputs": [
        {
          "internalType": "address",
          "name": "recipient",
          "type": "address"
        },
        {
          "internalType": "string",
          "name": "tokenURI",
          "type": "string"
        }
      ],
      "name": "mintNFT",
      "outputs": [],
      "stateMutability": "nonpayable",
      "type": "function"
    },
    {
      "inputs": [],
      "name": "name",
      "outputs": [
        {
          "internalType": "string",
          "name": "",
          "type": "string"
        }
      ],
      "stateMutability": "view",
      "type": "function"
    },
    {
      "inputs": [
        {
          "internalType": "uint256",
          "name": "tokenId",
          "type": "uint256"
        }
      ],
      "name": "ownerOf",
      "outputs": [
        {
          "internalType": "address",
          "name": "",
          "type": "address"
        }
      ],
      "stateMutability": "view",
      "type": "function"
    },
    {
      "inputs": [
        {
          "internalType": "address",
          "name": "from",
          "type": "address"
        },
        {
          "internalType": "address",
          "name": "to",
          "type": "address"
        },
        {
          "internalType": "uint256",
          "name": "tokenId",
          "type": "uint256"
        }
      ],
      "name": "safeTransferFrom",
      "outputs": [],
      "stateMutability": "nonpayable",
      "type": "function"
    },
    {
      "inputs": [
        {
          "internalType": "address",
          "name": "from",
          "type": "address"
        },
        {
          "internalType": "address",
          "name": "to",
          "type": "address"
        },
        {
          "internalType": "uint256",
          "name": "tokenId",
          "type": "uint256"
        },
        {
          "internalType": "bytes",
          "name": "data",
          "type": "bytes"
        }
      ],
      "name": "safeTransferFrom",
      "outputs": [],
      "stateMutability": "nonpayable",
      "type": "function"
    },
    {
      "inputs": [
        {
          "internalType": "address",
          "name": "operator",
          "type": "address"
        },
        {
          "internalType": "bool",
          "name": "approved",
          "type": "bool"
        }
      ],
      "name": "setApprovalForAll",
      "outputs": [],
      "stateMutability": "nonpayable",
      "type": "function"
    },
    {
      "inputs": [
        {
          "internalType": "bytes4",
          "name": "interfaceId",
          "type": "bytes4"
        }
      ],
      "name": "supportsInterface",
      "outputs": [
        {
          "internalType": "bool",
          "name": "",
          "type": "bool"
        }
      ],
      "stateMutability": "view",
      "type": "function"
    },
    {
      "inputs": [],
      "name": "symbol",
      "outputs": [
        {
          "internalType": "string",
          "name": "",
          "type": "string"
        }
      ],
      "stateMutability": "view",
      "type": "function"
    },
    {
      "inputs": [],
      "name": "tokenCounter",
      "outputs": [
        {
          "internalType": "uint256",
          "name": "",
          "type": "uint256"
        }
      ],
      "stateMutability": "view",
      "type": "function"
    },
    {
      "inputs": [
        {
          "internalType": "uint256",
          "name": "tokenId",
          "type": "uint256"
        }
      ],
      "name": "tokenURI",
      "outputs": [
        {
          "internalType": "string",
          "name": "",
          "type": "string"
        }
      ],
      "stateMutability": "view",
      "type": "function"
    },
    {
      "inputs": [
        {
          "internalType": "address",
          "name": "from",
          "type": "address"
        },
        {
          "internalType": "address",
          "name": "to",
          "type": "address"
        },
        {
          "internalType": "uint256",
          "name": "tokenId",
          "type": "uint256"
        }
      ],
      "name": "transferFrom",
      "outputs": [],
      "stateMutability": "nonpayable",
      "type": "function"
    },
    {
      "inputs": [
        {
          "internalType": "address",
          "name": "institution",
          "type": "address"
        }
      ],
      "name": "verifyInstitution",
      "outputs": [],
      "stateMutability": "nonpayable",
      "type": "function"
    }
  ],
  "bytecode": "0x608060405234801561001057600080fd5b506040518060400160405280600c81526020017f4345525449434154454e465400000000000000000000000000000000000000008152506040518060400160405280600381526020017f4352540000000000000000000000000000000000000000000000000000000000815250816000908161008c919061033d565b50806001908161009c919061033d565b505050600060068190555033600760006101000a81548173ffffffffffffffffffffffffffffffffffffffff021916908373ffffffffffffffffffffffffffffffffffffffff16021790555061040f565b600081519050919050565b7f4e487b7100000000000000000000000000000000000000000000000000000000600052604160045260246000fd5b7f4e487b7100000000000000000000000000000000000000000000000000000000600052602260045260246000fd5b6000600282049050600182168061016e57607f821691505b60208210810361018157610180610127565b5b50919050565b60008190508160005260206000209050919050565b60006020601f8301049050919050565b600082821b905092915050565b6000600883026101e97fffffffffffffffffffffffffffffffffffffffffffffffffffffffffffffffff826101ac565b6101f386836101ac565b95508019841693508086168417925050509392505050565b6000819050919050565b6000819050919050565b600061023a6102356102308461020b565b610215565b61020b565b9050919050565b6000819050919050565b6102548361021f565b61026861026082610241565b8484546101b9565b825550505050565b600090565b61027d610270565b61028881848461024b565b505050565b5b818110156102ac576102a1600082610275565b60018101905061028e565b5050565b601f8211156102f1576102c281610187565b6102cb8461019c565b810160208510156102da578190505b6102ee6102e68561019c565b83018261028d565b50505b505050565b600082821c905092915050565b6000610314600019846008026102f6565b1980831691505092915050565b600061032d8383610303565b9150826002028217905092915050565b610346826100ed565b67ffffffffffffffff81111561035f5761035e6100f8565b5b6103698254610156565b6103748282856102b0565b600060209050601f8311600181146103a75760008415610395578287015190505b61039f8582610321565b865550610407565b601f1984166103b586610187565b60005b828110156103dd578489015182556001820191506020850194506020810190506103b8565b868310156103fa57848901516103f6601f891682610303565b8355505b6001600288020188555050505b505050505050565b612b858061041e6000396000f3fe608060405234801561001057600080fd5b506004361061014d5760003560e01c8063893d20e8116100c3578063b88d4fde1161007c578063b88d4fde146103b0578063c87b56dd146103cc578063d082e381146103fc578063e017ea321461041a578063e985e9c51461044a578063eacabe141461047a5761014d565b8063893d20e8146102ee5780638959d0701461030c5780638ada066e1461033c578063958319ec1461035a57806395d89b4114610376578063a22cb465146103945761014d565b80633bb3a24d116101155780633bb3a24d146102085780633e168516146102385780634104180e1461025457806342842e0e146102725780636352211e1461028e57806370a08231146102be5761014d565b806301ffc9a71461015257806306fdde0314610182578063081812fc146101a0578063095ea7b3146101d057806323b872dd146101ec575b600080fd5b61016c60048036038101906101679190611dd5565b610496565b6040516101799190611e1d565b60405180910390f35b61018a610578565b6040516101979190611ec8565b60405180910390f35b6101ba60048036038101906101b59190611f20565b61060a565b6040516101c79190611f8e565b60405180910390f35b6101ea60048036038101906101e59190611fd5565b610626565b005b61020660048036038101906102019190612015565b61063c565b005b610222600480360381019061021d9190611f20565b610682565b60405161022f9190611ec8565b60405180910390f35b610252600480360381019061024d9190612068565b610727565b005b61025c61090c565b6040516102699190612153565b60405180910390f35b61028c60048036038101906102879190612015565b61099a565b005b6102a860048036038101906102a39190611f20565b6109ba565b6040516102b59190611f8e565b60405180910390f35b6102d860048036038101906102d39190612068565b6109cc565b6040516102e59190612184565b60405180910390f35b6102f6610a86565b6040516103039190611f8e565b60405180910390f35b61032660048036038101906103219190612068565b610ab0565b6040516103339190612216565b60405180910390f35b610344610b87565b6040516103519190612184565b60405180910390f35b610374600480360381019061036f9190612366565b610b91565b005b61037e610dd8565b60405161038b9190611ec8565b60405180910390f35b6103ae60048036038101906103a991906123ee565b610e6a565b005b6103ca60048036038101906103c591906124cf565b610e80565b005b6103e660048036038101906103e19190611f20565b610ec7565b6040516103f39190611ec8565b60405180910390f35b610404610f30565b6040516104119190612184565b60405180910390f35b610434600480360381019061042f9190612068565b610f36565b6040516104419190611ec8565b60405180910390f35b610464600480360381019061045f9190612552565b611007565b6040516104719190611e1d565b60405180910390f35b610494600480360381019061048f9190612366565b61109b565b005b60007f80ac58cd000000000000000000000000000000000000000000000000000000007bffffffffffffffffffffffffffffffffffffffffffffffffffffffff1916827bffffffffffffffffffffffffffffffffffffffffffffffffffffffff1916148061056157507f5b5e139f000000000000000000000000000000000000000000000000000000007bffffffffffffffffffffffffffffffffffffffffffffffffffffffff1916827bffffffffffffffffffffffffffffffffffffffffffffffffffffffff1916145b806105715750610570826111df565b5b9050919050565b606060008054610587906125c1565b80601f01602080910402602001604051908101604052809291908181526020018280546105b3906125c1565b80156106005780601f106105d557610100808354040283529160200191610600565b820191906000526020600020905b8154815290600101906020018083116105e357829003601f168201915b5050505050905090565b600061061582611249565b5061061f826112d1565b9050919050565b610638828261063361130e565b611316565b5050565b600061067d576040517f08c379a00000000000000000000000000000000000000000000000000000000081526004016106749061263e565b60405180910390fd5b505050565b6060600a600083815260200190815260200160002080546106a2906125c1565b80601f01602080910402602001604051908101604052809291908181526020018280546106ce906125c1565b801561071b5780601f106106f05761010080835404028352916020019161071b565b820191906000526020600020905b8154815290600101906020018083116106fe57829003601f168201915b50505050509050919050565b600760009054906101000a900473ffffffffffffffffffffffffffffffffffffffff1673ffffffffffffffffffffffffffffffffffffffff163373ffffffffffffffffffffffffffffffffffffffff16146107b7576040517f08c379a00000000000000000000000000000000000000000000000000000000081526004016107ae906126aa565b60405180910390fd5b600060028111156107cb576107ca61219f565b5b600860008373ffffffffffffffffffffffffffffffffffffffff1673ffffffffffffffffffffffffffffffffffffffff16815260200190815260200160002060009054906101000a900460ff16600281111561082a5761082961219f565b5b0361086a576040517f08c379a000000000000000000000000000000000000000000000000000000000815260040161086190612716565b60405180910390fd5b6002600860008373ffffffffffffffffffffffffffffffffffffffff1673ffffffffffffffffffffffffffffffffffffffff16815260200190815260200160002060006101000a81548160ff021916908360028111156108cd576108cc61219f565b5b02179055507f39280a66601974b5c7bd9edb5dc20e0b27a0e012296956a440bdd5fa9e54d065816040516109019190611f8e565b60405180910390a150565b6060600b80548060200260200160405190810160405280929190818152602001828054801561099057602002820191906000526020600020905b8160009054906101000a900473ffffffffffffffffffffffffffffffffffffffff1673ffffffffffffffffffffffffffffffffffffffff1681526020019060010190808311610946575b5050505050905090565b6109b583838360405180602001604052806000815250610e80565b505050565b60006109c582611249565b9050919050565b60008073ffffffffffffffffffffffffffffffffffffffff168273ffffffffffffffffffffffffffffffffffffffff1603610a3f5760006040517f89c62b64000000000000000000000000000000000000000000000000000000008152600401610a369190611f8e565b60405180910390fd5b600360008373ffffffffffffffffffffffffffffffffffffffff1673ffffffffffffffffffffffffffffffffffffffff168152602001908152602001600020549050919050565b6000600760009054906101000a900473ffffffffffffffffffffffffffffffffffffffff16905090565b6000806002811115610ac557610ac461219f565b5b600860008473ffffffffffffffffffffffffffffffffffffffff1673ffffffffffffffffffffffffffffffffffffffff16815260200190815260200160002060009054906101000a900460ff166002811115610b2457610b2361219f565b5b03610b325760009050610b82565b600860008373ffffffffffffffffffffffffffffffffffffffff1673ffffffffffffffffffffffffffffffffffffffff16815260200190815260200160002060009054906101000a900460ff1690505b919050565b6000600654905090565b600280811115610ba457610ba361219f565b5b600860008473ffffffffffffffffffffffffffffffffffffffff1673ffffffffffffffffffffffffffffffffffffffff16815260200190815260200160002060009054906101000a900460ff166002811115610c0357610c0261219f565b5b03610c43576040517f08c379a0000000000000000000000000000000000000000000000000000000008152600401610c3a90612782565b60405180910390fd5b60006002811115610c5757610c5661219f565b5b600860008473ffffffffffffffffffffffffffffffffffffffff1673ffffffffffffffffffffffffffffffffffffffff16815260200190815260200160002060009054906101000a900460ff166002811115610cb657610cb561219f565b5b03610d1f57600b829080600181540180825580915050600190039060005260206000200160009091909190916101000a81548173ffffffffffffffffffffffffffffffffffffffff021916908373ffffffffffffffffffffffffffffffffffffffff1602179055505b6001600860008473ffffffffffffffffffffffffffffffffffffffff1673ffffffffffffffffffffffffffffffffffffffff16815260200190815260200160002060006101000a81548160ff02191690836002811115610d8257610d8161219f565b5b021790555080600960008473ffffffffffffffffffffffffffffffffffffffff1673ffffffffffffffffffffffffffffffffffffffff1681526020019081526020016000209081610dd3919061294e565b505050565b606060018054610de7906125c1565b80601f0160208091040260200160405190810160405280929190818152602001828054610e13906125c1565b8015610e605780601f10610e3557610100808354040283529160200191610e60565b820191906000526020600020905b815481529060010190602001808311610e4357829003601f168201915b5050505050905090565b610e7c610e7561130e565b8383611328565b5050565b6000610ec1576040517f08c379a0000000000000000000000000000000000000000000000000000000008152600401610eb89061263e565b60405180910390fd5b50505050565b6060610ed282611249565b506000610edd611497565b90506000815111610efd5760405180602001604052806000815250610f28565b80610f07846114ae565b604051602001610f18929190612a5c565b6040516020818303038152906040525b915050919050565b60065481565b6060600960008373ffffffffffffffffffffffffffffffffffffffff1673ffffffffffffffffffffffffffffffffffffffff1681526020019081526020016000208054610f82906125c1565b80601f0160208091040260200160405190810160405280929190818152602001828054610fae906125c1565b8015610ffb5780601f10610fd057610100808354040283529160200191610ffb565b820191906000526020600020905b815481529060010190602001808311610fde57829003601f168201915b50505050509050919050565b6000600560008473ffffffffffffffffffffffffffffffffffffffff1673ffffffffffffffffffffffffffffffffffffffff16815260200190815260200160002060008373ffffffffffffffffffffffffffffffffffffffff1673ffffffffffffffffffffffffffffffffffffffff16815260200190815260200160002060009054906101000a900460ff16905092915050565b600060028111156110af576110ae61219f565b5b600860003373ffffffffffffffffffffffffffffffffffffffff1673ffffffffffffffffffffffffffffffffffffffff16815260200190815260200160002060009054906101000a900460ff16600281111561110e5761110d61219f565b5b0361114e576040517f08c379a000000000000000000000000000000000000000000000000000000000815260040161114590612716565b60405180910390fd5b61115a8260065461157c565b80600a60006006548152602001908152602001600020908161117c919061294e565b506006548273ffffffffffffffffffffffffffffffffffffffff167f531d98725e7944ace85707198df213b1a7421fd9165ced340cb189321672c4ae60405160405180910390a3600660008154809291906111d690612aaf565b91905055505050565b60007f01ffc9a7000000000000000000000000000000000000000000000000000000007bffffffffffffffffffffffffffffffffffffffffffffffffffffffff1916827bffffffffffffffffffffffffffffffffffffffffffffffffffffffff1916149050919050565b60008061125583611675565b9050600073ffffffffffffffffffffffffffffffffffffffff168173ffffffffffffffffffffffffffffffffffffffff16036112c857826040517f7e2732890000000000000000000000000000000000000000000000000000000081526004016112bf9190612184565b60405180910390fd5b80915050919050565b60006004600083815260200190815260200160002060009054906101000a900473ffffffffffffffffffffffffffffffffffffffff169050919050565b600033905090565b61132383838360016116b2565b505050565b600073ffffffffffffffffffffffffffffffffffffffff168273ffffffffffffffffffffffffffffffffffffffff160361139957816040517f5b08ba180000000000000000000000000000000000000000000000000000000081526004016113909190611f8e565b60405180910390fd5b80600560008573ffffffffffffffffffffffffffffffffffffffff1673ffffffffffffffffffffffffffffffffffffffff16815260200190815260200160002060008473ffffffffffffffffffffffffffffffffffffffff1673ffffffffffffffffffffffffffffffffffffffff16815260200190815260200160002060006101000a81548160ff0219169083151502179055508173ffffffffffffffffffffffffffffffffffffffff168373ffffffffffffffffffffffffffffffffffffffff167f17307eab39ab6107e8899845ad3d59bd9653f200f220920489ca2b5937696c318360405161148a9190611e1d565b60405180910390a3505050565b606060405180602001604052806000815250905090565b6060600060016114bd84611877565b01905060008167ffffffffffffffff8111156114dc576114db61223b565b5b6040519080825280601f01601f19166020018201604052801561150e5781602001600182028036833780820191505090505b509050600082602001820190505b600115611571578080600190039150507f3031323334353637383961626364656600000000000000000000000000000000600a86061a8153600a858161156557611564612af7565b5b0494506000850361151c575b819350505050919050565b600073ffffffffffffffffffffffffffffffffffffffff168273ffffffffffffffffffffffffffffffffffffffff16036115ee5760006040517f64a0ae920000000000000000000000000000000000000000000000000000000081526004016115e59190611f8e565b60405180910390fd5b60006115fc838360006119ca565b9050600073ffffffffffffffffffffffffffffffffffffffff168173ffffffffffffffffffffffffffffffffffffffff16146116705760006040517f73c6ac6e0000000000000000000000000000000000000000000000000000000081526004016116679190611f8e565b60405180910390fd5b505050565b60006002600083815260200190815260200160002060009054906101000a900473ffffffffffffffffffffffffffffffffffffffff169050919050565b80806116eb5750600073ffffffffffffffffffffffffffffffffffffffff168273ffffffffffffffffffffffffffffffffffffffff1614155b1561181f5760006116fb84611249565b9050600073ffffffffffffffffffffffffffffffffffffffff168373ffffffffffffffffffffffffffffffffffffffff161415801561176657508273ffffffffffffffffffffffffffffffffffffffff168173ffffffffffffffffffffffffffffffffffffffff1614155b801561177957506117778184611007565b155b156117bb57826040517fa9fbf51f0000000000000000000000000000000000000000000000000000000081526004016117b29190611f8e565b60405180910390fd5b811561181d57838573ffffffffffffffffffffffffffffffffffffffff168273ffffffffffffffffffffffffffffffffffffffff167f8c5be1e5ebec7d5bd14f71427d1e84f3dd0314c0f7b2291e5b200ac8c7c3b92560405160405180910390a45b505b836004600085815260200190815260200160002060006101000a81548173ffffffffffffffffffffffffffffffffffffffff021916908373ffffffffffffffffffffffffffffffffffffffff16021790555050505050565b600080600090507a184f03e93ff9f4daa797ed6e38ed64bf6a1f01000000000000000083106118d5577a184f03e93ff9f4daa797ed6e38ed64bf6a1f01000000000000000083816118cb576118ca612af7565b5b0492506040810190505b6d04ee2d6d415b85acef81000000008310611912576d04ee2d6d415b85acef8100000000838161190857611907612af7565b5b0492506020810190505b662386f26fc10000831061194157662386f26fc10000838161193757611936612af7565b5b0492506010810190505b6305f5e100831061196a576305f5e10083816119605761195f612af7565b5b0492506008810190505b612710831061198f57612710838161198557611984612af7565b5b0492506004810190505b606483106119b257606483816119a8576119a7612af7565b5b0492506002810190505b600a83106119c1576001810190505b80915050919050565b6000806119d684611675565b9050600073ffffffffffffffffffffffffffffffffffffffff168373ffffffffffffffffffffffffffffffffffffffff1614611a1857611a17818486611be4565b5b600073ffffffffffffffffffffffffffffffffffffffff168173ffffffffffffffffffffffffffffffffffffffff1614611aa957611a5a6000856000806116b2565b6001600360008373ffffffffffffffffffffffffffffffffffffffff1673ffffffffffffffffffffffffffffffffffffffff168152602001908152602001600020600082825403925050819055505b600073ffffffffffffffffffffffffffffffffffffffff168573ffffffffffffffffffffffffffffffffffffffff1614611b2c576001600360008773ffffffffffffffffffffffffffffffffffffffff1673ffffffffffffffffffffffffffffffffffffffff168152602001908152602001600020600082825401925050819055505b846002600086815260200190815260200160002060006101000a81548173ffffffffffffffffffffffffffffffffffffffff021916908373ffffffffffffffffffffffffffffffffffffffff160217905550838573ffffffffffffffffffffffffffffffffffffffff168273ffffffffffffffffffffffffffffffffffffffff167fddf252ad1be2c89b69c2b068fc378daa952ba7f163c4a11628f55a4df523b3ef60405160405180910390a4809150509392505050565b611bef838383611ca8565b611ca357600073ffffffffffffffffffffffffffffffffffffffff168373ffffffffffffffffffffffffffffffffffffffff1603611c6457806040517f7e273289000000000000000000000000000000000000000000000000000000008152600401611c5b9190612184565b60405180910390fd5b81816040517f177e802f000000000000000000000000000000000000000000000000000000008152600401611c9a929190612b26565b60405180910390fd5b505050565b60008073ffffffffffffffffffffffffffffffffffffffff168373ffffffffffffffffffffffffffffffffffffffff1614158015611d6057508273ffffffffffffffffffffffffffffffffffffffff168473ffffffffffffffffffffffffffffffffffffffff161480611d215750611d208484611007565b5b80611d5f57508273ffffffffffffffffffffffffffffffffffffffff16611d47836112d1565b73ffffffffffffffffffffffffffffffffffffffff16145b5b90509392505050565b6000604051905090565b600080fd5b600080fd5b60007fffffffff0000000000000000000000000000000000000000000000000000000082169050919050565b611db281611d7d565b8114611dbd57600080fd5b50565b600081359050611dcf81611da9565b92915050565b600060208284031215611deb57611dea611d73565b5b6000611df984828501611dc0565b91505092915050565b60008115159050919050565b611e1781611e02565b82525050565b6000602082019050611e326000830184611e0e565b92915050565b600081519050919050565b600082825260208201905092915050565b60005b83811015611e72578082015181840152602081019050611e57565b60008484015250505050565b6000601f19601f8301169050919050565b6000611e9a82611e38565b611ea48185611e43565b9350611eb4818560208601611e54565b611ebd81611e7e565b840191505092915050565b60006020820190508181036000830152611ee28184611e8f565b905092915050565b6000819050919050565b611efd81611eea565b8114611f0857600080fd5b50565b600081359050611f1a81611ef4565b92915050565b600060208284031215611f3657611f35611d73565b5b6000611f4484828501611f0b565b91505092915050565b600073ffffffffffffffffffffffffffffffffffffffff82169050919050565b6000611f7882611f4d565b9050919050565b611f8881611f6d565b82525050565b6000602082019050611fa36000830184611f7f565b92915050565b611fb281611f6d565b8114611fbd57600080fd5b50565b600081359050611fcf81611fa9565b92915050565b60008060408385031215611fec57611feb611d73565b5b6000611ffa85828601611fc0565b925050602061200b85828601611f0b565b9150509250929050565b60008060006060848603121561202e5761202d611d73565b5b600061203c86828701611fc0565b935050602061204d86828701611fc0565b925050604061205e86828701611f0b565b9150509250925092565b60006020828403121561207e5761207d611d73565b5b600061208c84828501611fc0565b91505092915050565b600081519050919050565b600082825260208201905092915050565b6000819050602082019050919050565b6120ca81611f6d565b82525050565b60006120dc83836120c1565b60208301905092915050565b6000602082019050919050565b600061210082612095565b61210a81856120a0565b9350612115836120b1565b8060005b8381101561214657815161212d88826120d0565b9750612138836120e8565b925050600181019050612119565b5085935050505092915050565b6000602082019050818103600083015261216d81846120f5565b905092915050565b61217e81611eea565b82525050565b60006020820190506121996000830184612175565b92915050565b7f4e487b7100000000000000000000000000000000000000000000000000000000600052602160045260246000fd5b600381106121df576121de61219f565b5b50565b60008190506121f0826121ce565b919050565b6000612200826121e2565b9050919050565b612210816121f5565b82525050565b600060208201905061222b6000830184612207565b92915050565b600080fd5b600080fd5b7f4e487b7100000000000000000000000000000000000000000000000000000000600052604160045260246000fd5b61227382611e7e565b810181811067ffffffffffffffff821117156122925761229161223b565b5b80604052505050565b60006122a5611d69565b90506122b1828261226a565b919050565b600067ffffffffffffffff8211156122d1576122d061223b565b5b6122da82611e7e565b9050602081019050919050565b82818337600083830152505050565b6000612309612304846122b6565b61229b565b90508281526020810184848401111561232557612324612236565b5b6123308482856122e7565b509392505050565b600082601f83011261234d5761234c612231565b5b813561235d8482602086016122f6565b91505092915050565b6000806040838503121561237d5761237c611d73565b5b600061238b85828601611fc0565b925050602083013567ffffffffffffffff8111156123ac576123ab611d78565b5b6123b885828601612338565b9150509250929050565b6123cb81611e02565b81146123d657600080fd5b50565b6000813590506123e8816123c2565b92915050565b6000806040838503121561240557612404611d73565b5b600061241385828601611fc0565b9250506020612424858286016123d9565b9150509250929050565b600067ffffffffffffffff8211156124495761244861223b565b5b61245282611e7e565b9050602081019050919050565b600061247261246d8461242e565b61229b565b90508281526020810184848401111561248e5761248d612236565b5b6124998482856122e7565b509392505050565b600082601f8301126124b6576124b5612231565b5b81356124c684826020860161245f565b91505092915050565b600080600080608085870312156124e9576124e8611d73565b5b60006124f787828801611fc0565b945050602061250887828801611fc0565b935050604061251987828801611f0b565b925050606085013567ffffffffffffffff81111561253a57612539611d78565b5b612546878288016124a1565b91505092959194509250565b6000806040838503121561256957612568611d73565b5b600061257785828601611fc0565b925050602061258885828601611fc0565b9150509250929050565b7f4e487b7100000000000000000000000000000000000000000000000000000000600052602260045260246000fd5b600060028204905060018216806125d957607f821691505b6020821081036125ec576125eb612592565b5b50919050565b7f736f756c426f756e64546f6b656e000000000000000000000000000000000000600082015250565b6000612628600e83611e43565b9150612633826125f2565b602082019050919050565b600060208201905081810360008301526126578161261b565b9050919050565b7f6f776e65724f6e6c790000000000000000000000000000000000000000000000600082015250565b6000612694600983611e43565b915061269f8261265e565b602082019050919050565b600060208201905081810360008301526126c381612687565b9050919050565b7f6e6f74416e496e737469747574696f6e00000000000000000000000000000000600082015250565b6000612700601083611e43565b915061270b826126ca565b602082019050919050565b6000602082019050818103600083015261272f816126f3565b9050919050565b7f7665726966696564496e737469747574696f6e416c7265616479457869737400600082015250565b600061276c601f83611e43565b915061277782612736565b602082019050919050565b6000602082019050818103600083015261279b8161275f565b9050919050565b60008190508160005260206000209050919050565b60006020601f8301049050919050565b600082821b905092915050565b6000600883026128047fffffffffffffffffffffffffffffffffffffffffffffffffffffffffffffffff826127c7565b61280e86836127c7565b95508019841693508086168417925050509392505050565b6000819050919050565b600061284b61284661284184611eea565b612826565b611eea565b9050919050565b6000819050919050565b61286583612830565b61287961287182612852565b8484546127d4565b825550505050565b600090565b61288e612881565b61289981848461285c565b505050565b5b818110156128bd576128b2600082612886565b60018101905061289f565b5050565b601f821115612902576128d3816127a2565b6128dc846127b7565b810160208510156128eb578190505b6128ff6128f7856127b7565b83018261289e565b50505b505050565b600082821c905092915050565b600061292560001984600802612907565b1980831691505092915050565b600061293e8383612914565b9150826002028217905092915050565b61295782611e38565b67ffffffffffffffff8111156129705761296f61223b565b5b61297a82546125c1565b6129858282856128c1565b600060209050601f8311600181146129b857600084156129a6578287015190505b6129b08582612932565b865550612a18565b601f1984166129c6866127a2565b60005b828110156129ee578489015182556001820191506020850194506020810190506129c9565b86831015612a0b5784890151612a07601f891682612914565b8355505b6001600288020188555050505b505050505050565b600081905092915050565b6000612a3682611e38565b612a408185612a20565b9350612a50818560208601611e54565b80840191505092915050565b6000612a688285612a2b565b9150612a748284612a2b565b91508190509392505050565b7f4e487b7100000000000000000000000000000000000000000000000000000000600052601160045260246000fd5b6000612aba82611eea565b91507fffffffffffffffffffffffffffffffffffffffffffffffffffffffffffffffff8203612aec57612aeb612a80565b5b600182019050919050565b7f4e487b7100000000000000000000000000000000000000000000000000000000600052601260045260246000fd5b6000604082019050612b3b6000830185611f7f565b612b486020830184612175565b939250505056fea26469706673582212208b709ccad49d6558cf9b4dcafbfa2b02c0161723e963521cfcdac4aa63e8ce3764736f6c634300081c0033",
  "linkReferences": {},
  "deployedLinkReferences": {}
}