{
  "_format": "hh-sol-artifact-1",
  "contractName": "UserNFT",
  "sourceName": "contracts/UserNFT.sol",
  "abi": [
    {
      "inputs": [
        {
          "internalType": "uint256",
          "name": "fee",
          "type": "uint256"
        }
      ],
      "stateMutability": "nonpayable",
      "type": "constructor"
    },
    {
      "inputs": [
        {
          "internalType": "address",
          "name": "sender",
          "type": "address"
        },
        {
          "internalType": "uint256",
          "name": "tokenId",
          "type": "uint256"
        },
        {
          "internalType": "address",
          "name": "owner",
          "type": "address"
        }
      ],
      "name": "ERC721IncorrectOwner",
      "type": "error"
    },
    {
      "inputs": [
        {
          "internalType": "address",
          "name": "operator",
          "type": "address"
        },
        {
          "internalType": "uint256",
          "name": "tokenId",
          "type": "uint256"
        }
      ],
      "name": "ERC721InsufficientApproval",
      "type": "error"
    },
    {
      "inputs": [
        {
          "internalType": "address",
          "name": "approver",
          "type": "address"
        }
      ],
      "name": "ERC721InvalidApprover",
      "type": "error"
    },
    {
      "inputs": [
        {
          "internalType": "address",
          "name": "operator",
          "type": "address"
        }
      ],
      "name": "ERC721InvalidOperator",
      "type": "error"
    },
    {
      "inputs": [
        {
          "internalType": "address",
          "name": "owner",
          "type": "address"
        }
      ],
      "name": "ERC721InvalidOwner",
      "type": "error"
    },
    {
      "inputs": [
        {
          "internalType": "address",
          "name": "receiver",
          "type": "address"
        }
      ],
      "name": "ERC721InvalidReceiver",
      "type": "error"
    },
    {
      "inputs": [
        {
          "internalType": "address",
          "name": "sender",
          "type": "address"
        }
      ],
      "name": "ERC721InvalidSender",
      "type": "error"
    },
    {
      "inputs": [
        {
          "internalType": "uint256",
          "name": "tokenId",
          "type": "uint256"
        }
      ],
      "name": "ERC721NonexistentToken",
      "type": "error"
    },
    {
      "inputs": [],
      "name": "notAllowed",
      "type": "error"
    },
    {
      "inputs": [],
      "name": "notEnoughETHProvided",
      "type": "error"
    },
    {
      "inputs": [],
      "name": "soulBoundToken",
      "type": "error"
    },
    {
      "inputs": [],
      "name": "withdrawFailed",
      "type": "error"
    },
    {
      "anonymous": false,
      "inputs": [
        {
          "indexed": true,
          "internalType": "address",
          "name": "owner",
          "type": "address"
        },
        {
          "indexed": true,
          "internalType": "address",
          "name": "approved",
          "type": "address"
        },
        {
          "indexed": true,
          "internalType": "uint256",
          "name": "tokenId",
          "type": "uint256"
        }
      ],
      "name": "Approval",
      "type": "event"
    },
    {
      "anonymous": false,
      "inputs": [
        {
          "indexed": true,
          "internalType": "address",
          "name": "owner",
          "type": "address"
        },
        {
          "indexed": true,
          "internalType": "address",
          "name": "operator",
          "type": "address"
        },
        {
          "indexed": false,
          "internalType": "bool",
          "name": "approved",
          "type": "bool"
        }
      ],
      "name": "ApprovalForAll",
      "type": "event"
    },
    {
      "anonymous": false,
      "inputs": [
        {
          "indexed": true,
          "internalType": "address",
          "name": "from",
          "type": "address"
        },
        {
          "indexed": true,
          "internalType": "address",
          "name": "to",
          "type": "address"
        },
        {
          "indexed": true,
          "internalType": "uint256",
          "name": "tokenId",
          "type": "uint256"
        }
      ],
      "name": "Transfer",
      "type": "event"
    },
    {
      "anonymous": false,
      "inputs": [
        {
          "indexed": true,
          "internalType": "address",
          "name": "recipient",
          "type": "address"
        },
        {
          "indexed": true,
          "internalType": "uint256",
          "name": "tokenId",
          "type": "uint256"
        }
      ],
      "name": "mintedUserNFT",
      "type": "event"
    },
    {
      "inputs": [
        {
          "internalType": "address",
          "name": "to",
          "type": "address"
        },
        {
          "internalType": "uint256",
          "name": "tokenId",
          "type": "uint256"
        }
      ],
      "name": "approve",
      "outputs": [],
      "stateMutability": "nonpayable",
      "type": "function"
    },
    {
      "inputs": [
        {
          "internalType": "address",
          "name": "owner",
          "type": "address"
        }
      ],
      "name": "balanceOf",
      "outputs": [
        {
          "internalType": "uint256",
          "name": "",
          "type": "uint256"
        }
      ],
      "stateMutability": "view",
      "type": "function"
    },
    {
      "inputs": [],
      "name": "baseFee",
      "outputs": [
        {
          "internalType": "uint256",
          "name": "",
          "type": "uint256"
        }
      ],
      "stateMutability": "view",
      "type": "function"
    },
    {
      "inputs": [
        {
          "internalType": "uint256",
          "name": "tokenId",
          "type": "uint256"
        }
      ],
      "name": "getApproved",
      "outputs": [
        {
          "internalType": "address",
          "name": "",
          "type": "address"
        }
      ],
      "stateMutability": "view",
      "type": "function"
    },
    {
      "inputs": [],
      "name": "getBaseFee",
      "outputs": [
        {
          "internalType": "uint256",
          "name": "",
          "type": "uint256"
        }
      ],
      "stateMutability": "view",
      "type": "function"
    },
    {
      "inputs": [],
      "name": "getCounter",
      "outputs": [
        {
          "internalType": "uint256",
          "name": "",
          "type": "uint256"
        }
      ],
      "stateMutability": "view",
      "type": "function"
    },
    {
      "inputs": [
        {
          "internalType": "uint256",
          "name": "tokenId",
          "type": "uint256"
        }
      ],
      "name": "getTokenURI",
      "outputs": [
        {
          "internalType": "string",
          "name": "",
          "type": "string"
        }
      ],
      "stateMutability": "view",
      "type": "function"
    },
    {
      "inputs": [
        {
          "internalType": "address",
          "name": "owner",
          "type": "address"
        },
        {
          "internalType": "address",
          "name": "operator",
          "type": "address"
        }
      ],
      "name": "isApprovedForAll",
      "outputs": [
        {
          "internalType": "bool",
          "name": "",
          "type": "bool"
        }
      ],
      "stateMutability": "view",
      "type": "function"
    },
    {
      "inputs": [
        {
          "internalType": "address",
          "name": "recipient",
          "type": "address"
        },
        {
          "internalType": "string",
          "name": "tokenURI",
          "type": "string"
        }
      ],
      "name": "mintNFT",
      "outputs": [],
      "stateMutability": "payable",
      "type": "function"
    },
    {
      "inputs": [],
      "name": "name",
      "outputs": [
        {
          "internalType": "string",
          "name": "",
          "type": "string"
        }
      ],
      "stateMutability": "view",
      "type": "function"
    },
    {
      "inputs": [
        {
          "internalType": "uint256",
          "name": "tokenId",
          "type": "uint256"
        }
      ],
      "name": "ownerOf",
      "outputs": [
        {
          "internalType": "address",
          "name": "",
          "type": "address"
        }
      ],
      "stateMutability": "view",
      "type": "function"
    },
    {
      "inputs": [
        {
          "internalType": "address",
          "name": "from",
          "type": "address"
        },
        {
          "internalType": "address",
          "name": "to",
          "type": "address"
        },
        {
          "internalType": "uint256",
          "name": "tokenId",
          "type": "uint256"
        }
      ],
      "name": "safeTransferFrom",
      "outputs": [],
      "stateMutability": "nonpayable",
      "type": "function"
    },
    {
      "inputs": [
        {
          "internalType": "address",
          "name": "from",
          "type": "address"
        },
        {
          "internalType": "address",
          "name": "to",
          "type": "address"
        },
        {
          "internalType": "uint256",
          "name": "tokenId",
          "type": "uint256"
        },
        {
          "internalType": "bytes",
          "name": "data",
          "type": "bytes"
        }
      ],
      "name": "safeTransferFrom",
      "outputs": [],
      "stateMutability": "nonpayable",
      "type": "function"
    },
    {
      "inputs": [
        {
          "internalType": "address",
          "name": "operator",
          "type": "address"
        },
        {
          "internalType": "bool",
          "name": "approved",
          "type": "bool"
        }
      ],
      "name": "setApprovalForAll",
      "outputs": [],
      "stateMutability": "nonpayable",
      "type": "function"
    },
    {
      "inputs": [
        {
          "internalType": "bytes4",
          "name": "interfaceId",
          "type": "bytes4"
        }
      ],
      "name": "supportsInterface",
      "outputs": [
        {
          "internalType": "bool",
          "name": "",
          "type": "bool"
        }
      ],
      "stateMutability": "view",
      "type": "function"
    },
    {
      "inputs": [],
      "name": "symbol",
      "outputs": [
        {
          "internalType": "string",
          "name": "",
          "type": "string"
        }
      ],
      "stateMutability": "view",
      "type": "function"
    },
    {
      "inputs": [],
      "name": "tokenCounter",
      "outputs": [
        {
          "internalType": "uint256",
          "name": "",
          "type": "uint256"
        }
      ],
      "stateMutability": "view",
      "type": "function"
    },
    {
      "inputs": [
        {
          "internalType": "uint256",
          "name": "tokenId",
          "type": "uint256"
        }
      ],
      "name": "tokenURI",
      "outputs": [
        {
          "internalType": "string",
          "name": "",
          "type": "string"
        }
      ],
      "stateMutability": "view",
      "type": "function"
    },
    {
      "inputs": [
        {
          "internalType": "address",
          "name": "from",
          "type": "address"
        },
        {
          "internalType": "address",
          "name": "to",
          "type": "address"
        },
        {
          "internalType": "uint256",
          "name": "tokenId",
          "type": "uint256"
        }
      ],
      "name": "transferFrom",
      "outputs": [],
      "stateMutability": "nonpayable",
      "type": "function"
    },
    {
      "inputs": [
        {
          "internalType": "address",
          "name": "",
          "type": "address"
        }
      ],
      "name": "userNames",
      "outputs": [
        {
          "internalType": "string",
          "name": "",
          "type": "string"
        }
      ],
      "stateMutability": "view",
      "type": "function"
    },
    {
      "inputs": [],
      "name": "withdraw",
      "outputs": [],
      "stateMutability": "nonpayable",
      "type": "function"
    }
  ],
  "bytecode": "0x608060405234801561001057600080fd5b506040516128bb3803806128bb83398181016040528101906100329190610151565b6040518060400160405280600781526020017f555345524e4654000000000000000000000000000000000000000000000000008152506040518060400160405280600381526020017f554654000000000000000000000000000000000000000000000000000000000081525081600090816100ad91906103c4565b5080600190816100bd91906103c4565b50505060006006819055508060078190555033600860006101000a81548173ffffffffffffffffffffffffffffffffffffffff021916908373ffffffffffffffffffffffffffffffffffffffff16021790555050610496565b600080fd5b6000819050919050565b61012e8161011b565b811461013957600080fd5b50565b60008151905061014b81610125565b92915050565b60006020828403121561016757610166610116565b5b60006101758482850161013c565b91505092915050565b600081519050919050565b7f4e487b7100000000000000000000000000000000000000000000000000000000600052604160045260246000fd5b7f4e487b7100000000000000000000000000000000000000000000000000000000600052602260045260246000fd5b600060028204905060018216806101ff57607f821691505b602082108103610212576102116101b8565b5b50919050565b60008190508160005260206000209050919050565b60006020601f8301049050919050565b600082821b905092915050565b60006008830261027a7fffffffffffffffffffffffffffffffffffffffffffffffffffffffffffffffff8261023d565b610284868361023d565b95508019841693508086168417925050509392505050565b6000819050919050565b60006102c16102bc6102b78461011b565b61029c565b61011b565b9050919050565b6000819050919050565b6102db836102a6565b6102ef6102e7826102c8565b84845461024a565b825550505050565b600090565b6103046102f7565b61030f8184846102d2565b505050565b5b81811015610333576103286000826102fc565b600181019050610315565b5050565b601f8211156103785761034981610218565b6103528461022d565b81016020851015610361578190505b61037561036d8561022d565b830182610314565b50505b505050565b600082821c905092915050565b600061039b6000198460080261037d565b1980831691505092915050565b60006103b4838361038a565b9150826002028217905092915050565b6103cd8261017e565b67ffffffffffffffff8111156103e6576103e5610189565b5b6103f082546101e7565b6103fb828285610337565b600060209050601f83116001811461042e576000841561041c578287015190505b61042685826103a8565b86555061048e565b601f19841661043c86610218565b60005b828110156104645784890151825560018201915060208501945060208101905061043f565b86831015610481578489015161047d601f89168261038a565b8355505b6001600288020188555050505b505050505050565b612416806104a56000396000f3fe60806040526004361061012a5760003560e01c80636ef25c3a116100ab578063a22cb4651161006f578063a22cb46514610406578063b88d4fde1461042f578063c87b56dd14610458578063d082e38114610495578063e985e9c5146104c0578063eacabe14146104fd5761012a565b80636ef25c3a1461030b57806370a08231146103365780637f281635146103735780638ada066e146103b057806395d89b41146103db5761012a565b806323b872dd116100f257806323b872dd146102285780633bb3a24d146102515780633ccfd60b1461028e57806342842e0e146102a55780636352211e146102ce5761012a565b806301ffc9a71461012f57806306fdde031461016c578063081812fc14610197578063095ea7b3146101d457806315e812ad146101fd575b600080fd5b34801561013b57600080fd5b5061015660048036038101906101519190611942565b610519565b604051610163919061198a565b60405180910390f35b34801561017857600080fd5b506101816105fb565b60405161018e9190611a35565b60405180910390f35b3480156101a357600080fd5b506101be60048036038101906101b99190611a8d565b61068d565b6040516101cb9190611afb565b60405180910390f35b3480156101e057600080fd5b506101fb60048036038101906101f69190611b42565b6106a9565b005b34801561020957600080fd5b506102126106bf565b60405161021f9190611b91565b60405180910390f35b34801561023457600080fd5b5061024f600480360381019061024a9190611bac565b6106c9565b005b34801561025d57600080fd5b5061027860048036038101906102739190611a8d565b610706565b6040516102859190611a35565b60405180910390f35b34801561029a57600080fd5b506102a36107ab565b005b3480156102b157600080fd5b506102cc60048036038101906102c79190611bac565b6108fa565b005b3480156102da57600080fd5b506102f560048036038101906102f09190611a8d565b61091a565b6040516103029190611afb565b60405180910390f35b34801561031757600080fd5b5061032061092c565b60405161032d9190611b91565b60405180910390f35b34801561034257600080fd5b5061035d60048036038101906103589190611bff565b610932565b60405161036a9190611b91565b60405180910390f35b34801561037f57600080fd5b5061039a60048036038101906103959190611bff565b6109ec565b6040516103a79190611a35565b60405180910390f35b3480156103bc57600080fd5b506103c5610a8c565b6040516103d29190611b91565b60405180910390f35b3480156103e757600080fd5b506103f0610a96565b6040516103fd9190611a35565b60405180910390f35b34801561041257600080fd5b5061042d60048036038101906104289190611c58565b610b28565b005b34801561043b57600080fd5b5061045660048036038101906104519190611dcd565b610b3e565b005b34801561046457600080fd5b5061047f600480360381019061047a9190611a8d565b610b7c565b60405161048c9190611a35565b60405180910390f35b3480156104a157600080fd5b506104aa610be5565b6040516104b79190611b91565b60405180910390f35b3480156104cc57600080fd5b506104e760048036038101906104e29190611e50565b610beb565b6040516104f4919061198a565b60405180910390f35b61051760048036038101906105129190611f31565b610c7f565b005b60007f80ac58cd000000000000000000000000000000000000000000000000000000007bffffffffffffffffffffffffffffffffffffffffffffffffffffffff1916827bffffffffffffffffffffffffffffffffffffffffffffffffffffffff191614806105e457507f5b5e139f000000000000000000000000000000000000000000000000000000007bffffffffffffffffffffffffffffffffffffffffffffffffffffffff1916827bffffffffffffffffffffffffffffffffffffffffffffffffffffffff1916145b806105f457506105f382610d4c565b5b9050919050565b60606000805461060a90611fbc565b80601f016020809104026020016040519081016040528092919081815260200182805461063690611fbc565b80156106835780601f1061065857610100808354040283529160200191610683565b820191906000526020600020905b81548152906001019060200180831161066657829003601f168201915b5050505050905090565b600061069882610db6565b506106a282610e3e565b9050919050565b6106bb82826106b6610e7b565b610e83565b5050565b6000600754905090565b6000610701576040517f4290ba9000000000000000000000000000000000000000000000000000000000815260040160405180910390fd5b505050565b6060600a6000838152602001908152602001600020805461072690611fbc565b80601f016020809104026020016040519081016040528092919081815260200182805461075290611fbc565b801561079f5780601f106107745761010080835404028352916020019161079f565b820191906000526020600020905b81548152906001019060200180831161078257829003601f168201915b50505050509050919050565b600860009054906101000a900473ffffffffffffffffffffffffffffffffffffffff1673ffffffffffffffffffffffffffffffffffffffff163373ffffffffffffffffffffffffffffffffffffffff1614610832576040517f932984d200000000000000000000000000000000000000000000000000000000815260040160405180910390fd5b6000600860009054906101000a900473ffffffffffffffffffffffffffffffffffffffff1673ffffffffffffffffffffffffffffffffffffffff164760405161087a9061201e565b60006040518083038185875af1925050503d80600081146108b7576040519150601f19603f3d011682016040523d82523d6000602084013e6108bc565b606091505b50509050806108f7576040517f67b2cd0500000000000000000000000000000000000000000000000000000000815260040160405180910390fd5b50565b61091583838360405180602001604052806000815250610b3e565b505050565b600061092582610db6565b9050919050565b60075481565b60008073ffffffffffffffffffffffffffffffffffffffff168273ffffffffffffffffffffffffffffffffffffffff16036109a55760006040517f89c62b6400000000000000000000000000000000000000000000000000000000815260040161099c9190611afb565b60405180910390fd5b600360008373ffffffffffffffffffffffffffffffffffffffff1673ffffffffffffffffffffffffffffffffffffffff168152602001908152602001600020549050919050565b60096020528060005260406000206000915090508054610a0b90611fbc565b80601f0160208091040260200160405190810160405280929190818152602001828054610a3790611fbc565b8015610a845780601f10610a5957610100808354040283529160200191610a84565b820191906000526020600020905b815481529060010190602001808311610a6757829003601f168201915b505050505081565b6000600654905090565b606060018054610aa590611fbc565b80601f0160208091040260200160405190810160405280929190818152602001828054610ad190611fbc565b8015610b1e5780601f10610af357610100808354040283529160200191610b1e565b820191906000526020600020905b815481529060010190602001808311610b0157829003601f168201915b5050505050905090565b610b3a610b33610e7b565b8383610e95565b5050565b6000610b76576040517f4290ba9000000000000000000000000000000000000000000000000000000000815260040160405180910390fd5b50505050565b6060610b8782610db6565b506000610b92611004565b90506000815111610bb25760405180602001604052806000815250610bdd565b80610bbc8461101b565b604051602001610bcd92919061206f565b6040516020818303038152906040525b915050919050565b60065481565b6000600560008473ffffffffffffffffffffffffffffffffffffffff1673ffffffffffffffffffffffffffffffffffffffff16815260200190815260200160002060008373ffffffffffffffffffffffffffffffffffffffff1673ffffffffffffffffffffffffffffffffffffffff16815260200190815260200160002060009054906101000a900460ff16905092915050565b600754341015610cbb576040517fd679199500000000000000000000000000000000000000000000000000000000815260040160405180910390fd5b610cc7826006546110e9565b80600a600060065481526020019081526020016000209081610ce9919061223f565b506006548273ffffffffffffffffffffffffffffffffffffffff167f8c18ca4dd0cd32078dbb27c0f8f5662350938fde79b357a9f994e1ab9717c42060405160405180910390a360066000815480929190610d4390612340565b91905055505050565b60007f01ffc9a7000000000000000000000000000000000000000000000000000000007bffffffffffffffffffffffffffffffffffffffffffffffffffffffff1916827bffffffffffffffffffffffffffffffffffffffffffffffffffffffff1916149050919050565b600080610dc2836111e2565b9050600073ffffffffffffffffffffffffffffffffffffffff168173ffffffffffffffffffffffffffffffffffffffff1603610e3557826040517f7e273289000000000000000000000000000000000000000000000000000000008152600401610e2c9190611b91565b60405180910390fd5b80915050919050565b60006004600083815260200190815260200160002060009054906101000a900473ffffffffffffffffffffffffffffffffffffffff169050919050565b600033905090565b610e90838383600161121f565b505050565b600073ffffffffffffffffffffffffffffffffffffffff168273ffffffffffffffffffffffffffffffffffffffff1603610f0657816040517f5b08ba18000000000000000000000000000000000000000000000000000000008152600401610efd9190611afb565b60405180910390fd5b80600560008573ffffffffffffffffffffffffffffffffffffffff1673ffffffffffffffffffffffffffffffffffffffff16815260200190815260200160002060008473ffffffffffffffffffffffffffffffffffffffff1673ffffffffffffffffffffffffffffffffffffffff16815260200190815260200160002060006101000a81548160ff0219169083151502179055508173ffffffffffffffffffffffffffffffffffffffff168373ffffffffffffffffffffffffffffffffffffffff167f17307eab39ab6107e8899845ad3d59bd9653f200f220920489ca2b5937696c3183604051610ff7919061198a565b60405180910390a3505050565b606060405180602001604052806000815250905090565b60606000600161102a846113e4565b01905060008167ffffffffffffffff81111561104957611048611ca2565b5b6040519080825280601f01601f19166020018201604052801561107b5781602001600182028036833780820191505090505b509050600082602001820190505b6001156110de578080600190039150507f3031323334353637383961626364656600000000000000000000000000000000600a86061a8153600a85816110d2576110d1612388565b5b04945060008503611089575b819350505050919050565b600073ffffffffffffffffffffffffffffffffffffffff168273ffffffffffffffffffffffffffffffffffffffff160361115b5760006040517f64a0ae920000000000000000000000000000000000000000000000000000000081526004016111529190611afb565b60405180910390fd5b600061116983836000611537565b9050600073ffffffffffffffffffffffffffffffffffffffff168173ffffffffffffffffffffffffffffffffffffffff16146111dd5760006040517f73c6ac6e0000000000000000000000000000000000000000000000000000000081526004016111d49190611afb565b60405180910390fd5b505050565b60006002600083815260200190815260200160002060009054906101000a900473ffffffffffffffffffffffffffffffffffffffff169050919050565b80806112585750600073ffffffffffffffffffffffffffffffffffffffff168273ffffffffffffffffffffffffffffffffffffffff1614155b1561138c57600061126884610db6565b9050600073ffffffffffffffffffffffffffffffffffffffff168373ffffffffffffffffffffffffffffffffffffffff16141580156112d357508273ffffffffffffffffffffffffffffffffffffffff168173ffffffffffffffffffffffffffffffffffffffff1614155b80156112e657506112e48184610beb565b155b1561132857826040517fa9fbf51f00000000000000000000000000000000000000000000000000000000815260040161131f9190611afb565b60405180910390fd5b811561138a57838573ffffffffffffffffffffffffffffffffffffffff168273ffffffffffffffffffffffffffffffffffffffff167f8c5be1e5ebec7d5bd14f71427d1e84f3dd0314c0f7b2291e5b200ac8c7c3b92560405160405180910390a45b505b836004600085815260200190815260200160002060006101000a81548173ffffffffffffffffffffffffffffffffffffffff021916908373ffffffffffffffffffffffffffffffffffffffff16021790555050505050565b600080600090507a184f03e93ff9f4daa797ed6e38ed64bf6a1f0100000000000000008310611442577a184f03e93ff9f4daa797ed6e38ed64bf6a1f010000000000000000838161143857611437612388565b5b0492506040810190505b6d04ee2d6d415b85acef8100000000831061147f576d04ee2d6d415b85acef8100000000838161147557611474612388565b5b0492506020810190505b662386f26fc1000083106114ae57662386f26fc1000083816114a4576114a3612388565b5b0492506010810190505b6305f5e10083106114d7576305f5e10083816114cd576114cc612388565b5b0492506008810190505b61271083106114fc5761271083816114f2576114f1612388565b5b0492506004810190505b6064831061151f576064838161151557611514612388565b5b0492506002810190505b600a831061152e576001810190505b80915050919050565b600080611543846111e2565b9050600073ffffffffffffffffffffffffffffffffffffffff168373ffffffffffffffffffffffffffffffffffffffff161461158557611584818486611751565b5b600073ffffffffffffffffffffffffffffffffffffffff168173ffffffffffffffffffffffffffffffffffffffff1614611616576115c760008560008061121f565b6001600360008373ffffffffffffffffffffffffffffffffffffffff1673ffffffffffffffffffffffffffffffffffffffff168152602001908152602001600020600082825403925050819055505b600073ffffffffffffffffffffffffffffffffffffffff168573ffffffffffffffffffffffffffffffffffffffff1614611699576001600360008773ffffffffffffffffffffffffffffffffffffffff1673ffffffffffffffffffffffffffffffffffffffff168152602001908152602001600020600082825401925050819055505b846002600086815260200190815260200160002060006101000a81548173ffffffffffffffffffffffffffffffffffffffff021916908373ffffffffffffffffffffffffffffffffffffffff160217905550838573ffffffffffffffffffffffffffffffffffffffff168273ffffffffffffffffffffffffffffffffffffffff167fddf252ad1be2c89b69c2b068fc378daa952ba7f163c4a11628f55a4df523b3ef60405160405180910390a4809150509392505050565b61175c838383611815565b61181057600073ffffffffffffffffffffffffffffffffffffffff168373ffffffffffffffffffffffffffffffffffffffff16036117d157806040517f7e2732890000000000000000000000000000000000000000000000000000000081526004016117c89190611b91565b60405180910390fd5b81816040517f177e802f0000000000000000000000000000000000000000000000000000000081526004016118079291906123b7565b60405180910390fd5b505050565b60008073ffffffffffffffffffffffffffffffffffffffff168373ffffffffffffffffffffffffffffffffffffffff16141580156118cd57508273ffffffffffffffffffffffffffffffffffffffff168473ffffffffffffffffffffffffffffffffffffffff16148061188e575061188d8484610beb565b5b806118cc57508273ffffffffffffffffffffffffffffffffffffffff166118b483610e3e565b73ffffffffffffffffffffffffffffffffffffffff16145b5b90509392505050565b6000604051905090565b600080fd5b600080fd5b60007fffffffff0000000000000000000000000000000000000000000000000000000082169050919050565b61191f816118ea565b811461192a57600080fd5b50565b60008135905061193c81611916565b92915050565b600060208284031215611958576119576118e0565b5b60006119668482850161192d565b91505092915050565b60008115159050919050565b6119848161196f565b82525050565b600060208201905061199f600083018461197b565b92915050565b600081519050919050565b600082825260208201905092915050565b60005b838110156119df5780820151818401526020810190506119c4565b60008484015250505050565b6000601f19601f8301169050919050565b6000611a07826119a5565b611a1181856119b0565b9350611a218185602086016119c1565b611a2a816119eb565b840191505092915050565b60006020820190508181036000830152611a4f81846119fc565b905092915050565b6000819050919050565b611a6a81611a57565b8114611a7557600080fd5b50565b600081359050611a8781611a61565b92915050565b600060208284031215611aa357611aa26118e0565b5b6000611ab184828501611a78565b91505092915050565b600073ffffffffffffffffffffffffffffffffffffffff82169050919050565b6000611ae582611aba565b9050919050565b611af581611ada565b82525050565b6000602082019050611b106000830184611aec565b92915050565b611b1f81611ada565b8114611b2a57600080fd5b50565b600081359050611b3c81611b16565b92915050565b60008060408385031215611b5957611b586118e0565b5b6000611b6785828601611b2d565b9250506020611b7885828601611a78565b9150509250929050565b611b8b81611a57565b82525050565b6000602082019050611ba66000830184611b82565b92915050565b600080600060608486031215611bc557611bc46118e0565b5b6000611bd386828701611b2d565b9350506020611be486828701611b2d565b9250506040611bf586828701611a78565b9150509250925092565b600060208284031215611c1557611c146118e0565b5b6000611c2384828501611b2d565b91505092915050565b611c358161196f565b8114611c4057600080fd5b50565b600081359050611c5281611c2c565b92915050565b60008060408385031215611c6f57611c6e6118e0565b5b6000611c7d85828601611b2d565b9250506020611c8e85828601611c43565b9150509250929050565b600080fd5b600080fd5b7f4e487b7100000000000000000000000000000000000000000000000000000000600052604160045260246000fd5b611cda826119eb565b810181811067ffffffffffffffff82111715611cf957611cf8611ca2565b5b80604052505050565b6000611d0c6118d6565b9050611d188282611cd1565b919050565b600067ffffffffffffffff821115611d3857611d37611ca2565b5b611d41826119eb565b9050602081019050919050565b82818337600083830152505050565b6000611d70611d6b84611d1d565b611d02565b905082815260208101848484011115611d8c57611d8b611c9d565b5b611d97848285611d4e565b509392505050565b600082601f830112611db457611db3611c98565b5b8135611dc4848260208601611d5d565b91505092915050565b60008060008060808587031215611de757611de66118e0565b5b6000611df587828801611b2d565b9450506020611e0687828801611b2d565b9350506040611e1787828801611a78565b925050606085013567ffffffffffffffff811115611e3857611e376118e5565b5b611e4487828801611d9f565b91505092959194509250565b60008060408385031215611e6757611e666118e0565b5b6000611e7585828601611b2d565b9250506020611e8685828601611b2d565b9150509250929050565b600067ffffffffffffffff821115611eab57611eaa611ca2565b5b611eb4826119eb565b9050602081019050919050565b6000611ed4611ecf84611e90565b611d02565b905082815260208101848484011115611ef057611eef611c9d565b5b611efb848285611d4e565b509392505050565b600082601f830112611f1857611f17611c98565b5b8135611f28848260208601611ec1565b91505092915050565b60008060408385031215611f4857611f476118e0565b5b6000611f5685828601611b2d565b925050602083013567ffffffffffffffff811115611f7757611f766118e5565b5b611f8385828601611f03565b9150509250929050565b7f4e487b7100000000000000000000000000000000000000000000000000000000600052602260045260246000fd5b60006002820490506001821680611fd457607f821691505b602082108103611fe757611fe6611f8d565b5b50919050565b600081905092915050565b50565b6000612008600083611fed565b915061201382611ff8565b600082019050919050565b600061202982611ffb565b9150819050919050565b600081905092915050565b6000612049826119a5565b6120538185612033565b93506120638185602086016119c1565b80840191505092915050565b600061207b828561203e565b9150612087828461203e565b91508190509392505050565b60008190508160005260206000209050919050565b60006020601f8301049050919050565b600082821b905092915050565b6000600883026120f57fffffffffffffffffffffffffffffffffffffffffffffffffffffffffffffffff826120b8565b6120ff86836120b8565b95508019841693508086168417925050509392505050565b6000819050919050565b600061213c61213761213284611a57565b612117565b611a57565b9050919050565b6000819050919050565b61215683612121565b61216a61216282612143565b8484546120c5565b825550505050565b600090565b61217f612172565b61218a81848461214d565b505050565b5b818110156121ae576121a3600082612177565b600181019050612190565b5050565b601f8211156121f3576121c481612093565b6121cd846120a8565b810160208510156121dc578190505b6121f06121e8856120a8565b83018261218f565b50505b505050565b600082821c905092915050565b6000612216600019846008026121f8565b1980831691505092915050565b600061222f8383612205565b9150826002028217905092915050565b612248826119a5565b67ffffffffffffffff81111561226157612260611ca2565b5b61226b8254611fbc565b6122768282856121b2565b600060209050601f8311600181146122a95760008415612297578287015190505b6122a18582612223565b865550612309565b601f1984166122b786612093565b60005b828110156122df578489015182556001820191506020850194506020810190506122ba565b868310156122fc57848901516122f8601f891682612205565b8355505b6001600288020188555050505b505050505050565b7f4e487b7100000000000000000000000000000000000000000000000000000000600052601160045260246000fd5b600061234b82611a57565b91507fffffffffffffffffffffffffffffffffffffffffffffffffffffffffffffffff820361237d5761237c612311565b5b600182019050919050565b7f4e487b7100000000000000000000000000000000000000000000000000000000600052601260045260246000fd5b60006040820190506123cc6000830185611aec565b6123d96020830184611b82565b939250505056fea26469706673582212205fcaf93668dc98dc581b6765683196a4bc5c061301e682f81de22c7249059c5464736f6c634300081c0033",
  "linkReferences": {},
  "deployedLinkReferences": {}
}