{
  "_format": "hh-sol-artifact-1",
  "contractName": "UserNFT",
  "sourceName": "contracts/UserNFT.sol",
  "abi": [
    {
      "inputs": [
        {
          "internalType": "uint256",
          "name": "fee",
          "type": "uint256"
        },
        {
          "internalType": "address",
          "name": "projectFactoryAddress",
          "type": "address"
        }
      ],
      "stateMutability": "nonpayable",
      "type": "constructor"
    },
    {
      "inputs": [
        {
          "internalType": "address",
          "name": "sender",
          "type": "address"
        },
        {
          "internalType": "uint256",
          "name": "tokenId",
          "type": "uint256"
        },
        {
          "internalType": "address",
          "name": "owner",
          "type": "address"
        }
      ],
      "name": "ERC721IncorrectOwner",
      "type": "error"
    },
    {
      "inputs": [
        {
          "internalType": "address",
          "name": "operator",
          "type": "address"
        },
        {
          "internalType": "uint256",
          "name": "tokenId",
          "type": "uint256"
        }
      ],
      "name": "ERC721InsufficientApproval",
      "type": "error"
    },
    {
      "inputs": [
        {
          "internalType": "address",
          "name": "approver",
          "type": "address"
        }
      ],
      "name": "ERC721InvalidApprover",
      "type": "error"
    },
    {
      "inputs": [
        {
          "internalType": "address",
          "name": "operator",
          "type": "address"
        }
      ],
      "name": "ERC721InvalidOperator",
      "type": "error"
    },
    {
      "inputs": [
        {
          "internalType": "address",
          "name": "owner",
          "type": "address"
        }
      ],
      "name": "ERC721InvalidOwner",
      "type": "error"
    },
    {
      "inputs": [
        {
          "internalType": "address",
          "name": "receiver",
          "type": "address"
        }
      ],
      "name": "ERC721InvalidReceiver",
      "type": "error"
    },
    {
      "inputs": [
        {
          "internalType": "address",
          "name": "sender",
          "type": "address"
        }
      ],
      "name": "ERC721InvalidSender",
      "type": "error"
    },
    {
      "inputs": [
        {
          "internalType": "uint256",
          "name": "tokenId",
          "type": "uint256"
        }
      ],
      "name": "ERC721NonexistentToken",
      "type": "error"
    },
    {
      "inputs": [],
      "name": "alreadyOwner",
      "type": "error"
    },
    {
      "inputs": [],
      "name": "notAProject",
      "type": "error"
    },
    {
      "inputs": [],
      "name": "notAllowed",
      "type": "error"
    },
    {
      "inputs": [],
      "name": "notEnoughETHProvided",
      "type": "error"
    },
    {
      "inputs": [],
      "name": "withdrawFailed",
      "type": "error"
    },
    {
      "anonymous": false,
      "inputs": [
        {
          "indexed": true,
          "internalType": "address",
          "name": "owner",
          "type": "address"
        },
        {
          "indexed": true,
          "internalType": "address",
          "name": "approved",
          "type": "address"
        },
        {
          "indexed": true,
          "internalType": "uint256",
          "name": "tokenId",
          "type": "uint256"
        }
      ],
      "name": "Approval",
      "type": "event"
    },
    {
      "anonymous": false,
      "inputs": [
        {
          "indexed": true,
          "internalType": "address",
          "name": "owner",
          "type": "address"
        },
        {
          "indexed": true,
          "internalType": "address",
          "name": "operator",
          "type": "address"
        },
        {
          "indexed": false,
          "internalType": "bool",
          "name": "approved",
          "type": "bool"
        }
      ],
      "name": "ApprovalForAll",
      "type": "event"
    },
    {
      "anonymous": false,
      "inputs": [
        {
          "indexed": true,
          "internalType": "address",
          "name": "from",
          "type": "address"
        },
        {
          "indexed": true,
          "internalType": "address",
          "name": "to",
          "type": "address"
        },
        {
          "indexed": true,
          "internalType": "uint256",
          "name": "tokenId",
          "type": "uint256"
        }
      ],
      "name": "Transfer",
      "type": "event"
    },
    {
      "anonymous": false,
      "inputs": [
        {
          "indexed": true,
          "internalType": "address",
          "name": "recipient",
          "type": "address"
        },
        {
          "indexed": true,
          "internalType": "uint256",
          "name": "tokenId",
          "type": "uint256"
        }
      ],
      "name": "mintedUserNFT",
      "type": "event"
    },
    {
      "inputs": [
        {
          "internalType": "uint256",
          "name": "tokenId",
          "type": "uint256"
        }
      ],
      "name": "addLiquidity",
      "outputs": [],
      "stateMutability": "payable",
      "type": "function"
    },
    {
      "inputs": [
        {
          "internalType": "address",
          "name": "to",
          "type": "address"
        },
        {
          "internalType": "uint256",
          "name": "tokenId",
          "type": "uint256"
        }
      ],
      "name": "approve",
      "outputs": [],
      "stateMutability": "nonpayable",
      "type": "function"
    },
    {
      "inputs": [
        {
          "internalType": "uint256",
          "name": "tokenId",
          "type": "uint256"
        },
        {
          "internalType": "address",
          "name": "projectAddress",
          "type": "address"
        }
      ],
      "name": "approveForStaking",
      "outputs": [],
      "stateMutability": "nonpayable",
      "type": "function"
    },
    {
      "inputs": [
        {
          "internalType": "address",
          "name": "owner",
          "type": "address"
        }
      ],
      "name": "balanceOf",
      "outputs": [
        {
          "internalType": "uint256",
          "name": "",
          "type": "uint256"
        }
      ],
      "stateMutability": "view",
      "type": "function"
    },
    {
      "inputs": [],
      "name": "factory",
      "outputs": [
        {
          "internalType": "contract ProjectFactory",
          "name": "",
          "type": "address"
        }
      ],
      "stateMutability": "view",
      "type": "function"
    },
    {
      "inputs": [
        {
          "internalType": "uint256",
          "name": "tokenId",
          "type": "uint256"
        }
      ],
      "name": "getApproved",
      "outputs": [
        {
          "internalType": "address",
          "name": "",
          "type": "address"
        }
      ],
      "stateMutability": "view",
      "type": "function"
    },
    {
      "inputs": [],
      "name": "getBaseFee",
      "outputs": [
        {
          "internalType": "uint256",
          "name": "",
          "type": "uint256"
        }
      ],
      "stateMutability": "view",
      "type": "function"
    },
    {
      "inputs": [],
      "name": "getCounter",
      "outputs": [
        {
          "internalType": "uint256",
          "name": "",
          "type": "uint256"
        }
      ],
      "stateMutability": "view",
      "type": "function"
    },
    {
      "inputs": [
        {
          "internalType": "uint256",
          "name": "tokenId",
          "type": "uint256"
        }
      ],
      "name": "getTokenURI",
      "outputs": [
        {
          "internalType": "string",
          "name": "",
          "type": "string"
        }
      ],
      "stateMutability": "view",
      "type": "function"
    },
    {
      "inputs": [
        {
          "internalType": "uint256",
          "name": "tokenId",
          "type": "uint256"
        }
      ],
      "name": "getUserReputation",
      "outputs": [
        {
          "internalType": "uint256",
          "name": "",
          "type": "uint256"
        }
      ],
      "stateMutability": "view",
      "type": "function"
    },
    {
      "inputs": [
        {
          "internalType": "address",
          "name": "owner",
          "type": "address"
        },
        {
          "internalType": "address",
          "name": "operator",
          "type": "address"
        }
      ],
      "name": "isApprovedForAll",
      "outputs": [
        {
          "internalType": "bool",
          "name": "",
          "type": "bool"
        }
      ],
      "stateMutability": "view",
      "type": "function"
    },
    {
      "inputs": [
        {
          "internalType": "address",
          "name": "recipient",
          "type": "address"
        },
        {
          "internalType": "string",
          "name": "tokenURI",
          "type": "string"
        }
      ],
      "name": "mintNFT",
      "outputs": [],
      "stateMutability": "payable",
      "type": "function"
    },
    {
      "inputs": [],
      "name": "name",
      "outputs": [
        {
          "internalType": "string",
          "name": "",
          "type": "string"
        }
      ],
      "stateMutability": "view",
      "type": "function"
    },
    {
      "inputs": [
        {
          "internalType": "uint256",
          "name": "tokenId",
          "type": "uint256"
        }
      ],
      "name": "ownerOf",
      "outputs": [
        {
          "internalType": "address",
          "name": "",
          "type": "address"
        }
      ],
      "stateMutability": "view",
      "type": "function"
    },
    {
      "inputs": [
        {
          "internalType": "address",
          "name": "from",
          "type": "address"
        },
        {
          "internalType": "address",
          "name": "to",
          "type": "address"
        },
        {
          "internalType": "uint256",
          "name": "tokenId",
          "type": "uint256"
        }
      ],
      "name": "safeTransferFrom",
      "outputs": [],
      "stateMutability": "nonpayable",
      "type": "function"
    },
    {
      "inputs": [
        {
          "internalType": "address",
          "name": "from",
          "type": "address"
        },
        {
          "internalType": "address",
          "name": "to",
          "type": "address"
        },
        {
          "internalType": "uint256",
          "name": "tokenId",
          "type": "uint256"
        },
        {
          "internalType": "bytes",
          "name": "data",
          "type": "bytes"
        }
      ],
      "name": "safeTransferFrom",
      "outputs": [],
      "stateMutability": "nonpayable",
      "type": "function"
    },
    {
      "inputs": [
        {
          "internalType": "address",
          "name": "operator",
          "type": "address"
        },
        {
          "internalType": "bool",
          "name": "approved",
          "type": "bool"
        }
      ],
      "name": "setApprovalForAll",
      "outputs": [],
      "stateMutability": "nonpayable",
      "type": "function"
    },
    {
      "inputs": [
        {
          "internalType": "bytes4",
          "name": "interfaceId",
          "type": "bytes4"
        }
      ],
      "name": "supportsInterface",
      "outputs": [
        {
          "internalType": "bool",
          "name": "",
          "type": "bool"
        }
      ],
      "stateMutability": "view",
      "type": "function"
    },
    {
      "inputs": [],
      "name": "symbol",
      "outputs": [
        {
          "internalType": "string",
          "name": "",
          "type": "string"
        }
      ],
      "stateMutability": "view",
      "type": "function"
    },
    {
      "inputs": [
        {
          "internalType": "uint256",
          "name": "tokenId",
          "type": "uint256"
        }
      ],
      "name": "tokenURI",
      "outputs": [
        {
          "internalType": "string",
          "name": "",
          "type": "string"
        }
      ],
      "stateMutability": "view",
      "type": "function"
    },
    {
      "inputs": [
        {
          "internalType": "address",
          "name": "from",
          "type": "address"
        },
        {
          "internalType": "address",
          "name": "to",
          "type": "address"
        },
        {
          "internalType": "uint256",
          "name": "tokenId",
          "type": "uint256"
        }
      ],
      "name": "transferFrom",
      "outputs": [],
      "stateMutability": "nonpayable",
      "type": "function"
    },
    {
      "inputs": [
        {
          "internalType": "address",
          "name": "",
          "type": "address"
        }
      ],
      "name": "userNames",
      "outputs": [
        {
          "internalType": "string",
          "name": "",
          "type": "string"
        }
      ],
      "stateMutability": "view",
      "type": "function"
    },
    {
      "inputs": [
        {
          "internalType": "uint256",
          "name": "tokenId",
          "type": "uint256"
        },
        {
          "internalType": "uint256",
          "name": "amount",
          "type": "uint256"
        }
      ],
      "name": "withdrawLiquidity",
      "outputs": [],
      "stateMutability": "nonpayable",
      "type": "function"
    }
  ],
  "bytecode": "0x608060405234801561001057600080fd5b50604051611b46380380611b4683398101604081905261002f916100c7565b604051806040016040528060078152602001661554d15493919560ca1b8152506040518060400160405280600381526020016215519560ea1b815250816000908161007a91906101a3565b50600161008782826101a3565b505060006006555060079190915560088054336001600160a01b031991821617909155600980549091166001600160a01b03909216919091179055610261565b600080604083850312156100da57600080fd5b825160208401519092506001600160a01b03811681146100f957600080fd5b809150509250929050565b634e487b7160e01b600052604160045260246000fd5b600181811c9082168061012e57607f821691505b60208210810361014e57634e487b7160e01b600052602260045260246000fd5b50919050565b601f82111561019e57806000526020600020601f840160051c8101602085101561017b5750805b601f840160051c820191505b8181101561019b5760008155600101610187565b50505b505050565b81516001600160401b038111156101bc576101bc610104565b6101d0816101ca845461011a565b84610154565b6020601f82116001811461020457600083156101ec5750848201515b600019600385901b1c1916600184901b17845561019b565b600084815260208120601f198516915b828110156102345787850151825560209485019460019092019101610214565b50848210156102525786840151600019600387901b60f8161c191681555b50505050600190811b01905550565b6118d6806102706000396000f3fe6080604052600436106101805760003560e01c806370a08231116100d6578063a22cb4651161007f578063c87b56dd11610059578063c87b56dd1461041f578063e985e9c51461043f578063eacabe141461048857600080fd5b8063a22cb465146103bf578063b88d4fde146103df578063c45a0155146103ff57600080fd5b80638ada066e116100b05780638ada066e146103755780638d422c891461038a57806395d89b41146103aa57600080fd5b806370a08231146103155780637ddced5a146103355780637f2816351461035557600080fd5b806323b872dd1161013857806342842e0e1161011257806342842e0e146102c257806351c6590a146102e25780636352211e146102f557600080fd5b806323b872dd1461025557806339c079c2146102755780633bb3a24d146102a257600080fd5b8063081812fc11610169578063081812fc146101dc578063095ea7b31461021457806315e812ad1461023657600080fd5b806301ffc9a71461018557806306fdde03146101ba575b600080fd5b34801561019157600080fd5b506101a56101a0366004611338565b61049b565b60405190151581526020015b60405180910390f35b3480156101c657600080fd5b506101cf610538565b6040516101b191906113a5565b3480156101e857600080fd5b506101fc6101f73660046113b8565b6105ca565b6040516001600160a01b0390911681526020016101b1565b34801561022057600080fd5b5061023461022f3660046113ed565b6105f3565b005b34801561024257600080fd5b506007545b6040519081526020016101b1565b34801561026157600080fd5b50610234610270366004611417565b610602565b34801561028157600080fd5b506102476102903660046113b8565b6000908152600c602052604090205490565b3480156102ae57600080fd5b506101cf6102bd3660046113b8565b6106ab565b3480156102ce57600080fd5b506102346102dd366004611417565b61074d565b6102346102f03660046113b8565b61076d565b34801561030157600080fd5b506101fc6103103660046113b8565b6107df565b34801561032157600080fd5b50610247610330366004611454565b6107ea565b34801561034157600080fd5b5061023461035036600461146f565b61084b565b34801561036157600080fd5b506101cf610370366004611454565b610914565b34801561038157600080fd5b50600654610247565b34801561039657600080fd5b506102346103a5366004611491565b6109ae565b3480156103b657600080fd5b506101cf6109f6565b3480156103cb57600080fd5b506102346103da3660046114bd565b610a05565b3480156103eb57600080fd5b506102346103fa366004611589565b610a10565b34801561040b57600080fd5b506009546101fc906001600160a01b031681565b34801561042b57600080fd5b506101cf61043a3660046113b8565b610a28565b34801561044b57600080fd5b506101a561045a366004611605565b6001600160a01b03918216600090815260056020908152604080832093909416825291909152205460ff1690565b61023461049636600461162f565b610a9d565b60006001600160e01b031982167f80ac58cd0000000000000000000000000000000000000000000000000000000014806104fe57506001600160e01b031982167f5b5e139f00000000000000000000000000000000000000000000000000000000145b8061053257507f01ffc9a7000000000000000000000000000000000000000000000000000000006001600160e01b03198316145b92915050565b60606000805461054790611691565b80601f016020809104026020016040519081016040528092919081815260200182805461057390611691565b80156105c05780601f10610595576101008083540402835291602001916105c0565b820191906000526020600020905b8154815290600101906020018083116105a357829003601f168201915b5050505050905090565b60006105d582610ba2565b506000828152600460205260409020546001600160a01b0316610532565b6105fe828233610bdb565b5050565b6001600160a01b03821661063157604051633250574960e11b8152600060048201526024015b60405180910390fd5b600061063e838333610be8565b9050836001600160a01b0316816001600160a01b0316146106a5576040517f64283d7b0000000000000000000000000000000000000000000000000000000081526001600160a01b0380861660048301526024820184905282166044820152606401610628565b50505050565b6000818152600b602052604090208054606091906106c890611691565b80601f01602080910402602001604051908101604052809291908181526020018280546106f490611691565b80156107415780601f1061071657610100808354040283529160200191610741565b820191906000526020600020905b81548152906001019060200180831161072457829003601f168201915b50505050509050919050565b61076883838360405180602001604052806000815250610a10565b505050565b33610777826105ca565b6001600160a01b0316148061079c575033610791826107df565b6001600160a01b0316145b6107b957604051634994c26960e11b815260040160405180910390fd5b6000818152600c6020526040812080543492906107d79084906116e1565b909155505050565b600061053282610ba2565b60006001600160a01b03821661082f576040517f89c62b6400000000000000000000000000000000000000000000000000000000815260006004820152602401610628565b506001600160a01b031660009081526003602052604090205490565b33610855836107df565b6001600160a01b03161461087c57604051634994c26960e11b815260040160405180910390fd5b6000828152600c60205260409020548111156108ab576040516367b2cd0560e01b815260040160405180910390fd5b604051600090339083908381818185875af1925050503d80600081146108ed576040519150601f19603f3d011682016040523d82523d6000602084013e6108f2565b606091505b5050905080610768576040516367b2cd0560e01b815260040160405180910390fd5b600a602052600090815260409020805461092d90611691565b80601f016020809104026020016040519081016040528092919081815260200182805461095990611691565b80156109a65780601f1061097b576101008083540402835291602001916109a6565b820191906000526020600020905b81548152906001019060200180831161098957829003601f168201915b505050505081565b816109b8816107df565b6001600160a01b0316336001600160a01b0316146109e957604051634994c26960e11b815260040160405180910390fd5b6107688284336001610cee565b60606001805461054790611691565b6105fe338383610e39565b610a1b848484610602565b6106a53385858585610ef1565b6060610a3382610ba2565b506000610a4b60408051602081019091526000815290565b90506000815111610a6b5760405180602001604052806000815250610a96565b80610a758461101c565b604051602001610a869291906116f4565b6040516020818303038152906040525b9392505050565b600754341015610ad9576040517fd679199500000000000000000000000000000000000000000000000000000000815260040160405180910390fd5b610ae2826107ea565b15610b19576040517f5de9f2dd00000000000000000000000000000000000000000000000000000000815260040160405180910390fd5b610b25826006546110bc565b6006546000908152600b60205260409020610b40828261176a565b50600680546000908152600c6020526040808220349055915491516001600160a01b038516917f8c18ca4dd0cd32078dbb27c0f8f5662350938fde79b357a9f994e1ab9717c42091a360068054906000610b9983611829565b91905055505050565b6000818152600260205260408120546001600160a01b03168061053257604051637e27328960e01b815260048101849052602401610628565b6107688383836001610cee565b6000828152600260205260408120546001600160a01b0390811690831615610c1557610c1581848661113a565b6001600160a01b03811615610c5357610c32600085600080610cee565b6001600160a01b038116600090815260036020526040902080546000190190555b6001600160a01b03851615610c82576001600160a01b0385166000908152600360205260409020805460010190555b600084815260026020526040808220805473ffffffffffffffffffffffffffffffffffffffff19166001600160a01b0389811691821790925591518793918516917fddf252ad1be2c89b69c2b068fc378daa952ba7f163c4a11628f55a4df523b3ef91a4949350505050565b8080610d0257506001600160a01b03821615155b15610dfc576000610d1284610ba2565b90506001600160a01b03831615801590610d3e5750826001600160a01b0316816001600160a01b031614155b8015610d7057506001600160a01b0380821660009081526005602090815260408083209387168352929052205460ff16155b15610db2576040517fa9fbf51f0000000000000000000000000000000000000000000000000000000081526001600160a01b0384166004820152602401610628565b8115610dfa5783856001600160a01b0316826001600160a01b03167f8c5be1e5ebec7d5bd14f71427d1e84f3dd0314c0f7b2291e5b200ac8c7c3b92560405160405180910390a45b505b50506000908152600460205260409020805473ffffffffffffffffffffffffffffffffffffffff19166001600160a01b0392909216919091179055565b6001600160a01b038216610e84576040517f5b08ba180000000000000000000000000000000000000000000000000000000081526001600160a01b0383166004820152602401610628565b6001600160a01b03838116600081815260056020908152604080832094871680845294825291829020805460ff191686151590811790915591519182527f17307eab39ab6107e8899845ad3d59bd9653f200f220920489ca2b5937696c31910160405180910390a3505050565b6001600160a01b0383163b1561101557604051630a85bd0160e11b81526001600160a01b0384169063150b7a0290610f33908890889087908790600401611842565b6020604051808303816000875af1925050508015610f6e575060408051601f3d908101601f19168201909252610f6b91810190611883565b60015b610fd7573d808015610f9c576040519150601f19603f3d011682016040523d82523d6000602084013e610fa1565b606091505b508051600003610fcf57604051633250574960e11b81526001600160a01b0385166004820152602401610628565b805181602001fd5b6001600160e01b03198116630a85bd0160e11b1461101357604051633250574960e11b81526001600160a01b0385166004820152602401610628565b505b5050505050565b60606000611029836111b7565b600101905060008167ffffffffffffffff811115611049576110496114f9565b6040519080825280601f01601f191660200182016040528015611073576020820181803683370190505b5090508181016020015b600019017f3031323334353637383961626364656600000000000000000000000000000000600a86061a8153600a850494508461107d57509392505050565b6001600160a01b0382166110e657604051633250574960e11b815260006004820152602401610628565b60006110f483836000610be8565b90506001600160a01b03811615610768576040517f73c6ac6e00000000000000000000000000000000000000000000000000000000815260006004820152602401610628565b611145838383611299565b610768576001600160a01b03831661117357604051637e27328960e01b815260048101829052602401610628565b6040517f177e802f0000000000000000000000000000000000000000000000000000000081526001600160a01b038316600482015260248101829052604401610628565b6000807a184f03e93ff9f4daa797ed6e38ed64bf6a1f0100000000000000008310611200577a184f03e93ff9f4daa797ed6e38ed64bf6a1f010000000000000000830492506040015b6d04ee2d6d415b85acef8100000000831061122c576d04ee2d6d415b85acef8100000000830492506020015b662386f26fc10000831061124a57662386f26fc10000830492506010015b6305f5e1008310611262576305f5e100830492506008015b612710831061127657612710830492506004015b60648310611288576064830492506002015b600a83106105325760010192915050565b60006001600160a01b038316158015906113175750826001600160a01b0316846001600160a01b031614806112f357506001600160a01b0380851660009081526005602090815260408083209387168352929052205460ff165b8061131757506000828152600460205260409020546001600160a01b038481169116145b949350505050565b6001600160e01b03198116811461133557600080fd5b50565b60006020828403121561134a57600080fd5b8135610a968161131f565b60005b83811015611370578181015183820152602001611358565b50506000910152565b60008151808452611391816020860160208601611355565b601f01601f19169290920160200192915050565b602081526000610a966020830184611379565b6000602082840312156113ca57600080fd5b5035919050565b80356001600160a01b03811681146113e857600080fd5b919050565b6000806040838503121561140057600080fd5b611409836113d1565b946020939093013593505050565b60008060006060848603121561142c57600080fd5b611435846113d1565b9250611443602085016113d1565b929592945050506040919091013590565b60006020828403121561146657600080fd5b610a96826113d1565b6000806040838503121561148257600080fd5b50508035926020909101359150565b600080604083850312156114a457600080fd5b823591506114b4602084016113d1565b90509250929050565b600080604083850312156114d057600080fd5b6114d9836113d1565b9150602083013580151581146114ee57600080fd5b809150509250929050565b634e487b7160e01b600052604160045260246000fd5b60008067ffffffffffffffff84111561152a5761152a6114f9565b50604051601f19601f85018116603f0116810181811067ffffffffffffffff82111715611559576115596114f9565b60405283815290508082840185101561157157600080fd5b83836020830137600060208583010152509392505050565b6000806000806080858703121561159f57600080fd5b6115a8856113d1565b93506115b6602086016113d1565b925060408501359150606085013567ffffffffffffffff8111156115d957600080fd5b8501601f810187136115ea57600080fd5b6115f98782356020840161150f565b91505092959194509250565b6000806040838503121561161857600080fd5b611621836113d1565b91506114b4602084016113d1565b6000806040838503121561164257600080fd5b61164b836113d1565b9150602083013567ffffffffffffffff81111561166757600080fd5b8301601f8101851361167857600080fd5b6116878582356020840161150f565b9150509250929050565b600181811c908216806116a557607f821691505b6020821081036116c557634e487b7160e01b600052602260045260246000fd5b50919050565b634e487b7160e01b600052601160045260246000fd5b80820180821115610532576105326116cb565b60008351611706818460208801611355565b83519083019061171a818360208801611355565b01949350505050565b601f82111561076857806000526020600020601f840160051c8101602085101561174a5750805b601f840160051c820191505b818110156110155760008155600101611756565b815167ffffffffffffffff811115611784576117846114f9565b611798816117928454611691565b84611723565b6020601f8211600181146117cc57600083156117b45750848201515b600019600385901b1c1916600184901b178455611015565b600084815260208120601f198516915b828110156117fc57878501518255602094850194600190920191016117dc565b508482101561181a5786840151600019600387901b60f8161c191681555b50505050600190811b01905550565b60006001820161183b5761183b6116cb565b5060010190565b6001600160a01b03851681526001600160a01b03841660208201528260408201526080606082015260006118796080830184611379565b9695505050505050565b60006020828403121561189557600080fd5b8151610a968161131f56fea2646970667358221220253ea30cbde0cad1cb74ec53dfb9b452ce8ef8bd0a242123568cda45374e158964736f6c634300081c0033",
  "linkReferences": {},
  "deployedLinkReferences": {}
}