{
  "address": "0x5FbDB2315678afecb367f032d93F642f64180aa3",
  "abi": [
    {
      "inputs": [],
      "stateMutability": "nonpayable",
      "type": "constructor"
    },
    {
      "inputs": [
        {
          "internalType": "address",
          "name": "sender",
          "type": "address"
        },
        {
          "internalType": "uint256",
          "name": "tokenId",
          "type": "uint256"
        },
        {
          "internalType": "address",
          "name": "owner",
          "type": "address"
        }
      ],
      "name": "ERC721IncorrectOwner",
      "type": "error"
    },
    {
      "inputs": [
        {
          "internalType": "address",
          "name": "operator",
          "type": "address"
        },
        {
          "internalType": "uint256",
          "name": "tokenId",
          "type": "uint256"
        }
      ],
      "name": "ERC721InsufficientApproval",
      "type": "error"
    },
    {
      "inputs": [
        {
          "internalType": "address",
          "name": "approver",
          "type": "address"
        }
      ],
      "name": "ERC721InvalidApprover",
      "type": "error"
    },
    {
      "inputs": [
        {
          "internalType": "address",
          "name": "operator",
          "type": "address"
        }
      ],
      "name": "ERC721InvalidOperator",
      "type": "error"
    },
    {
      "inputs": [
        {
          "internalType": "address",
          "name": "owner",
          "type": "address"
        }
      ],
      "name": "ERC721InvalidOwner",
      "type": "error"
    },
    {
      "inputs": [
        {
          "internalType": "address",
          "name": "receiver",
          "type": "address"
        }
      ],
      "name": "ERC721InvalidReceiver",
      "type": "error"
    },
    {
      "inputs": [
        {
          "internalType": "address",
          "name": "sender",
          "type": "address"
        }
      ],
      "name": "ERC721InvalidSender",
      "type": "error"
    },
    {
      "inputs": [
        {
          "internalType": "uint256",
          "name": "tokenId",
          "type": "uint256"
        }
      ],
      "name": "ERC721NonexistentToken",
      "type": "error"
    },
    {
      "inputs": [],
      "name": "enteredInstitutionDoesNotExist",
      "type": "error"
    },
    {
      "inputs": [],
      "name": "notAnInstitution",
      "type": "error"
    },
    {
      "inputs": [],
      "name": "ownerOnly",
      "type": "error"
    },
    {
      "inputs": [],
      "name": "soulBoundToken",
      "type": "error"
    },
    {
      "inputs": [
        {
          "internalType": "address",
          "name": "institution",
          "type": "address"
        }
      ],
      "name": "unverifiedInstitution",
      "type": "error"
    },
    {
      "inputs": [
        {
          "internalType": "address",
          "name": "institution",
          "type": "address"
        }
      ],
      "name": "verifiedInstitutionAlreadyExist",
      "type": "error"
    },
    {
      "anonymous": false,
      "inputs": [
        {
          "indexed": true,
          "internalType": "address",
          "name": "owner",
          "type": "address"
        },
        {
          "indexed": true,
          "internalType": "address",
          "name": "approved",
          "type": "address"
        },
        {
          "indexed": true,
          "internalType": "uint256",
          "name": "tokenId",
          "type": "uint256"
        }
      ],
      "name": "Approval",
      "type": "event"
    },
    {
      "anonymous": false,
      "inputs": [
        {
          "indexed": true,
          "internalType": "address",
          "name": "owner",
          "type": "address"
        },
        {
          "indexed": true,
          "internalType": "address",
          "name": "operator",
          "type": "address"
        },
        {
          "indexed": false,
          "internalType": "bool",
          "name": "approved",
          "type": "bool"
        }
      ],
      "name": "ApprovalForAll",
      "type": "event"
    },
    {
      "anonymous": false,
      "inputs": [
        {
          "indexed": true,
          "internalType": "address",
          "name": "from",
          "type": "address"
        },
        {
          "indexed": true,
          "internalType": "address",
          "name": "to",
          "type": "address"
        },
        {
          "indexed": true,
          "internalType": "uint256",
          "name": "tokenId",
          "type": "uint256"
        }
      ],
      "name": "Transfer",
      "type": "event"
    },
    {
      "anonymous": false,
      "inputs": [
        {
          "indexed": true,
          "internalType": "address",
          "name": "recipient",
          "type": "address"
        },
        {
          "indexed": true,
          "internalType": "uint256",
          "name": "tokenId",
          "type": "uint256"
        }
      ],
      "name": "mintedCertificateNFT",
      "type": "event"
    },
    {
      "anonymous": false,
      "inputs": [
        {
          "indexed": false,
          "internalType": "address",
          "name": "institution",
          "type": "address"
        }
      ],
      "name": "verifiedInstitution",
      "type": "event"
    },
    {
      "inputs": [
        {
          "internalType": "address",
          "name": "institution",
          "type": "address"
        }
      ],
      "name": "addNewInstitution",
      "outputs": [],
      "stateMutability": "nonpayable",
      "type": "function"
    },
    {
      "inputs": [
        {
          "internalType": "address",
          "name": "to",
          "type": "address"
        },
        {
          "internalType": "uint256",
          "name": "tokenId",
          "type": "uint256"
        }
      ],
      "name": "approve",
      "outputs": [],
      "stateMutability": "nonpayable",
      "type": "function"
    },
    {
      "inputs": [
        {
          "internalType": "address",
          "name": "owner",
          "type": "address"
        }
      ],
      "name": "balanceOf",
      "outputs": [
        {
          "internalType": "uint256",
          "name": "",
          "type": "uint256"
        }
      ],
      "stateMutability": "view",
      "type": "function"
    },
    {
      "inputs": [
        {
          "internalType": "uint256",
          "name": "tokenId",
          "type": "uint256"
        }
      ],
      "name": "getApproved",
      "outputs": [
        {
          "internalType": "address",
          "name": "",
          "type": "address"
        }
      ],
      "stateMutability": "view",
      "type": "function"
    },
    {
      "inputs": [],
      "name": "getCounter",
      "outputs": [
        {
          "internalType": "uint256",
          "name": "",
          "type": "uint256"
        }
      ],
      "stateMutability": "view",
      "type": "function"
    },
    {
      "inputs": [
        {
          "internalType": "address",
          "name": "institution",
          "type": "address"
        }
      ],
      "name": "getInstitutionStatus",
      "outputs": [
        {
          "internalType": "enum CertificateNFT.institutionStatus",
          "name": "",
          "type": "uint8"
        }
      ],
      "stateMutability": "view",
      "type": "function"
    },
    {
      "inputs": [
        {
          "internalType": "uint256",
          "name": "tokenId",
          "type": "uint256"
        }
      ],
      "name": "getTokenURI",
      "outputs": [
        {
          "internalType": "string",
          "name": "",
          "type": "string"
        }
      ],
      "stateMutability": "view",
      "type": "function"
    },
    {
      "inputs": [
        {
          "internalType": "address",
          "name": "owner",
          "type": "address"
        },
        {
          "internalType": "address",
          "name": "operator",
          "type": "address"
        }
      ],
      "name": "isApprovedForAll",
      "outputs": [
        {
          "internalType": "bool",
          "name": "",
          "type": "bool"
        }
      ],
      "stateMutability": "view",
      "type": "function"
    },
    {
      "inputs": [
        {
          "internalType": "address",
          "name": "recipient",
          "type": "address"
        },
        {
          "internalType": "string",
          "name": "tokenURI",
          "type": "string"
        }
      ],
      "name": "mintNFT",
      "outputs": [],
      "stateMutability": "nonpayable",
      "type": "function"
    },
    {
      "inputs": [],
      "name": "name",
      "outputs": [
        {
          "internalType": "string",
          "name": "",
          "type": "string"
        }
      ],
      "stateMutability": "view",
      "type": "function"
    },
    {
      "inputs": [
        {
          "internalType": "uint256",
          "name": "tokenId",
          "type": "uint256"
        }
      ],
      "name": "ownerOf",
      "outputs": [
        {
          "internalType": "address",
          "name": "",
          "type": "address"
        }
      ],
      "stateMutability": "view",
      "type": "function"
    },
    {
      "inputs": [
        {
          "internalType": "address",
          "name": "from",
          "type": "address"
        },
        {
          "internalType": "address",
          "name": "to",
          "type": "address"
        },
        {
          "internalType": "uint256",
          "name": "tokenId",
          "type": "uint256"
        }
      ],
      "name": "safeTransferFrom",
      "outputs": [],
      "stateMutability": "nonpayable",
      "type": "function"
    },
    {
      "inputs": [
        {
          "internalType": "address",
          "name": "from",
          "type": "address"
        },
        {
          "internalType": "address",
          "name": "to",
          "type": "address"
        },
        {
          "internalType": "uint256",
          "name": "tokenId",
          "type": "uint256"
        },
        {
          "internalType": "bytes",
          "name": "data",
          "type": "bytes"
        }
      ],
      "name": "safeTransferFrom",
      "outputs": [],
      "stateMutability": "nonpayable",
      "type": "function"
    },
    {
      "inputs": [
        {
          "internalType": "address",
          "name": "operator",
          "type": "address"
        },
        {
          "internalType": "bool",
          "name": "approved",
          "type": "bool"
        }
      ],
      "name": "setApprovalForAll",
      "outputs": [],
      "stateMutability": "nonpayable",
      "type": "function"
    },
    {
      "inputs": [
        {
          "internalType": "bytes4",
          "name": "interfaceId",
          "type": "bytes4"
        }
      ],
      "name": "supportsInterface",
      "outputs": [
        {
          "internalType": "bool",
          "name": "",
          "type": "bool"
        }
      ],
      "stateMutability": "view",
      "type": "function"
    },
    {
      "inputs": [],
      "name": "symbol",
      "outputs": [
        {
          "internalType": "string",
          "name": "",
          "type": "string"
        }
      ],
      "stateMutability": "view",
      "type": "function"
    },
    {
      "inputs": [],
      "name": "tokenCounter",
      "outputs": [
        {
          "internalType": "uint256",
          "name": "",
          "type": "uint256"
        }
      ],
      "stateMutability": "view",
      "type": "function"
    },
    {
      "inputs": [
        {
          "internalType": "uint256",
          "name": "tokenId",
          "type": "uint256"
        }
      ],
      "name": "tokenURI",
      "outputs": [
        {
          "internalType": "string",
          "name": "",
          "type": "string"
        }
      ],
      "stateMutability": "view",
      "type": "function"
    },
    {
      "inputs": [
        {
          "internalType": "address",
          "name": "from",
          "type": "address"
        },
        {
          "internalType": "address",
          "name": "to",
          "type": "address"
        },
        {
          "internalType": "uint256",
          "name": "tokenId",
          "type": "uint256"
        }
      ],
      "name": "transferFrom",
      "outputs": [],
      "stateMutability": "nonpayable",
      "type": "function"
    },
    {
      "inputs": [
        {
          "internalType": "address",
          "name": "institution",
          "type": "address"
        }
      ],
      "name": "verifyInstitution",
      "outputs": [],
      "stateMutability": "nonpayable",
      "type": "function"
    }
  ],
  "transactionHash": "0x5b6b7a608ffa81a5c6449ad8e2560a68611f70b8a48db85f0b83d82fd4f35fbc",
  "args": [],
  "numDeployments": 1,
  "solcInputHash": "76d15439ec5d16b2710895ae71217d9c",
  "bytecode": "0x608060405234801561001057600080fd5b506040518060400160405280600c81526020017f4345525449434154454e465400000000000000000000000000000000000000008152506040518060400160405280600381526020017f4352540000000000000000000000000000000000000000000000000000000000815250816000908161008c919061033d565b50806001908161009c919061033d565b505050600060068190555033600760006101000a81548173ffffffffffffffffffffffffffffffffffffffff021916908373ffffffffffffffffffffffffffffffffffffffff16021790555061040f565b600081519050919050565b7f4e487b7100000000000000000000000000000000000000000000000000000000600052604160045260246000fd5b7f4e487b7100000000000000000000000000000000000000000000000000000000600052602260045260246000fd5b6000600282049050600182168061016e57607f821691505b60208210810361018157610180610127565b5b50919050565b60008190508160005260206000209050919050565b60006020601f8301049050919050565b600082821b905092915050565b6000600883026101e97fffffffffffffffffffffffffffffffffffffffffffffffffffffffffffffffff826101ac565b6101f386836101ac565b95508019841693508086168417925050509392505050565b6000819050919050565b6000819050919050565b600061023a6102356102308461020b565b610215565b61020b565b9050919050565b6000819050919050565b6102548361021f565b61026861026082610241565b8484546101b9565b825550505050565b600090565b61027d610270565b61028881848461024b565b505050565b5b818110156102ac576102a1600082610275565b60018101905061028e565b5050565b601f8211156102f1576102c281610187565b6102cb8461019c565b810160208510156102da578190505b6102ee6102e68561019c565b83018261028d565b50505b505050565b600082821c905092915050565b6000610314600019846008026102f6565b1980831691505092915050565b600061032d8383610303565b9150826002028217905092915050565b610346826100ed565b67ffffffffffffffff81111561035f5761035e6100f8565b5b6103698254610156565b6103748282856102b0565b600060209050601f8311600181146103a75760008415610395578287015190505b61039f8582610321565b865550610407565b601f1984166103b586610187565b60005b828110156103dd578489015182556001820191506020850194506020810190506103b8565b868310156103fa57848901516103f6601f891682610303565b8355505b6001600288020188555050505b505050505050565b61257e8061041e6000396000f3fe608060405234801561001057600080fd5b506004361061012c5760003560e01c80638959d070116100ad578063b88d4fde11610071578063b88d4fde14610353578063c87b56dd1461036f578063d082e3811461039f578063e985e9c5146103bd578063eacabe14146103ed5761012c565b80638959d070146102af5780638ada066e146102df57806395d89b41146102fd578063a22cb4651461031b578063a38f290d146103375761012c565b80633bb3a24d116100f45780633bb3a24d146101e75780633e1685161461021757806342842e0e146102335780636352211e1461024f57806370a082311461027f5761012c565b806301ffc9a71461013157806306fdde0314610161578063081812fc1461017f578063095ea7b3146101af57806323b872dd146101cb575b600080fd5b61014b60048036038101906101469190611a5e565b610409565b6040516101589190611aa6565b60405180910390f35b6101696104eb565b6040516101769190611b51565b60405180910390f35b61019960048036038101906101949190611ba9565b61057d565b6040516101a69190611c17565b60405180910390f35b6101c960048036038101906101c49190611c5e565b610599565b005b6101e560048036038101906101e09190611c9e565b6105af565b005b61020160048036038101906101fc9190611ba9565b6105ec565b60405161020e9190611b51565b60405180910390f35b610231600480360381019061022c9190611cf1565b610691565b005b61024d60048036038101906102489190611c9e565b61082d565b005b61026960048036038101906102649190611ba9565b61084d565b6040516102769190611c17565b60405180910390f35b61029960048036038101906102949190611cf1565b61085f565b6040516102a69190611d2d565b60405180910390f35b6102c960048036038101906102c49190611cf1565b610919565b6040516102d69190611dbf565b60405180910390f35b6102e7610a18565b6040516102f49190611d2d565b60405180910390f35b610305610a22565b6040516103129190611b51565b60405180910390f35b61033560048036038101906103309190611e06565b610ab4565b005b610351600480360381019061034c9190611cf1565b610aca565b005b61036d60048036038101906103689190611f7b565b610bec565b005b61038960048036038101906103849190611ba9565b610c2a565b6040516103969190611b51565b60405180910390f35b6103a7610c93565b6040516103b49190611d2d565b60405180910390f35b6103d760048036038101906103d29190611ffe565b610c99565b6040516103e49190611aa6565b60405180910390f35b610407600480360381019061040291906120df565b610d2d565b005b60007f80ac58cd000000000000000000000000000000000000000000000000000000007bffffffffffffffffffffffffffffffffffffffffffffffffffffffff1916827bffffffffffffffffffffffffffffffffffffffffffffffffffffffff191614806104d457507f5b5e139f000000000000000000000000000000000000000000000000000000007bffffffffffffffffffffffffffffffffffffffffffffffffffffffff1916827bffffffffffffffffffffffffffffffffffffffffffffffffffffffff1916145b806104e457506104e382610e68565b5b9050919050565b6060600080546104fa9061216a565b80601f01602080910402602001604051908101604052809291908181526020018280546105269061216a565b80156105735780601f1061054857610100808354040283529160200191610573565b820191906000526020600020905b81548152906001019060200180831161055657829003601f168201915b5050505050905090565b600061058882610ed2565b5061059282610f5a565b9050919050565b6105ab82826105a6610f97565b610f9f565b5050565b60006105e7576040517f4290ba9000000000000000000000000000000000000000000000000000000000815260040160405180910390fd5b505050565b606060096000838152602001908152602001600020805461060c9061216a565b80601f01602080910402602001604051908101604052809291908181526020018280546106389061216a565b80156106855780601f1061065a57610100808354040283529160200191610685565b820191906000526020600020905b81548152906001019060200180831161066857829003601f168201915b50505050509050919050565b600760009054906101000a900473ffffffffffffffffffffffffffffffffffffffff1673ffffffffffffffffffffffffffffffffffffffff163373ffffffffffffffffffffffffffffffffffffffff1614610718576040517f896f40dd00000000000000000000000000000000000000000000000000000000815260040160405180910390fd5b6000600281111561072c5761072b611d48565b5b600860008373ffffffffffffffffffffffffffffffffffffffff1673ffffffffffffffffffffffffffffffffffffffff16815260200190815260200160002060009054906101000a900460ff16600281111561078b5761078a611d48565b5b036107c2576040517f86594fbb00000000000000000000000000000000000000000000000000000000815260040160405180910390fd5b6002600860008373ffffffffffffffffffffffffffffffffffffffff1673ffffffffffffffffffffffffffffffffffffffff16815260200190815260200160002060006101000a81548160ff0219169083600281111561082557610824611d48565b5b021790555050565b61084883838360405180602001604052806000815250610bec565b505050565b600061085882610ed2565b9050919050565b60008073ffffffffffffffffffffffffffffffffffffffff168273ffffffffffffffffffffffffffffffffffffffff16036108d25760006040517f89c62b640000000000000000000000000000000000000000000000000000000081526004016108c99190611c17565b60405180910390fd5b600360008373ffffffffffffffffffffffffffffffffffffffff1673ffffffffffffffffffffffffffffffffffffffff168152602001908152602001600020549050919050565b600080600281111561092e5761092d611d48565b5b600860008473ffffffffffffffffffffffffffffffffffffffff1673ffffffffffffffffffffffffffffffffffffffff16815260200190815260200160002060009054906101000a900460ff16600281111561098d5761098c611d48565b5b036109c4576040517f86594fbb00000000000000000000000000000000000000000000000000000000815260040160405180910390fd5b600860008373ffffffffffffffffffffffffffffffffffffffff1673ffffffffffffffffffffffffffffffffffffffff16815260200190815260200160002060009054906101000a900460ff169050919050565b6000600654905090565b606060018054610a319061216a565b80601f0160208091040260200160405190810160405280929190818152602001828054610a5d9061216a565b8015610aaa5780601f10610a7f57610100808354040283529160200191610aaa565b820191906000526020600020905b815481529060010190602001808311610a8d57829003601f168201915b5050505050905090565b610ac6610abf610f97565b8383610fb1565b5050565b600280811115610add57610adc611d48565b5b600860008373ffffffffffffffffffffffffffffffffffffffff1673ffffffffffffffffffffffffffffffffffffffff16815260200190815260200160002060009054906101000a900460ff166002811115610b3c57610b3b611d48565b5b14158190610b80576040517f0a76efb2000000000000000000000000000000000000000000000000000000008152600401610b779190611c17565b60405180910390fd5b506001600860008373ffffffffffffffffffffffffffffffffffffffff1673ffffffffffffffffffffffffffffffffffffffff16815260200190815260200160002060006101000a81548160ff02191690836002811115610be457610be3611d48565b5b021790555050565b6000610c24576040517f4290ba9000000000000000000000000000000000000000000000000000000000815260040160405180910390fd5b50505050565b6060610c3582610ed2565b506000610c40611120565b90506000815111610c605760405180602001604052806000815250610c8b565b80610c6a84611137565b604051602001610c7b9291906121d7565b6040516020818303038152906040525b915050919050565b60065481565b6000600560008473ffffffffffffffffffffffffffffffffffffffff1673ffffffffffffffffffffffffffffffffffffffff16815260200190815260200160002060008373ffffffffffffffffffffffffffffffffffffffff1673ffffffffffffffffffffffffffffffffffffffff16815260200190815260200160002060009054906101000a900460ff16905092915050565b60006002811115610d4157610d40611d48565b5b600860003373ffffffffffffffffffffffffffffffffffffffff1673ffffffffffffffffffffffffffffffffffffffff16815260200190815260200160002060009054906101000a900460ff166002811115610da057610d9f611d48565b5b03610dd7576040517f86594fbb00000000000000000000000000000000000000000000000000000000815260040160405180910390fd5b610de382600654611205565b806009600060065481526020019081526020016000209081610e0591906123a7565b506006548273ffffffffffffffffffffffffffffffffffffffff167f531d98725e7944ace85707198df213b1a7421fd9165ced340cb189321672c4ae60405160405180910390a360066000815480929190610e5f906124a8565b91905055505050565b60007f01ffc9a7000000000000000000000000000000000000000000000000000000007bffffffffffffffffffffffffffffffffffffffffffffffffffffffff1916827bffffffffffffffffffffffffffffffffffffffffffffffffffffffff1916149050919050565b600080610ede836112fe565b9050600073ffffffffffffffffffffffffffffffffffffffff168173ffffffffffffffffffffffffffffffffffffffff1603610f5157826040517f7e273289000000000000000000000000000000000000000000000000000000008152600401610f489190611d2d565b60405180910390fd5b80915050919050565b60006004600083815260200190815260200160002060009054906101000a900473ffffffffffffffffffffffffffffffffffffffff169050919050565b600033905090565b610fac838383600161133b565b505050565b600073ffffffffffffffffffffffffffffffffffffffff168273ffffffffffffffffffffffffffffffffffffffff160361102257816040517f5b08ba180000000000000000000000000000000000000000000000000000000081526004016110199190611c17565b60405180910390fd5b80600560008573ffffffffffffffffffffffffffffffffffffffff1673ffffffffffffffffffffffffffffffffffffffff16815260200190815260200160002060008473ffffffffffffffffffffffffffffffffffffffff1673ffffffffffffffffffffffffffffffffffffffff16815260200190815260200160002060006101000a81548160ff0219169083151502179055508173ffffffffffffffffffffffffffffffffffffffff168373ffffffffffffffffffffffffffffffffffffffff167f17307eab39ab6107e8899845ad3d59bd9653f200f220920489ca2b5937696c31836040516111139190611aa6565b60405180910390a3505050565b606060405180602001604052806000815250905090565b60606000600161114684611500565b01905060008167ffffffffffffffff81111561116557611164611e50565b5b6040519080825280601f01601f1916602001820160405280156111975781602001600182028036833780820191505090505b509050600082602001820190505b6001156111fa578080600190039150507f3031323334353637383961626364656600000000000000000000000000000000600a86061a8153600a85816111ee576111ed6124f0565b5b049450600085036111a5575b819350505050919050565b600073ffffffffffffffffffffffffffffffffffffffff168273ffffffffffffffffffffffffffffffffffffffff16036112775760006040517f64a0ae9200000000000000000000000000000000000000000000000000000000815260040161126e9190611c17565b60405180910390fd5b600061128583836000611653565b9050600073ffffffffffffffffffffffffffffffffffffffff168173ffffffffffffffffffffffffffffffffffffffff16146112f95760006040517f73c6ac6e0000000000000000000000000000000000000000000000000000000081526004016112f09190611c17565b60405180910390fd5b505050565b60006002600083815260200190815260200160002060009054906101000a900473ffffffffffffffffffffffffffffffffffffffff169050919050565b80806113745750600073ffffffffffffffffffffffffffffffffffffffff168273ffffffffffffffffffffffffffffffffffffffff1614155b156114a857600061138484610ed2565b9050600073ffffffffffffffffffffffffffffffffffffffff168373ffffffffffffffffffffffffffffffffffffffff16141580156113ef57508273ffffffffffffffffffffffffffffffffffffffff168173ffffffffffffffffffffffffffffffffffffffff1614155b801561140257506114008184610c99565b155b1561144457826040517fa9fbf51f00000000000000000000000000000000000000000000000000000000815260040161143b9190611c17565b60405180910390fd5b81156114a657838573ffffffffffffffffffffffffffffffffffffffff168273ffffffffffffffffffffffffffffffffffffffff167f8c5be1e5ebec7d5bd14f71427d1e84f3dd0314c0f7b2291e5b200ac8c7c3b92560405160405180910390a45b505b836004600085815260200190815260200160002060006101000a81548173ffffffffffffffffffffffffffffffffffffffff021916908373ffffffffffffffffffffffffffffffffffffffff16021790555050505050565b600080600090507a184f03e93ff9f4daa797ed6e38ed64bf6a1f010000000000000000831061155e577a184f03e93ff9f4daa797ed6e38ed64bf6a1f0100000000000000008381611554576115536124f0565b5b0492506040810190505b6d04ee2d6d415b85acef8100000000831061159b576d04ee2d6d415b85acef81000000008381611591576115906124f0565b5b0492506020810190505b662386f26fc1000083106115ca57662386f26fc1000083816115c0576115bf6124f0565b5b0492506010810190505b6305f5e10083106115f3576305f5e10083816115e9576115e86124f0565b5b0492506008810190505b612710831061161857612710838161160e5761160d6124f0565b5b0492506004810190505b6064831061163b5760648381611631576116306124f0565b5b0492506002810190505b600a831061164a576001810190505b80915050919050565b60008061165f846112fe565b9050600073ffffffffffffffffffffffffffffffffffffffff168373ffffffffffffffffffffffffffffffffffffffff16146116a1576116a081848661186d565b5b600073ffffffffffffffffffffffffffffffffffffffff168173ffffffffffffffffffffffffffffffffffffffff1614611732576116e360008560008061133b565b6001600360008373ffffffffffffffffffffffffffffffffffffffff1673ffffffffffffffffffffffffffffffffffffffff168152602001908152602001600020600082825403925050819055505b600073ffffffffffffffffffffffffffffffffffffffff168573ffffffffffffffffffffffffffffffffffffffff16146117b5576001600360008773ffffffffffffffffffffffffffffffffffffffff1673ffffffffffffffffffffffffffffffffffffffff168152602001908152602001600020600082825401925050819055505b846002600086815260200190815260200160002060006101000a81548173ffffffffffffffffffffffffffffffffffffffff021916908373ffffffffffffffffffffffffffffffffffffffff160217905550838573ffffffffffffffffffffffffffffffffffffffff168273ffffffffffffffffffffffffffffffffffffffff167fddf252ad1be2c89b69c2b068fc378daa952ba7f163c4a11628f55a4df523b3ef60405160405180910390a4809150509392505050565b611878838383611931565b61192c57600073ffffffffffffffffffffffffffffffffffffffff168373ffffffffffffffffffffffffffffffffffffffff16036118ed57806040517f7e2732890000000000000000000000000000000000000000000000000000000081526004016118e49190611d2d565b60405180910390fd5b81816040517f177e802f00000000000000000000000000000000000000000000000000000000815260040161192392919061251f565b60405180910390fd5b505050565b60008073ffffffffffffffffffffffffffffffffffffffff168373ffffffffffffffffffffffffffffffffffffffff16141580156119e957508273ffffffffffffffffffffffffffffffffffffffff168473ffffffffffffffffffffffffffffffffffffffff1614806119aa57506119a98484610c99565b5b806119e857508273ffffffffffffffffffffffffffffffffffffffff166119d083610f5a565b73ffffffffffffffffffffffffffffffffffffffff16145b5b90509392505050565b6000604051905090565b600080fd5b600080fd5b60007fffffffff0000000000000000000000000000000000000000000000000000000082169050919050565b611a3b81611a06565b8114611a4657600080fd5b50565b600081359050611a5881611a32565b92915050565b600060208284031215611a7457611a736119fc565b5b6000611a8284828501611a49565b91505092915050565b60008115159050919050565b611aa081611a8b565b82525050565b6000602082019050611abb6000830184611a97565b92915050565b600081519050919050565b600082825260208201905092915050565b60005b83811015611afb578082015181840152602081019050611ae0565b60008484015250505050565b6000601f19601f8301169050919050565b6000611b2382611ac1565b611b2d8185611acc565b9350611b3d818560208601611add565b611b4681611b07565b840191505092915050565b60006020820190508181036000830152611b6b8184611b18565b905092915050565b6000819050919050565b611b8681611b73565b8114611b9157600080fd5b50565b600081359050611ba381611b7d565b92915050565b600060208284031215611bbf57611bbe6119fc565b5b6000611bcd84828501611b94565b91505092915050565b600073ffffffffffffffffffffffffffffffffffffffff82169050919050565b6000611c0182611bd6565b9050919050565b611c1181611bf6565b82525050565b6000602082019050611c2c6000830184611c08565b92915050565b611c3b81611bf6565b8114611c4657600080fd5b50565b600081359050611c5881611c32565b92915050565b60008060408385031215611c7557611c746119fc565b5b6000611c8385828601611c49565b9250506020611c9485828601611b94565b9150509250929050565b600080600060608486031215611cb757611cb66119fc565b5b6000611cc586828701611c49565b9350506020611cd686828701611c49565b9250506040611ce786828701611b94565b9150509250925092565b600060208284031215611d0757611d066119fc565b5b6000611d1584828501611c49565b91505092915050565b611d2781611b73565b82525050565b6000602082019050611d426000830184611d1e565b92915050565b7f4e487b7100000000000000000000000000000000000000000000000000000000600052602160045260246000fd5b60038110611d8857611d87611d48565b5b50565b6000819050611d9982611d77565b919050565b6000611da982611d8b565b9050919050565b611db981611d9e565b82525050565b6000602082019050611dd46000830184611db0565b92915050565b611de381611a8b565b8114611dee57600080fd5b50565b600081359050611e0081611dda565b92915050565b60008060408385031215611e1d57611e1c6119fc565b5b6000611e2b85828601611c49565b9250506020611e3c85828601611df1565b9150509250929050565b600080fd5b600080fd5b7f4e487b7100000000000000000000000000000000000000000000000000000000600052604160045260246000fd5b611e8882611b07565b810181811067ffffffffffffffff82111715611ea757611ea6611e50565b5b80604052505050565b6000611eba6119f2565b9050611ec68282611e7f565b919050565b600067ffffffffffffffff821115611ee657611ee5611e50565b5b611eef82611b07565b9050602081019050919050565b82818337600083830152505050565b6000611f1e611f1984611ecb565b611eb0565b905082815260208101848484011115611f3a57611f39611e4b565b5b611f45848285611efc565b509392505050565b600082601f830112611f6257611f61611e46565b5b8135611f72848260208601611f0b565b91505092915050565b60008060008060808587031215611f9557611f946119fc565b5b6000611fa387828801611c49565b9450506020611fb487828801611c49565b9350506040611fc587828801611b94565b925050606085013567ffffffffffffffff811115611fe657611fe5611a01565b5b611ff287828801611f4d565b91505092959194509250565b60008060408385031215612015576120146119fc565b5b600061202385828601611c49565b925050602061203485828601611c49565b9150509250929050565b600067ffffffffffffffff82111561205957612058611e50565b5b61206282611b07565b9050602081019050919050565b600061208261207d8461203e565b611eb0565b90508281526020810184848401111561209e5761209d611e4b565b5b6120a9848285611efc565b509392505050565b600082601f8301126120c6576120c5611e46565b5b81356120d684826020860161206f565b91505092915050565b600080604083850312156120f6576120f56119fc565b5b600061210485828601611c49565b925050602083013567ffffffffffffffff81111561212557612124611a01565b5b612131858286016120b1565b9150509250929050565b7f4e487b7100000000000000000000000000000000000000000000000000000000600052602260045260246000fd5b6000600282049050600182168061218257607f821691505b6020821081036121955761219461213b565b5b50919050565b600081905092915050565b60006121b182611ac1565b6121bb818561219b565b93506121cb818560208601611add565b80840191505092915050565b60006121e382856121a6565b91506121ef82846121a6565b91508190509392505050565b60008190508160005260206000209050919050565b60006020601f8301049050919050565b600082821b905092915050565b60006008830261225d7fffffffffffffffffffffffffffffffffffffffffffffffffffffffffffffffff82612220565b6122678683612220565b95508019841693508086168417925050509392505050565b6000819050919050565b60006122a461229f61229a84611b73565b61227f565b611b73565b9050919050565b6000819050919050565b6122be83612289565b6122d26122ca826122ab565b84845461222d565b825550505050565b600090565b6122e76122da565b6122f28184846122b5565b505050565b5b818110156123165761230b6000826122df565b6001810190506122f8565b5050565b601f82111561235b5761232c816121fb565b61233584612210565b81016020851015612344578190505b61235861235085612210565b8301826122f7565b50505b505050565b600082821c905092915050565b600061237e60001984600802612360565b1980831691505092915050565b6000612397838361236d565b9150826002028217905092915050565b6123b082611ac1565b67ffffffffffffffff8111156123c9576123c8611e50565b5b6123d3825461216a565b6123de82828561231a565b600060209050601f83116001811461241157600084156123ff578287015190505b612409858261238b565b865550612471565b601f19841661241f866121fb565b60005b8281101561244757848901518255600182019150602085019450602081019050612422565b868310156124645784890151612460601f89168261236d565b8355505b6001600288020188555050505b505050505050565b7f4e487b7100000000000000000000000000000000000000000000000000000000600052601160045260246000fd5b60006124b382611b73565b91507fffffffffffffffffffffffffffffffffffffffffffffffffffffffffffffffff82036124e5576124e4612479565b5b600182019050919050565b7f4e487b7100000000000000000000000000000000000000000000000000000000600052601260045260246000fd5b60006040820190506125346000830185611c08565b6125416020830184611d1e565b939250505056fea26469706673582212202ec4769b0c6525a47807d11ff631604c2cea2c8ed1f1f85b3badc81b2fc9a3ab64736f6c634300081c0033",
  "devdoc": {
    "author": "samumaio",
    "errors": {
      "ERC721IncorrectOwner(address,uint256,address)": [
        {
          "details": "Indicates an error related to the ownership over a particular token. Used in transfers.",
          "params": {
            "owner": "Address of the current owner of a token.",
            "sender": "Address whose tokens are being transferred.",
            "tokenId": "Identifier number of a token."
          }
        }
      ],
      "ERC721InsufficientApproval(address,uint256)": [
        {
          "details": "Indicates a failure with the `operator`s approval. Used in transfers.",
          "params": {
            "operator": "Address that may be allowed to operate on tokens without being their owner.",
            "tokenId": "Identifier number of a token."
          }
        }
      ],
      "ERC721InvalidApprover(address)": [
        {
          "details": "Indicates a failure with the `approver` of a token to be approved. Used in approvals.",
          "params": {
            "approver": "Address initiating an approval operation."
          }
        }
      ],
      "ERC721InvalidOperator(address)": [
        {
          "details": "Indicates a failure with the `operator` to be approved. Used in approvals.",
          "params": {
            "operator": "Address that may be allowed to operate on tokens without being their owner."
          }
        }
      ],
      "ERC721InvalidOwner(address)": [
        {
          "details": "Indicates that an address can't be an owner. For example, `address(0)` is a forbidden owner in ERC-20. Used in balance queries.",
          "params": {
            "owner": "Address of the current owner of a token."
          }
        }
      ],
      "ERC721InvalidReceiver(address)": [
        {
          "details": "Indicates a failure with the token `receiver`. Used in transfers.",
          "params": {
            "receiver": "Address to which tokens are being transferred."
          }
        }
      ],
      "ERC721InvalidSender(address)": [
        {
          "details": "Indicates a failure with the token `sender`. Used in transfers.",
          "params": {
            "sender": "Address whose tokens are being transferred."
          }
        }
      ],
      "ERC721NonexistentToken(uint256)": [
        {
          "details": "Indicates a `tokenId` whose `owner` is the zero address.",
          "params": {
            "tokenId": "Identifier number of a token."
          }
        }
      ]
    },
    "events": {
      "Approval(address,address,uint256)": {
        "details": "Emitted when `owner` enables `approved` to manage the `tokenId` token."
      },
      "ApprovalForAll(address,address,bool)": {
        "details": "Emitted when `owner` enables or disables (`approved`) `operator` to manage all of its assets."
      },
      "Transfer(address,address,uint256)": {
        "details": "Emitted when `tokenId` token is transferred from `from` to `to`."
      }
    },
    "kind": "dev",
    "methods": {
      "approve(address,uint256)": {
        "details": "See {IERC721-approve}."
      },
      "balanceOf(address)": {
        "details": "See {IERC721-balanceOf}."
      },
      "getApproved(uint256)": {
        "details": "See {IERC721-getApproved}."
      },
      "isApprovedForAll(address,address)": {
        "details": "See {IERC721-isApprovedForAll}."
      },
      "name()": {
        "details": "See {IERC721Metadata-name}."
      },
      "ownerOf(uint256)": {
        "details": "See {IERC721-ownerOf}."
      },
      "safeTransferFrom(address,address,uint256)": {
        "details": "See {IERC721-safeTransferFrom}."
      },
      "safeTransferFrom(address,address,uint256,bytes)": {
        "details": "See {IERC721-safeTransferFrom}."
      },
      "setApprovalForAll(address,bool)": {
        "details": "See {IERC721-setApprovalForAll}."
      },
      "supportsInterface(bytes4)": {
        "details": "See {IERC165-supportsInterface}."
      },
      "symbol()": {
        "details": "See {IERC721Metadata-symbol}."
      },
      "tokenURI(uint256)": {
        "details": "See {IERC721Metadata-tokenURI}."
      },
      "transferFrom(address,address,uint256)": {
        "details": "See {IERC721-transferFrom}."
      }
    },
    "title": "Certificate ERC 721 NFT",
    "version": 1
  },
  "userdoc": {
    "kind": "user",
    "methods": {},
    "notice": "This smart contract mints a Certificate NFT on behalf of a certain user from the platform. Furthermore this contract should be a Soul bound token so as to not be transfered.",
    "version": 1
  },
  "storageLayout": {
    "storage": [
      {
        "astId": 169,
        "contract": "contracts/CertificateNFT.sol:CertificateNFT",
        "label": "_name",
        "offset": 0,
        "slot": "0",
        "type": "t_string_storage"
      },
      {
        "astId": 171,
        "contract": "contracts/CertificateNFT.sol:CertificateNFT",
        "label": "_symbol",
        "offset": 0,
        "slot": "1",
        "type": "t_string_storage"
      },
      {
        "astId": 175,
        "contract": "contracts/CertificateNFT.sol:CertificateNFT",
        "label": "_owners",
        "offset": 0,
        "slot": "2",
        "type": "t_mapping(t_uint256,t_address)"
      },
      {
        "astId": 179,
        "contract": "contracts/CertificateNFT.sol:CertificateNFT",
        "label": "_balances",
        "offset": 0,
        "slot": "3",
        "type": "t_mapping(t_address,t_uint256)"
      },
      {
        "astId": 183,
        "contract": "contracts/CertificateNFT.sol:CertificateNFT",
        "label": "_tokenApprovals",
        "offset": 0,
        "slot": "4",
        "type": "t_mapping(t_uint256,t_address)"
      },
      {
        "astId": 189,
        "contract": "contracts/CertificateNFT.sol:CertificateNFT",
        "label": "_operatorApprovals",
        "offset": 0,
        "slot": "5",
        "type": "t_mapping(t_address,t_mapping(t_address,t_bool))"
      },
      {
        "astId": 6174,
        "contract": "contracts/CertificateNFT.sol:CertificateNFT",
        "label": "tokenCounter",
        "offset": 0,
        "slot": "6",
        "type": "t_uint256"
      },
      {
        "astId": 6176,
        "contract": "contracts/CertificateNFT.sol:CertificateNFT",
        "label": "owner",
        "offset": 0,
        "slot": "7",
        "type": "t_address_payable"
      },
      {
        "astId": 6181,
        "contract": "contracts/CertificateNFT.sol:CertificateNFT",
        "label": "institutions",
        "offset": 0,
        "slot": "8",
        "type": "t_mapping(t_address,t_enum(institutionStatus)6229)"
      },
      {
        "astId": 6185,
        "contract": "contracts/CertificateNFT.sol:CertificateNFT",
        "label": "tokenURIs",
        "offset": 0,
        "slot": "9",
        "type": "t_mapping(t_uint256,t_string_storage)"
      }
    ],
    "types": {
      "t_address": {
        "encoding": "inplace",
        "label": "address",
        "numberOfBytes": "20"
      },
      "t_address_payable": {
        "encoding": "inplace",
        "label": "address payable",
        "numberOfBytes": "20"
      },
      "t_bool": {
        "encoding": "inplace",
        "label": "bool",
        "numberOfBytes": "1"
      },
      "t_enum(institutionStatus)6229": {
        "encoding": "inplace",
        "label": "enum CertificateNFT.institutionStatus",
        "numberOfBytes": "1"
      },
      "t_mapping(t_address,t_bool)": {
        "encoding": "mapping",
        "key": "t_address",
        "label": "mapping(address => bool)",
        "numberOfBytes": "32",
        "value": "t_bool"
      },
      "t_mapping(t_address,t_enum(institutionStatus)6229)": {
        "encoding": "mapping",
        "key": "t_address",
        "label": "mapping(address => enum CertificateNFT.institutionStatus)",
        "numberOfBytes": "32",
        "value": "t_enum(institutionStatus)6229"
      },
      "t_mapping(t_address,t_mapping(t_address,t_bool))": {
        "encoding": "mapping",
        "key": "t_address",
        "label": "mapping(address => mapping(address => bool))",
        "numberOfBytes": "32",
        "value": "t_mapping(t_address,t_bool)"
      },
      "t_mapping(t_address,t_uint256)": {
        "encoding": "mapping",
        "key": "t_address",
        "label": "mapping(address => uint256)",
        "numberOfBytes": "32",
        "value": "t_uint256"
      },
      "t_mapping(t_uint256,t_address)": {
        "encoding": "mapping",
        "key": "t_uint256",
        "label": "mapping(uint256 => address)",
        "numberOfBytes": "32",
        "value": "t_address"
      },
      "t_mapping(t_uint256,t_string_storage)": {
        "encoding": "mapping",
        "key": "t_uint256",
        "label": "mapping(uint256 => string)",
        "numberOfBytes": "32",
        "value": "t_string_storage"
      },
      "t_string_storage": {
        "encoding": "bytes",
        "label": "string",
        "numberOfBytes": "32"
      },
      "t_uint256": {
        "encoding": "inplace",
        "label": "uint256",
        "numberOfBytes": "32"
      }
    }
  }
}