{
  "address": "0xB442b9C5F0aE0647ffa3F4A2bC368357499F7B76",
  "abi": [
    {
      "inputs": [],
      "stateMutability": "nonpayable",
      "type": "constructor"
    },
    {
      "inputs": [
        {
          "internalType": "address",
          "name": "sender",
          "type": "address"
        },
        {
          "internalType": "uint256",
          "name": "tokenId",
          "type": "uint256"
        },
        {
          "internalType": "address",
          "name": "owner",
          "type": "address"
        }
      ],
      "name": "ERC721IncorrectOwner",
      "type": "error"
    },
    {
      "inputs": [
        {
          "internalType": "address",
          "name": "operator",
          "type": "address"
        },
        {
          "internalType": "uint256",
          "name": "tokenId",
          "type": "uint256"
        }
      ],
      "name": "ERC721InsufficientApproval",
      "type": "error"
    },
    {
      "inputs": [
        {
          "internalType": "address",
          "name": "approver",
          "type": "address"
        }
      ],
      "name": "ERC721InvalidApprover",
      "type": "error"
    },
    {
      "inputs": [
        {
          "internalType": "address",
          "name": "operator",
          "type": "address"
        }
      ],
      "name": "ERC721InvalidOperator",
      "type": "error"
    },
    {
      "inputs": [
        {
          "internalType": "address",
          "name": "owner",
          "type": "address"
        }
      ],
      "name": "ERC721InvalidOwner",
      "type": "error"
    },
    {
      "inputs": [
        {
          "internalType": "address",
          "name": "receiver",
          "type": "address"
        }
      ],
      "name": "ERC721InvalidReceiver",
      "type": "error"
    },
    {
      "inputs": [
        {
          "internalType": "address",
          "name": "sender",
          "type": "address"
        }
      ],
      "name": "ERC721InvalidSender",
      "type": "error"
    },
    {
      "inputs": [
        {
          "internalType": "uint256",
          "name": "tokenId",
          "type": "uint256"
        }
      ],
      "name": "ERC721NonexistentToken",
      "type": "error"
    },
    {
      "inputs": [
        {
          "internalType": "address",
          "name": "institution",
          "type": "address"
        }
      ],
      "name": "InstitutionAlreadyExist",
      "type": "error"
    },
    {
      "inputs": [],
      "name": "ReentrancyGuardReentrantCall",
      "type": "error"
    },
    {
      "inputs": [],
      "name": "enteredInstitutionDoesNotExist",
      "type": "error"
    },
    {
      "inputs": [],
      "name": "institutionHasAlreadyVoted",
      "type": "error"
    },
    {
      "inputs": [],
      "name": "invalidDuration",
      "type": "error"
    },
    {
      "inputs": [],
      "name": "notAnInstitution",
      "type": "error"
    },
    {
      "inputs": [
        {
          "internalType": "address",
          "name": "institution",
          "type": "address"
        }
      ],
      "name": "notUnverifiedInstitution",
      "type": "error"
    },
    {
      "inputs": [],
      "name": "ownerOnly",
      "type": "error"
    },
    {
      "inputs": [
        {
          "internalType": "uint256",
          "name": "proposalId",
          "type": "uint256"
        }
      ],
      "name": "proposalAlreadyExecuted",
      "type": "error"
    },
    {
      "inputs": [
        {
          "internalType": "uint256",
          "name": "proposalId",
          "type": "uint256"
        }
      ],
      "name": "proposalEnded",
      "type": "error"
    },
    {
      "inputs": [
        {
          "internalType": "uint256",
          "name": "proposalId",
          "type": "uint256"
        }
      ],
      "name": "proposalIdNotFound",
      "type": "error"
    },
    {
      "inputs": [
        {
          "internalType": "uint256",
          "name": "proposalId",
          "type": "uint256"
        }
      ],
      "name": "proposalNotEnded",
      "type": "error"
    },
    {
      "inputs": [
        {
          "internalType": "address",
          "name": "institution",
          "type": "address"
        }
      ],
      "name": "rejectedInstitution",
      "type": "error"
    },
    {
      "inputs": [],
      "name": "soulBoundToken",
      "type": "error"
    },
    {
      "inputs": [
        {
          "internalType": "address",
          "name": "institution",
          "type": "address"
        }
      ],
      "name": "unverifiedInstitution",
      "type": "error"
    },
    {
      "inputs": [
        {
          "internalType": "address",
          "name": "institution",
          "type": "address"
        }
      ],
      "name": "verifiedInstitutionAlreadyExists",
      "type": "error"
    },
    {
      "anonymous": false,
      "inputs": [
        {
          "indexed": true,
          "internalType": "address",
          "name": "owner",
          "type": "address"
        },
        {
          "indexed": true,
          "internalType": "address",
          "name": "approved",
          "type": "address"
        },
        {
          "indexed": true,
          "internalType": "uint256",
          "name": "tokenId",
          "type": "uint256"
        }
      ],
      "name": "Approval",
      "type": "event"
    },
    {
      "anonymous": false,
      "inputs": [
        {
          "indexed": true,
          "internalType": "address",
          "name": "owner",
          "type": "address"
        },
        {
          "indexed": true,
          "internalType": "address",
          "name": "operator",
          "type": "address"
        },
        {
          "indexed": false,
          "internalType": "bool",
          "name": "approved",
          "type": "bool"
        }
      ],
      "name": "ApprovalForAll",
      "type": "event"
    },
    {
      "anonymous": false,
      "inputs": [
        {
          "indexed": true,
          "internalType": "address",
          "name": "from",
          "type": "address"
        },
        {
          "indexed": true,
          "internalType": "address",
          "name": "to",
          "type": "address"
        },
        {
          "indexed": true,
          "internalType": "uint256",
          "name": "tokenId",
          "type": "uint256"
        }
      ],
      "name": "Transfer",
      "type": "event"
    },
    {
      "anonymous": false,
      "inputs": [
        {
          "indexed": true,
          "internalType": "address",
          "name": "recipient",
          "type": "address"
        },
        {
          "indexed": true,
          "internalType": "uint256",
          "name": "tokenId",
          "type": "uint256"
        }
      ],
      "name": "mintedCertificateNFT",
      "type": "event"
    },
    {
      "anonymous": false,
      "inputs": [
        {
          "indexed": true,
          "internalType": "address",
          "name": "institution",
          "type": "address"
        },
        {
          "indexed": true,
          "internalType": "uint256",
          "name": "duration",
          "type": "uint256"
        }
      ],
      "name": "proposalCreated",
      "type": "event"
    },
    {
      "anonymous": false,
      "inputs": [
        {
          "indexed": true,
          "internalType": "address",
          "name": "institution",
          "type": "address"
        },
        {
          "indexed": true,
          "internalType": "bool",
          "name": "approved",
          "type": "bool"
        }
      ],
      "name": "proposalExecuted",
      "type": "event"
    },
    {
      "anonymous": false,
      "inputs": [
        {
          "indexed": true,
          "internalType": "uint256",
          "name": "proposalId",
          "type": "uint256"
        }
      ],
      "name": "proposalVoted",
      "type": "event"
    },
    {
      "anonymous": false,
      "inputs": [
        {
          "indexed": false,
          "internalType": "address",
          "name": "institution",
          "type": "address"
        }
      ],
      "name": "verifiedInstitution",
      "type": "event"
    },
    {
      "inputs": [
        {
          "internalType": "address",
          "name": "institution",
          "type": "address"
        },
        {
          "internalType": "string",
          "name": "name",
          "type": "string"
        }
      ],
      "name": "addNewInstitution",
      "outputs": [],
      "stateMutability": "nonpayable",
      "type": "function"
    },
    {
      "inputs": [
        {
          "internalType": "address",
          "name": "to",
          "type": "address"
        },
        {
          "internalType": "uint256",
          "name": "tokenId",
          "type": "uint256"
        }
      ],
      "name": "approve",
      "outputs": [],
      "stateMutability": "nonpayable",
      "type": "function"
    },
    {
      "inputs": [
        {
          "internalType": "address",
          "name": "owner",
          "type": "address"
        }
      ],
      "name": "balanceOf",
      "outputs": [
        {
          "internalType": "uint256",
          "name": "",
          "type": "uint256"
        }
      ],
      "stateMutability": "view",
      "type": "function"
    },
    {
      "inputs": [
        {
          "internalType": "uint256",
          "name": "duration",
          "type": "uint256"
        },
        {
          "internalType": "bool",
          "name": "isDay",
          "type": "bool"
        }
      ],
      "name": "createProposal",
      "outputs": [],
      "stateMutability": "nonpayable",
      "type": "function"
    },
    {
      "inputs": [
        {
          "internalType": "uint256",
          "name": "proposalId",
          "type": "uint256"
        }
      ],
      "name": "executeProposal",
      "outputs": [],
      "stateMutability": "nonpayable",
      "type": "function"
    },
    {
      "inputs": [],
      "name": "getAllInstitutions",
      "outputs": [
        {
          "internalType": "address[]",
          "name": "",
          "type": "address[]"
        }
      ],
      "stateMutability": "view",
      "type": "function"
    },
    {
      "inputs": [],
      "name": "getAllProposals",
      "outputs": [
        {
          "components": [
            {
              "internalType": "address",
              "name": "institutionAddress",
              "type": "address"
            },
            {
              "internalType": "uint256",
              "name": "votesFor",
              "type": "uint256"
            },
            {
              "internalType": "uint256",
              "name": "votesAgainst",
              "type": "uint256"
            },
            {
              "internalType": "uint256",
              "name": "endTime",
              "type": "uint256"
            },
            {
              "internalType": "bool",
              "name": "executed",
              "type": "bool"
            }
          ],
          "internalType": "struct CertificateNFTGovernance.Proposal[]",
          "name": "",
          "type": "tuple[]"
        }
      ],
      "stateMutability": "view",
      "type": "function"
    },
    {
      "inputs": [
        {
          "internalType": "uint256",
          "name": "tokenId",
          "type": "uint256"
        }
      ],
      "name": "getApproved",
      "outputs": [
        {
          "internalType": "address",
          "name": "",
          "type": "address"
        }
      ],
      "stateMutability": "view",
      "type": "function"
    },
    {
      "inputs": [],
      "name": "getCounter",
      "outputs": [
        {
          "internalType": "uint256",
          "name": "",
          "type": "uint256"
        }
      ],
      "stateMutability": "view",
      "type": "function"
    },
    {
      "inputs": [
        {
          "internalType": "address",
          "name": "institution",
          "type": "address"
        }
      ],
      "name": "getDaysLeft",
      "outputs": [
        {
          "internalType": "uint256",
          "name": "",
          "type": "uint256"
        }
      ],
      "stateMutability": "view",
      "type": "function"
    },
    {
      "inputs": [
        {
          "internalType": "address",
          "name": "institution",
          "type": "address"
        }
      ],
      "name": "getInstitutionName",
      "outputs": [
        {
          "internalType": "string",
          "name": "",
          "type": "string"
        }
      ],
      "stateMutability": "view",
      "type": "function"
    },
    {
      "inputs": [
        {
          "internalType": "address",
          "name": "institution",
          "type": "address"
        }
      ],
      "name": "getInstitutionStatus",
      "outputs": [
        {
          "internalType": "enum CertificateNFT.institutionStatus",
          "name": "",
          "type": "uint8"
        }
      ],
      "stateMutability": "view",
      "type": "function"
    },
    {
      "inputs": [],
      "name": "getOwner",
      "outputs": [
        {
          "internalType": "address",
          "name": "",
          "type": "address"
        }
      ],
      "stateMutability": "view",
      "type": "function"
    },
    {
      "inputs": [
        {
          "internalType": "uint256",
          "name": "proposalId",
          "type": "uint256"
        }
      ],
      "name": "getProposal",
      "outputs": [
        {
          "components": [
            {
              "internalType": "address",
              "name": "institutionAddress",
              "type": "address"
            },
            {
              "internalType": "uint256",
              "name": "votesFor",
              "type": "uint256"
            },
            {
              "internalType": "uint256",
              "name": "votesAgainst",
              "type": "uint256"
            },
            {
              "internalType": "uint256",
              "name": "endTime",
              "type": "uint256"
            },
            {
              "internalType": "bool",
              "name": "executed",
              "type": "bool"
            }
          ],
          "internalType": "struct CertificateNFTGovernance.Proposal",
          "name": "",
          "type": "tuple"
        }
      ],
      "stateMutability": "view",
      "type": "function"
    },
    {
      "inputs": [],
      "name": "getProposalCounter",
      "outputs": [
        {
          "internalType": "uint256",
          "name": "",
          "type": "uint256"
        }
      ],
      "stateMutability": "view",
      "type": "function"
    },
    {
      "inputs": [],
      "name": "getRejectDuration",
      "outputs": [
        {
          "internalType": "uint256",
          "name": "",
          "type": "uint256"
        }
      ],
      "stateMutability": "pure",
      "type": "function"
    },
    {
      "inputs": [
        {
          "internalType": "uint256",
          "name": "tokenId",
          "type": "uint256"
        }
      ],
      "name": "getTokenURI",
      "outputs": [
        {
          "internalType": "string",
          "name": "",
          "type": "string"
        }
      ],
      "stateMutability": "view",
      "type": "function"
    },
    {
      "inputs": [
        {
          "internalType": "address",
          "name": "owner",
          "type": "address"
        },
        {
          "internalType": "address",
          "name": "operator",
          "type": "address"
        }
      ],
      "name": "isApprovedForAll",
      "outputs": [
        {
          "internalType": "bool",
          "name": "",
          "type": "bool"
        }
      ],
      "stateMutability": "view",
      "type": "function"
    },
    {
      "inputs": [
        {
          "internalType": "address",
          "name": "recipient",
          "type": "address"
        },
        {
          "internalType": "string",
          "name": "tokenURI",
          "type": "string"
        }
      ],
      "name": "mintNFT",
      "outputs": [],
      "stateMutability": "nonpayable",
      "type": "function"
    },
    {
      "inputs": [],
      "name": "name",
      "outputs": [
        {
          "internalType": "string",
          "name": "",
          "type": "string"
        }
      ],
      "stateMutability": "view",
      "type": "function"
    },
    {
      "inputs": [
        {
          "internalType": "uint256",
          "name": "tokenId",
          "type": "uint256"
        }
      ],
      "name": "ownerOf",
      "outputs": [
        {
          "internalType": "address",
          "name": "",
          "type": "address"
        }
      ],
      "stateMutability": "view",
      "type": "function"
    },
    {
      "inputs": [
        {
          "internalType": "uint256",
          "name": "",
          "type": "uint256"
        }
      ],
      "name": "s_proposals",
      "outputs": [
        {
          "internalType": "address",
          "name": "institutionAddress",
          "type": "address"
        },
        {
          "internalType": "uint256",
          "name": "votesFor",
          "type": "uint256"
        },
        {
          "internalType": "uint256",
          "name": "votesAgainst",
          "type": "uint256"
        },
        {
          "internalType": "uint256",
          "name": "endTime",
          "type": "uint256"
        },
        {
          "internalType": "bool",
          "name": "executed",
          "type": "bool"
        }
      ],
      "stateMutability": "view",
      "type": "function"
    },
    {
      "inputs": [
        {
          "internalType": "address",
          "name": "",
          "type": "address"
        }
      ],
      "name": "s_rejectedInstitutions",
      "outputs": [
        {
          "internalType": "uint256",
          "name": "",
          "type": "uint256"
        }
      ],
      "stateMutability": "view",
      "type": "function"
    },
    {
      "inputs": [
        {
          "internalType": "address",
          "name": "from",
          "type": "address"
        },
        {
          "internalType": "address",
          "name": "to",
          "type": "address"
        },
        {
          "internalType": "uint256",
          "name": "tokenId",
          "type": "uint256"
        }
      ],
      "name": "safeTransferFrom",
      "outputs": [],
      "stateMutability": "nonpayable",
      "type": "function"
    },
    {
      "inputs": [
        {
          "internalType": "address",
          "name": "from",
          "type": "address"
        },
        {
          "internalType": "address",
          "name": "to",
          "type": "address"
        },
        {
          "internalType": "uint256",
          "name": "tokenId",
          "type": "uint256"
        },
        {
          "internalType": "bytes",
          "name": "data",
          "type": "bytes"
        }
      ],
      "name": "safeTransferFrom",
      "outputs": [],
      "stateMutability": "nonpayable",
      "type": "function"
    },
    {
      "inputs": [
        {
          "internalType": "address",
          "name": "operator",
          "type": "address"
        },
        {
          "internalType": "bool",
          "name": "approved",
          "type": "bool"
        }
      ],
      "name": "setApprovalForAll",
      "outputs": [],
      "stateMutability": "nonpayable",
      "type": "function"
    },
    {
      "inputs": [
        {
          "internalType": "bytes4",
          "name": "interfaceId",
          "type": "bytes4"
        }
      ],
      "name": "supportsInterface",
      "outputs": [
        {
          "internalType": "bool",
          "name": "",
          "type": "bool"
        }
      ],
      "stateMutability": "view",
      "type": "function"
    },
    {
      "inputs": [],
      "name": "symbol",
      "outputs": [
        {
          "internalType": "string",
          "name": "",
          "type": "string"
        }
      ],
      "stateMutability": "view",
      "type": "function"
    },
    {
      "inputs": [],
      "name": "tokenCounter",
      "outputs": [
        {
          "internalType": "uint256",
          "name": "",
          "type": "uint256"
        }
      ],
      "stateMutability": "view",
      "type": "function"
    },
    {
      "inputs": [
        {
          "internalType": "uint256",
          "name": "tokenId",
          "type": "uint256"
        }
      ],
      "name": "tokenURI",
      "outputs": [
        {
          "internalType": "string",
          "name": "",
          "type": "string"
        }
      ],
      "stateMutability": "view",
      "type": "function"
    },
    {
      "inputs": [
        {
          "internalType": "address",
          "name": "from",
          "type": "address"
        },
        {
          "internalType": "address",
          "name": "to",
          "type": "address"
        },
        {
          "internalType": "uint256",
          "name": "tokenId",
          "type": "uint256"
        }
      ],
      "name": "transferFrom",
      "outputs": [],
      "stateMutability": "nonpayable",
      "type": "function"
    },
    {
      "inputs": [
        {
          "internalType": "address",
          "name": "institution",
          "type": "address"
        }
      ],
      "name": "verifyInstitution",
      "outputs": [],
      "stateMutability": "nonpayable",
      "type": "function"
    },
    {
      "inputs": [
        {
          "internalType": "uint256",
          "name": "proposalId",
          "type": "uint256"
        },
        {
          "internalType": "bool",
          "name": "voteFor",
          "type": "bool"
        }
      ],
      "name": "vote",
      "outputs": [],
      "stateMutability": "nonpayable",
      "type": "function"
    }
  ],
  "transactionHash": "0x71ebcbd66e77e804995e416cc60a1806d9de9899d0f671f2d869650e42f481d3",
  "args": [],
  "numDeployments": 2,
  "solcInputHash": "71dada93a79d5a48e196c49b72c4590a",
  "bytecode": "0x608060405234801561001057600080fd5b506040518060400160405280600c81526020017f4345525449434154454e465400000000000000000000000000000000000000008152506040518060400160405280600381526020017f4352540000000000000000000000000000000000000000000000000000000000815250816000908161008c919061034d565b50806001908161009c919061034d565b505050600060068190555033600760006101000a81548173ffffffffffffffffffffffffffffffffffffffff021916908373ffffffffffffffffffffffffffffffffffffffff1602179055506001600c81905550600060108190555061041f565b600081519050919050565b7f4e487b7100000000000000000000000000000000000000000000000000000000600052604160045260246000fd5b7f4e487b7100000000000000000000000000000000000000000000000000000000600052602260045260246000fd5b6000600282049050600182168061017e57607f821691505b60208210810361019157610190610137565b5b50919050565b60008190508160005260206000209050919050565b60006020601f8301049050919050565b600082821b905092915050565b6000600883026101f97fffffffffffffffffffffffffffffffffffffffffffffffffffffffffffffffff826101bc565b61020386836101bc565b95508019841693508086168417925050509392505050565b6000819050919050565b6000819050919050565b600061024a6102456102408461021b565b610225565b61021b565b9050919050565b6000819050919050565b6102648361022f565b61027861027082610251565b8484546101c9565b825550505050565b600090565b61028d610280565b61029881848461025b565b505050565b5b818110156102bc576102b1600082610285565b60018101905061029e565b5050565b601f821115610301576102d281610197565b6102db846101ac565b810160208510156102ea578190505b6102fe6102f6856101ac565b83018261029d565b50505b505050565b600082821c905092915050565b600061032460001984600802610306565b1980831691505092915050565b600061033d8383610313565b9150826002028217905092915050565b610356826100fd565b67ffffffffffffffff81111561036f5761036e610108565b5b6103798254610166565b6103848282856102c0565b600060209050601f8311600181146103b757600084156103a5578287015190505b6103af8582610331565b865550610417565b601f1984166103c586610197565b60005b828110156103ed578489015182556001820191506020850194506020810190506103c8565b8683101561040a5784890151610406601f891682610313565b8355505b6001600288020188555050505b505050505050565b613e2f8061042e6000396000f3fe608060405234801561001057600080fd5b50600436106101fb5760003560e01c8063893d20e81161011a578063b88d4fde116100ad578063cceb68f51161007c578063cceb68f5146105fe578063d082e3811461061c578063e017ea321461063a578063e985e9c51461066a578063eacabe141461069a576101fb565b8063b88d4fde14610566578063c7f758a814610582578063c87b56dd146105b2578063c9d27afe146105e2576101fb565b8063958319ec116100e9578063958319ec146104dc57806395d89b41146104f8578063a22cb46514610516578063a7e9df5614610532576101fb565b8063893d20e8146104525780638959d070146104705780638ada066e146104a05780638d5b4067146104be576101fb565b80632dba0006116101925780634104180e116101615780634104180e146103b857806342842e0e146103d65780636352211e146103f257806370a0823114610422576101fb565b80632dba00061461031e57806336b659971461033c5780633bb3a24d1461036c5780633e1685161461039c576101fb565b8063095ea7b3116101ce578063095ea7b3146102ae5780630d61b519146102ca5780631f832cd6146102e657806323b872dd14610302576101fb565b806301ffc9a71461020057806306d1b2fe1461023057806306fdde0314610260578063081812fc1461027e575b600080fd5b61021a60048036038101906102159190612cdf565b6106b6565b6040516102279190612d27565b60405180910390f35b61024a60048036038101906102459190612da0565b610798565b6040516102579190612de6565b60405180910390f35b610268610839565b6040516102759190612e91565b60405180910390f35b61029860048036038101906102939190612edf565b6108cb565b6040516102a59190612f1b565b60405180910390f35b6102c860048036038101906102c39190612f36565b6108e7565b005b6102e460048036038101906102df9190612edf565b6108fd565b005b61030060048036038101906102fb9190612fa2565b610c1c565b005b61031c60048036038101906103179190612fe2565b610ef1565b005b610326610f37565b6040516103339190612de6565b60405180910390f35b61035660048036038101906103519190612da0565b610f42565b6040516103639190612de6565b60405180910390f35b61038660048036038101906103819190612edf565b610f5a565b6040516103939190612e91565b60405180910390f35b6103b660048036038101906103b19190612da0565b610fff565b005b6103c06111e4565b6040516103cd91906130f3565b60405180910390f35b6103f060048036038101906103eb9190612fe2565b611272565b005b61040c60048036038101906104079190612edf565b611292565b6040516104199190612f1b565b60405180910390f35b61043c60048036038101906104379190612da0565b6112a4565b6040516104499190612de6565b60405180910390f35b61045a61135e565b6040516104679190612f1b565b60405180910390f35b61048a60048036038101906104859190612da0565b611388565b604051610497919061318c565b60405180910390f35b6104a86113de565b6040516104b59190612de6565b60405180910390f35b6104c66113e8565b6040516104d39190612de6565b60405180910390f35b6104f660048036038101906104f191906132dc565b6113f2565b005b61050061163e565b60405161050d9190612e91565b60405180910390f35b610530600480360381019061052b9190613338565b6116d0565b005b61054c60048036038101906105479190612edf565b6116e6565b60405161055d959493929190613378565b60405180910390f35b610580600480360381019061057b919061346c565b611749565b005b61059c60048036038101906105979190612edf565b611790565b6040516105a99190613575565b60405180910390f35b6105cc60048036038101906105c79190612edf565b61189e565b6040516105d99190612e91565b60405180910390f35b6105fc60048036038101906105f79190612fa2565b611907565b005b610606611c63565b60405161061391906136a7565b60405180910390f35b610624611dac565b6040516106319190612de6565b60405180910390f35b610654600480360381019061064f9190612da0565b611db2565b6040516106619190612e91565b60405180910390f35b610684600480360381019061067f91906136c9565b611e83565b6040516106919190612d27565b60405180910390f35b6106b460048036038101906106af91906132dc565b611f17565b005b60007f80ac58cd000000000000000000000000000000000000000000000000000000007bffffffffffffffffffffffffffffffffffffffffffffffffffffffff1916827bffffffffffffffffffffffffffffffffffffffffffffffffffffffff1916148061078157507f5b5e139f000000000000000000000000000000000000000000000000000000007bffffffffffffffffffffffffffffffffffffffffffffffffffffffff1916827bffffffffffffffffffffffffffffffffffffffffffffffffffffffff1916145b80610791575061079082612052565b5b9050919050565b600080600e60008473ffffffffffffffffffffffffffffffffffffffff1673ffffffffffffffffffffffffffffffffffffffff16815260200190815260200160002054905060008114806107f957506276a700816107f69190613738565b42115b15610808576000915050610834565b62015180426276a7008361081c9190613738565b610826919061376c565b61083091906137cf565b9150505b919050565b6060600080546108489061382f565b80601f01602080910402602001604051908101604052809291908181526020018280546108749061382f565b80156108c15780601f10610896576101008083540402835291602001916108c1565b820191906000526020600020905b8154815290600101906020018083116108a457829003601f168201915b5050505050905090565b60006108d6826120bc565b506108e082612144565b9050919050565b6108f982826108f4612181565b612189565b5050565b600760009054906101000a900473ffffffffffffffffffffffffffffffffffffffff1673ffffffffffffffffffffffffffffffffffffffff163373ffffffffffffffffffffffffffffffffffffffff161461098d576040517f08c379a0000000000000000000000000000000000000000000000000000000008152600401610984906138ac565b60405180910390fd5b6000600d60008381526020019081526020016000206040518060a00160405290816000820160009054906101000a900473ffffffffffffffffffffffffffffffffffffffff1673ffffffffffffffffffffffffffffffffffffffff1673ffffffffffffffffffffffffffffffffffffffff1681526020016001820154815260200160028201548152602001600382015481526020016004820160009054906101000a900460ff16151515158152505090506000816060015114158290610a89576040517ffaf66ea9000000000000000000000000000000000000000000000000000000008152600401610a809190612de6565b60405180910390fd5b50806060015142118290610ad3576040517f0fb891c5000000000000000000000000000000000000000000000000000000008152600401610aca9190612de6565b60405180910390fd5b508060800151158290610b1c576040517f09ff7252000000000000000000000000000000000000000000000000000000008152600401610b139190612de6565b60405180910390fd5b506001600d600084815260200190815260200160002060040160006101000a81548160ff0219169083151502179055506000816040015182602001511115610b7457610b6b8260000151610fff565b60019050610bcd565b8160400151826020015114610bcc5742600e6000846000015173ffffffffffffffffffffffffffffffffffffffff1673ffffffffffffffffffffffffffffffffffffffff168152602001908152602001600020819055505b5b801515826000015173ffffffffffffffffffffffffffffffffffffffff167f7745d71a4be808e4c2ce16eabb0c47208c72a57fde3d997ba8847e4bf554276d60405160405180910390a3505050565b6000600e60003373ffffffffffffffffffffffffffffffffffffffff1673ffffffffffffffffffffffffffffffffffffffff1681526020019081526020016000205490506000811480610c7c57506276a70081610c799190613738565b42115b3390610cbe576040517f2b977d96000000000000000000000000000000000000000000000000000000008152600401610cb59190612f1b565b60405180910390fd5b5060016002811115610cd357610cd2613115565b5b610cdc33611388565b6002811115610cee57610ced613115565b5b143390610d31576040517f04101f95000000000000000000000000000000000000000000000000000000008152600401610d289190612f1b565b60405180910390fd5b5081158015610d4357506276a7008311155b80610d585750818015610d575750605a8311155b5b610d8e576040517f8e4c7b4300000000000000000000000000000000000000000000000000000000815260040160405180910390fd5b8115610da6576201518083610da391906138cc565b92505b6040518060a001604052803373ffffffffffffffffffffffffffffffffffffffff16815260200160008152602001600081526020018442610de79190613738565b815260200160001515815250600d6000601054815260200190815260200160002060008201518160000160006101000a81548173ffffffffffffffffffffffffffffffffffffffff021916908373ffffffffffffffffffffffffffffffffffffffff16021790555060208201518160010155604082015181600201556060820151816003015560808201518160040160006101000a81548160ff021916908315150217905550905050823373ffffffffffffffffffffffffffffffffffffffff167fc89a81be55ee41b6033b5d2ec11727edaaea46f87eea47df78428b1e86ec0f6760405160405180910390a360106000815480929190610ee79061390e565b9190505550505050565b6000610f32576040517f08c379a0000000000000000000000000000000000000000000000000000000008152600401610f29906139a2565b60405180910390fd5b505050565b60006276a700905090565b600e6020528060005260406000206000915090505481565b6060600a60008381526020019081526020016000208054610f7a9061382f565b80601f0160208091040260200160405190810160405280929190818152602001828054610fa69061382f565b8015610ff35780601f10610fc857610100808354040283529160200191610ff3565b820191906000526020600020905b815481529060010190602001808311610fd657829003601f168201915b50505050509050919050565b600760009054906101000a900473ffffffffffffffffffffffffffffffffffffffff1673ffffffffffffffffffffffffffffffffffffffff163373ffffffffffffffffffffffffffffffffffffffff161461108f576040517f08c379a0000000000000000000000000000000000000000000000000000000008152600401611086906138ac565b60405180910390fd5b600060028111156110a3576110a2613115565b5b600860008373ffffffffffffffffffffffffffffffffffffffff1673ffffffffffffffffffffffffffffffffffffffff16815260200190815260200160002060009054906101000a900460ff16600281111561110257611101613115565b5b03611142576040517f08c379a000000000000000000000000000000000000000000000000000000000815260040161113990613a0e565b60405180910390fd5b6002600860008373ffffffffffffffffffffffffffffffffffffffff1673ffffffffffffffffffffffffffffffffffffffff16815260200190815260200160002060006101000a81548160ff021916908360028111156111a5576111a4613115565b5b02179055507f39280a66601974b5c7bd9edb5dc20e0b27a0e012296956a440bdd5fa9e54d065816040516111d99190612f1b565b60405180910390a150565b6060600b80548060200260200160405190810160405280929190818152602001828054801561126857602002820191906000526020600020905b8160009054906101000a900473ffffffffffffffffffffffffffffffffffffffff1673ffffffffffffffffffffffffffffffffffffffff168152602001906001019080831161121e575b5050505050905090565b61128d83838360405180602001604052806000815250611749565b505050565b600061129d826120bc565b9050919050565b60008073ffffffffffffffffffffffffffffffffffffffff168273ffffffffffffffffffffffffffffffffffffffff16036113175760006040517f89c62b6400000000000000000000000000000000000000000000000000000000815260040161130e9190612f1b565b60405180910390fd5b600360008373ffffffffffffffffffffffffffffffffffffffff1673ffffffffffffffffffffffffffffffffffffffff168152602001908152602001600020549050919050565b6000600760009054906101000a900473ffffffffffffffffffffffffffffffffffffffff16905090565b6000600860008373ffffffffffffffffffffffffffffffffffffffff1673ffffffffffffffffffffffffffffffffffffffff16815260200190815260200160002060009054906101000a900460ff169050919050565b6000600654905090565b6000601054905090565b60028081111561140557611404613115565b5b600860008473ffffffffffffffffffffffffffffffffffffffff1673ffffffffffffffffffffffffffffffffffffffff16815260200190815260200160002060009054906101000a900460ff16600281111561146457611463613115565b5b141582906114a8576040517fef0cf6e800000000000000000000000000000000000000000000000000000000815260040161149f9190612f1b565b60405180910390fd5b50600060028111156114bd576114bc613115565b5b600860008473ffffffffffffffffffffffffffffffffffffffff1673ffffffffffffffffffffffffffffffffffffffff16815260200190815260200160002060009054906101000a900460ff16600281111561151c5761151b613115565b5b0361158557600b829080600181540180825580915050600190039060005260206000200160009091909190916101000a81548173ffffffffffffffffffffffffffffffffffffffff021916908373ffffffffffffffffffffffffffffffffffffffff1602179055505b6001600860008473ffffffffffffffffffffffffffffffffffffffff1673ffffffffffffffffffffffffffffffffffffffff16815260200190815260200160002060006101000a81548160ff021916908360028111156115e8576115e7613115565b5b021790555080600960008473ffffffffffffffffffffffffffffffffffffffff1673ffffffffffffffffffffffffffffffffffffffff16815260200190815260200160002090816116399190613bda565b505050565b60606001805461164d9061382f565b80601f01602080910402602001604051908101604052809291908181526020018280546116799061382f565b80156116c65780601f1061169b576101008083540402835291602001916116c6565b820191906000526020600020905b8154815290600101906020018083116116a957829003601f168201915b5050505050905090565b6116e26116db612181565b838361219b565b5050565b600d6020528060005260406000206000915090508060000160009054906101000a900473ffffffffffffffffffffffffffffffffffffffff16908060010154908060020154908060030154908060040160009054906101000a900460ff16905085565b600061178a576040517f08c379a0000000000000000000000000000000000000000000000000000000008152600401611781906139a2565b60405180910390fd5b50505050565b611798612c2c565b6000600d60008481526020019081526020016000206040518060a00160405290816000820160009054906101000a900473ffffffffffffffffffffffffffffffffffffffff1673ffffffffffffffffffffffffffffffffffffffff1673ffffffffffffffffffffffffffffffffffffffff1681526020016001820154815260200160028201548152602001600382015481526020016004820160009054906101000a900460ff16151515158152505090506000816060015114158390611894576040517ffaf66ea900000000000000000000000000000000000000000000000000000000815260040161188b9190612de6565b60405180910390fd5b5080915050919050565b60606118a9826120bc565b5060006118b461230a565b905060008151116118d457604051806020016040528060008152506118ff565b806118de84612321565b6040516020016118ef929190613ce8565b6040516020818303038152906040525b915050919050565b60028081111561191a57611919613115565b5b600860003373ffffffffffffffffffffffffffffffffffffffff1673ffffffffffffffffffffffffffffffffffffffff16815260200190815260200160002060009054906101000a900460ff16600281111561197957611978613115565b5b1433906119bc576040517f5e3a1e7c0000000000000000000000000000000000000000000000000000000081526004016119b39190612f1b565b60405180910390fd5b506119c56123ef565b6000600d60008481526020019081526020016000206040518060a00160405290816000820160009054906101000a900473ffffffffffffffffffffffffffffffffffffffff1673ffffffffffffffffffffffffffffffffffffffff1673ffffffffffffffffffffffffffffffffffffffff1681526020016001820154815260200160028201548152602001600382015481526020016004820160009054906101000a900460ff16151515158152505090506000816060015114158390611ac1576040517ffaf66ea9000000000000000000000000000000000000000000000000000000008152600401611ab89190612de6565b60405180910390fd5b5080606001514211158390611b0c576040517fca3fc1f5000000000000000000000000000000000000000000000000000000008152600401611b039190612de6565b60405180910390fd5b5060008333604051602001611b22929190613d75565b60405160208183030381529060405280519060200120905060001515600f600083815260200190815260200160002060009054906101000a900460ff16151514611b98576040517f6805166500000000000000000000000000000000000000000000000000000000815260040160405180910390fd5b8215611bcf57600d60008581526020019081526020016000206001016000815480929190611bc59061390e565b9190505550611bfc565b600d60008581526020019081526020016000206002016000815480929190611bf69061390e565b91905055505b6001600f600083815260200190815260200160002060006101000a81548160ff021916908315150217905550837f07c415d500376b266976d88357535ad76a4c3da249c3c1fd45ddba7e1f8dc18760405160405180910390a25050611c5f612435565b5050565b6060600060105467ffffffffffffffff811115611c8357611c826131b1565b5b604051908082528060200260200182016040528015611cbc57816020015b611ca9612c2c565b815260200190600190039081611ca15790505b50905060005b601054811015611da457600d60008281526020019081526020016000206040518060a00160405290816000820160009054906101000a900473ffffffffffffffffffffffffffffffffffffffff1673ffffffffffffffffffffffffffffffffffffffff1673ffffffffffffffffffffffffffffffffffffffff1681526020016001820154815260200160028201548152602001600382015481526020016004820160009054906101000a900460ff161515151581525050828281518110611d8c57611d8b613da1565b5b60200260200101819052508080600101915050611cc2565b508091505090565b60065481565b6060600960008373ffffffffffffffffffffffffffffffffffffffff1673ffffffffffffffffffffffffffffffffffffffff1681526020019081526020016000208054611dfe9061382f565b80601f0160208091040260200160405190810160405280929190818152602001828054611e2a9061382f565b8015611e775780601f10611e4c57610100808354040283529160200191611e77565b820191906000526020600020905b815481529060010190602001808311611e5a57829003601f168201915b50505050509050919050565b6000600560008473ffffffffffffffffffffffffffffffffffffffff1673ffffffffffffffffffffffffffffffffffffffff16815260200190815260200160002060008373ffffffffffffffffffffffffffffffffffffffff1673ffffffffffffffffffffffffffffffffffffffff16815260200190815260200160002060009054906101000a900460ff16905092915050565b60006002811115611f2b57611f2a613115565b5b600860003373ffffffffffffffffffffffffffffffffffffffff1673ffffffffffffffffffffffffffffffffffffffff16815260200190815260200160002060009054906101000a900460ff166002811115611f8a57611f89613115565b5b03611fc1576040517f86594fbb00000000000000000000000000000000000000000000000000000000815260040160405180910390fd5b611fcd8260065461243f565b80600a600060065481526020019081526020016000209081611fef9190613bda565b506006548273ffffffffffffffffffffffffffffffffffffffff167f531d98725e7944ace85707198df213b1a7421fd9165ced340cb189321672c4ae60405160405180910390a3600660008154809291906120499061390e565b91905055505050565b60007f01ffc9a7000000000000000000000000000000000000000000000000000000007bffffffffffffffffffffffffffffffffffffffffffffffffffffffff1916827bffffffffffffffffffffffffffffffffffffffffffffffffffffffff1916149050919050565b6000806120c883612538565b9050600073ffffffffffffffffffffffffffffffffffffffff168173ffffffffffffffffffffffffffffffffffffffff160361213b57826040517f7e2732890000000000000000000000000000000000000000000000000000000081526004016121329190612de6565b60405180910390fd5b80915050919050565b60006004600083815260200190815260200160002060009054906101000a900473ffffffffffffffffffffffffffffffffffffffff169050919050565b600033905090565b6121968383836001612575565b505050565b600073ffffffffffffffffffffffffffffffffffffffff168273ffffffffffffffffffffffffffffffffffffffff160361220c57816040517f5b08ba180000000000000000000000000000000000000000000000000000000081526004016122039190612f1b565b60405180910390fd5b80600560008573ffffffffffffffffffffffffffffffffffffffff1673ffffffffffffffffffffffffffffffffffffffff16815260200190815260200160002060008473ffffffffffffffffffffffffffffffffffffffff1673ffffffffffffffffffffffffffffffffffffffff16815260200190815260200160002060006101000a81548160ff0219169083151502179055508173ffffffffffffffffffffffffffffffffffffffff168373ffffffffffffffffffffffffffffffffffffffff167f17307eab39ab6107e8899845ad3d59bd9653f200f220920489ca2b5937696c31836040516122fd9190612d27565b60405180910390a3505050565b606060405180602001604052806000815250905090565b6060600060016123308461273a565b01905060008167ffffffffffffffff81111561234f5761234e6131b1565b5b6040519080825280601f01601f1916602001820160405280156123815781602001600182028036833780820191505090505b509050600082602001820190505b6001156123e4578080600190039150507f3031323334353637383961626364656600000000000000000000000000000000600a86061a8153600a85816123d8576123d76137a0565b5b0494506000850361238f575b819350505050919050565b6002600c540361242b576040517f3ee5aeb500000000000000000000000000000000000000000000000000000000815260040160405180910390fd5b6002600c81905550565b6001600c81905550565b600073ffffffffffffffffffffffffffffffffffffffff168273ffffffffffffffffffffffffffffffffffffffff16036124b15760006040517f64a0ae920000000000000000000000000000000000000000000000000000000081526004016124a89190612f1b565b60405180910390fd5b60006124bf8383600061288d565b9050600073ffffffffffffffffffffffffffffffffffffffff168173ffffffffffffffffffffffffffffffffffffffff16146125335760006040517f73c6ac6e00000000000000000000000000000000000000000000000000000000815260040161252a9190612f1b565b60405180910390fd5b505050565b60006002600083815260200190815260200160002060009054906101000a900473ffffffffffffffffffffffffffffffffffffffff169050919050565b80806125ae5750600073ffffffffffffffffffffffffffffffffffffffff168273ffffffffffffffffffffffffffffffffffffffff1614155b156126e25760006125be846120bc565b9050600073ffffffffffffffffffffffffffffffffffffffff168373ffffffffffffffffffffffffffffffffffffffff161415801561262957508273ffffffffffffffffffffffffffffffffffffffff168173ffffffffffffffffffffffffffffffffffffffff1614155b801561263c575061263a8184611e83565b155b1561267e57826040517fa9fbf51f0000000000000000000000000000000000000000000000000000000081526004016126759190612f1b565b60405180910390fd5b81156126e057838573ffffffffffffffffffffffffffffffffffffffff168273ffffffffffffffffffffffffffffffffffffffff167f8c5be1e5ebec7d5bd14f71427d1e84f3dd0314c0f7b2291e5b200ac8c7c3b92560405160405180910390a45b505b836004600085815260200190815260200160002060006101000a81548173ffffffffffffffffffffffffffffffffffffffff021916908373ffffffffffffffffffffffffffffffffffffffff16021790555050505050565b600080600090507a184f03e93ff9f4daa797ed6e38ed64bf6a1f0100000000000000008310612798577a184f03e93ff9f4daa797ed6e38ed64bf6a1f010000000000000000838161278e5761278d6137a0565b5b0492506040810190505b6d04ee2d6d415b85acef810000000083106127d5576d04ee2d6d415b85acef810000000083816127cb576127ca6137a0565b5b0492506020810190505b662386f26fc10000831061280457662386f26fc1000083816127fa576127f96137a0565b5b0492506010810190505b6305f5e100831061282d576305f5e1008381612823576128226137a0565b5b0492506008810190505b6127108310612852576127108381612848576128476137a0565b5b0492506004810190505b60648310612875576064838161286b5761286a6137a0565b5b0492506002810190505b600a8310612884576001810190505b80915050919050565b60008061289984612538565b9050600073ffffffffffffffffffffffffffffffffffffffff168373ffffffffffffffffffffffffffffffffffffffff16146128db576128da818486612aa7565b5b600073ffffffffffffffffffffffffffffffffffffffff168173ffffffffffffffffffffffffffffffffffffffff161461296c5761291d600085600080612575565b6001600360008373ffffffffffffffffffffffffffffffffffffffff1673ffffffffffffffffffffffffffffffffffffffff168152602001908152602001600020600082825403925050819055505b600073ffffffffffffffffffffffffffffffffffffffff168573ffffffffffffffffffffffffffffffffffffffff16146129ef576001600360008773ffffffffffffffffffffffffffffffffffffffff1673ffffffffffffffffffffffffffffffffffffffff168152602001908152602001600020600082825401925050819055505b846002600086815260200190815260200160002060006101000a81548173ffffffffffffffffffffffffffffffffffffffff021916908373ffffffffffffffffffffffffffffffffffffffff160217905550838573ffffffffffffffffffffffffffffffffffffffff168273ffffffffffffffffffffffffffffffffffffffff167fddf252ad1be2c89b69c2b068fc378daa952ba7f163c4a11628f55a4df523b3ef60405160405180910390a4809150509392505050565b612ab2838383612b6b565b612b6657600073ffffffffffffffffffffffffffffffffffffffff168373ffffffffffffffffffffffffffffffffffffffff1603612b2757806040517f7e273289000000000000000000000000000000000000000000000000000000008152600401612b1e9190612de6565b60405180910390fd5b81816040517f177e802f000000000000000000000000000000000000000000000000000000008152600401612b5d929190613dd0565b60405180910390fd5b505050565b60008073ffffffffffffffffffffffffffffffffffffffff168373ffffffffffffffffffffffffffffffffffffffff1614158015612c2357508273ffffffffffffffffffffffffffffffffffffffff168473ffffffffffffffffffffffffffffffffffffffff161480612be45750612be38484611e83565b5b80612c2257508273ffffffffffffffffffffffffffffffffffffffff16612c0a83612144565b73ffffffffffffffffffffffffffffffffffffffff16145b5b90509392505050565b6040518060a00160405280600073ffffffffffffffffffffffffffffffffffffffff1681526020016000815260200160008152602001600081526020016000151581525090565b6000604051905090565b600080fd5b600080fd5b60007fffffffff0000000000000000000000000000000000000000000000000000000082169050919050565b612cbc81612c87565b8114612cc757600080fd5b50565b600081359050612cd981612cb3565b92915050565b600060208284031215612cf557612cf4612c7d565b5b6000612d0384828501612cca565b91505092915050565b60008115159050919050565b612d2181612d0c565b82525050565b6000602082019050612d3c6000830184612d18565b92915050565b600073ffffffffffffffffffffffffffffffffffffffff82169050919050565b6000612d6d82612d42565b9050919050565b612d7d81612d62565b8114612d8857600080fd5b50565b600081359050612d9a81612d74565b92915050565b600060208284031215612db657612db5612c7d565b5b6000612dc484828501612d8b565b91505092915050565b6000819050919050565b612de081612dcd565b82525050565b6000602082019050612dfb6000830184612dd7565b92915050565b600081519050919050565b600082825260208201905092915050565b60005b83811015612e3b578082015181840152602081019050612e20565b60008484015250505050565b6000601f19601f8301169050919050565b6000612e6382612e01565b612e6d8185612e0c565b9350612e7d818560208601612e1d565b612e8681612e47565b840191505092915050565b60006020820190508181036000830152612eab8184612e58565b905092915050565b612ebc81612dcd565b8114612ec757600080fd5b50565b600081359050612ed981612eb3565b92915050565b600060208284031215612ef557612ef4612c7d565b5b6000612f0384828501612eca565b91505092915050565b612f1581612d62565b82525050565b6000602082019050612f306000830184612f0c565b92915050565b60008060408385031215612f4d57612f4c612c7d565b5b6000612f5b85828601612d8b565b9250506020612f6c85828601612eca565b9150509250929050565b612f7f81612d0c565b8114612f8a57600080fd5b50565b600081359050612f9c81612f76565b92915050565b60008060408385031215612fb957612fb8612c7d565b5b6000612fc785828601612eca565b9250506020612fd885828601612f8d565b9150509250929050565b600080600060608486031215612ffb57612ffa612c7d565b5b600061300986828701612d8b565b935050602061301a86828701612d8b565b925050604061302b86828701612eca565b9150509250925092565b600081519050919050565b600082825260208201905092915050565b6000819050602082019050919050565b61306a81612d62565b82525050565b600061307c8383613061565b60208301905092915050565b6000602082019050919050565b60006130a082613035565b6130aa8185613040565b93506130b583613051565b8060005b838110156130e65781516130cd8882613070565b97506130d883613088565b9250506001810190506130b9565b5085935050505092915050565b6000602082019050818103600083015261310d8184613095565b905092915050565b7f4e487b7100000000000000000000000000000000000000000000000000000000600052602160045260246000fd5b6003811061315557613154613115565b5b50565b600081905061316682613144565b919050565b600061317682613158565b9050919050565b6131868161316b565b82525050565b60006020820190506131a1600083018461317d565b92915050565b600080fd5b600080fd5b7f4e487b7100000000000000000000000000000000000000000000000000000000600052604160045260246000fd5b6131e982612e47565b810181811067ffffffffffffffff82111715613208576132076131b1565b5b80604052505050565b600061321b612c73565b905061322782826131e0565b919050565b600067ffffffffffffffff821115613247576132466131b1565b5b61325082612e47565b9050602081019050919050565b82818337600083830152505050565b600061327f61327a8461322c565b613211565b90508281526020810184848401111561329b5761329a6131ac565b5b6132a684828561325d565b509392505050565b600082601f8301126132c3576132c26131a7565b5b81356132d384826020860161326c565b91505092915050565b600080604083850312156132f3576132f2612c7d565b5b600061330185828601612d8b565b925050602083013567ffffffffffffffff81111561332257613321612c82565b5b61332e858286016132ae565b9150509250929050565b6000806040838503121561334f5761334e612c7d565b5b600061335d85828601612d8b565b925050602061336e85828601612f8d565b9150509250929050565b600060a08201905061338d6000830188612f0c565b61339a6020830187612dd7565b6133a76040830186612dd7565b6133b46060830185612dd7565b6133c16080830184612d18565b9695505050505050565b600067ffffffffffffffff8211156133e6576133e56131b1565b5b6133ef82612e47565b9050602081019050919050565b600061340f61340a846133cb565b613211565b90508281526020810184848401111561342b5761342a6131ac565b5b61343684828561325d565b509392505050565b600082601f830112613453576134526131a7565b5b81356134638482602086016133fc565b91505092915050565b6000806000806080858703121561348657613485612c7d565b5b600061349487828801612d8b565b94505060206134a587828801612d8b565b93505060406134b687828801612eca565b925050606085013567ffffffffffffffff8111156134d7576134d6612c82565b5b6134e38782880161343e565b91505092959194509250565b6134f881612dcd565b82525050565b61350781612d0c565b82525050565b60a0820160008201516135236000850182613061565b50602082015161353660208501826134ef565b50604082015161354960408501826134ef565b50606082015161355c60608501826134ef565b50608082015161356f60808501826134fe565b50505050565b600060a08201905061358a600083018461350d565b92915050565b600081519050919050565b600082825260208201905092915050565b6000819050602082019050919050565b60a0820160008201516135d26000850182613061565b5060208201516135e560208501826134ef565b5060408201516135f860408501826134ef565b50606082015161360b60608501826134ef565b50608082015161361e60808501826134fe565b50505050565b600061363083836135bc565b60a08301905092915050565b6000602082019050919050565b600061365482613590565b61365e818561359b565b9350613669836135ac565b8060005b8381101561369a5781516136818882613624565b975061368c8361363c565b92505060018101905061366d565b5085935050505092915050565b600060208201905081810360008301526136c18184613649565b905092915050565b600080604083850312156136e0576136df612c7d565b5b60006136ee85828601612d8b565b92505060206136ff85828601612d8b565b9150509250929050565b7f4e487b7100000000000000000000000000000000000000000000000000000000600052601160045260246000fd5b600061374382612dcd565b915061374e83612dcd565b925082820190508082111561376657613765613709565b5b92915050565b600061377782612dcd565b915061378283612dcd565b925082820390508181111561379a57613799613709565b5b92915050565b7f4e487b7100000000000000000000000000000000000000000000000000000000600052601260045260246000fd5b60006137da82612dcd565b91506137e583612dcd565b9250826137f5576137f46137a0565b5b828204905092915050565b7f4e487b7100000000000000000000000000000000000000000000000000000000600052602260045260246000fd5b6000600282049050600182168061384757607f821691505b60208210810361385a57613859613800565b5b50919050565b7f6f776e65724f6e6c790000000000000000000000000000000000000000000000600082015250565b6000613896600983612e0c565b91506138a182613860565b602082019050919050565b600060208201905081810360008301526138c581613889565b9050919050565b60006138d782612dcd565b91506138e283612dcd565b92508282026138f081612dcd565b9150828204841483151761390757613906613709565b5b5092915050565b600061391982612dcd565b91507fffffffffffffffffffffffffffffffffffffffffffffffffffffffffffffffff820361394b5761394a613709565b5b600182019050919050565b7f736f756c426f756e64546f6b656e000000000000000000000000000000000000600082015250565b600061398c600e83612e0c565b915061399782613956565b602082019050919050565b600060208201905081810360008301526139bb8161397f565b9050919050565b7f6e6f74416e496e737469747574696f6e00000000000000000000000000000000600082015250565b60006139f8601083612e0c565b9150613a03826139c2565b602082019050919050565b60006020820190508181036000830152613a27816139eb565b9050919050565b60008190508160005260206000209050919050565b60006020601f8301049050919050565b600082821b905092915050565b600060088302613a907fffffffffffffffffffffffffffffffffffffffffffffffffffffffffffffffff82613a53565b613a9a8683613a53565b95508019841693508086168417925050509392505050565b6000819050919050565b6000613ad7613ad2613acd84612dcd565b613ab2565b612dcd565b9050919050565b6000819050919050565b613af183613abc565b613b05613afd82613ade565b848454613a60565b825550505050565b600090565b613b1a613b0d565b613b25818484613ae8565b505050565b5b81811015613b4957613b3e600082613b12565b600181019050613b2b565b5050565b601f821115613b8e57613b5f81613a2e565b613b6884613a43565b81016020851015613b77578190505b613b8b613b8385613a43565b830182613b2a565b50505b505050565b600082821c905092915050565b6000613bb160001984600802613b93565b1980831691505092915050565b6000613bca8383613ba0565b9150826002028217905092915050565b613be382612e01565b67ffffffffffffffff811115613bfc57613bfb6131b1565b5b613c06825461382f565b613c11828285613b4d565b600060209050601f831160018114613c445760008415613c32578287015190505b613c3c8582613bbe565b865550613ca4565b601f198416613c5286613a2e565b60005b82811015613c7a57848901518255600182019150602085019450602081019050613c55565b86831015613c975784890151613c93601f891682613ba0565b8355505b6001600288020188555050505b505050505050565b600081905092915050565b6000613cc282612e01565b613ccc8185613cac565b9350613cdc818560208601612e1d565b80840191505092915050565b6000613cf48285613cb7565b9150613d008284613cb7565b91508190509392505050565b6000819050919050565b613d27613d2282612dcd565b613d0c565b82525050565b60008160601b9050919050565b6000613d4582613d2d565b9050919050565b6000613d5782613d3a565b9050919050565b613d6f613d6a82612d62565b613d4c565b82525050565b6000613d818285613d16565b602082019150613d918284613d5e565b6014820191508190509392505050565b7f4e487b7100000000000000000000000000000000000000000000000000000000600052603260045260246000fd5b6000604082019050613de56000830185612f0c565b613df26020830184612dd7565b939250505056fea26469706673582212200c6a2368f439ad461a06aae01cbcb5c24d71b9b6b24e7bf49ef3809a403d4a4264736f6c634300081c0033",
  "devdoc": {
    "errors": {
      "ERC721IncorrectOwner(address,uint256,address)": [
        {
          "details": "Indicates an error related to the ownership over a particular token. Used in transfers.",
          "params": {
            "owner": "Address of the current owner of a token.",
            "sender": "Address whose tokens are being transferred.",
            "tokenId": "Identifier number of a token."
          }
        }
      ],
      "ERC721InsufficientApproval(address,uint256)": [
        {
          "details": "Indicates a failure with the `operator`s approval. Used in transfers.",
          "params": {
            "operator": "Address that may be allowed to operate on tokens without being their owner.",
            "tokenId": "Identifier number of a token."
          }
        }
      ],
      "ERC721InvalidApprover(address)": [
        {
          "details": "Indicates a failure with the `approver` of a token to be approved. Used in approvals.",
          "params": {
            "approver": "Address initiating an approval operation."
          }
        }
      ],
      "ERC721InvalidOperator(address)": [
        {
          "details": "Indicates a failure with the `operator` to be approved. Used in approvals.",
          "params": {
            "operator": "Address that may be allowed to operate on tokens without being their owner."
          }
        }
      ],
      "ERC721InvalidOwner(address)": [
        {
          "details": "Indicates that an address can't be an owner. For example, `address(0)` is a forbidden owner in ERC-20. Used in balance queries.",
          "params": {
            "owner": "Address of the current owner of a token."
          }
        }
      ],
      "ERC721InvalidReceiver(address)": [
        {
          "details": "Indicates a failure with the token `receiver`. Used in transfers.",
          "params": {
            "receiver": "Address to which tokens are being transferred."
          }
        }
      ],
      "ERC721InvalidSender(address)": [
        {
          "details": "Indicates a failure with the token `sender`. Used in transfers.",
          "params": {
            "sender": "Address whose tokens are being transferred."
          }
        }
      ],
      "ERC721NonexistentToken(uint256)": [
        {
          "details": "Indicates a `tokenId` whose `owner` is the zero address.",
          "params": {
            "tokenId": "Identifier number of a token."
          }
        }
      ],
      "ReentrancyGuardReentrantCall()": [
        {
          "details": "Unauthorized reentrant call."
        }
      ]
    },
    "events": {
      "Approval(address,address,uint256)": {
        "details": "Emitted when `owner` enables `approved` to manage the `tokenId` token."
      },
      "ApprovalForAll(address,address,bool)": {
        "details": "Emitted when `owner` enables or disables (`approved`) `operator` to manage all of its assets."
      },
      "Transfer(address,address,uint256)": {
        "details": "Emitted when `tokenId` token is transferred from `from` to `to`."
      }
    },
    "kind": "dev",
    "methods": {
      "approve(address,uint256)": {
        "details": "See {IERC721-approve}."
      },
      "balanceOf(address)": {
        "details": "See {IERC721-balanceOf}."
      },
      "getApproved(uint256)": {
        "details": "See {IERC721-getApproved}."
      },
      "isApprovedForAll(address,address)": {
        "details": "See {IERC721-isApprovedForAll}."
      },
      "name()": {
        "details": "See {IERC721Metadata-name}."
      },
      "ownerOf(uint256)": {
        "details": "See {IERC721-ownerOf}."
      },
      "safeTransferFrom(address,address,uint256)": {
        "details": "See {IERC721-safeTransferFrom}."
      },
      "safeTransferFrom(address,address,uint256,bytes)": {
        "details": "See {IERC721-safeTransferFrom}."
      },
      "setApprovalForAll(address,bool)": {
        "details": "See {IERC721-setApprovalForAll}."
      },
      "supportsInterface(bytes4)": {
        "details": "See {IERC165-supportsInterface}."
      },
      "symbol()": {
        "details": "See {IERC721Metadata-symbol}."
      },
      "tokenURI(uint256)": {
        "details": "See {IERC721Metadata-tokenURI}."
      },
      "transferFrom(address,address,uint256)": {
        "details": "See {IERC721-transferFrom}."
      }
    },
    "version": 1
  },
  "userdoc": {
    "kind": "user",
    "methods": {},
    "version": 1
  },
  "storageLayout": {
    "storage": [
      {
        "astId": 169,
        "contract": "contracts/CertificateNFTGovernance.sol:CertificateNFTGovernance",
        "label": "_name",
        "offset": 0,
        "slot": "0",
        "type": "t_string_storage"
      },
      {
        "astId": 171,
        "contract": "contracts/CertificateNFTGovernance.sol:CertificateNFTGovernance",
        "label": "_symbol",
        "offset": 0,
        "slot": "1",
        "type": "t_string_storage"
      },
      {
        "astId": 175,
        "contract": "contracts/CertificateNFTGovernance.sol:CertificateNFTGovernance",
        "label": "_owners",
        "offset": 0,
        "slot": "2",
        "type": "t_mapping(t_uint256,t_address)"
      },
      {
        "astId": 179,
        "contract": "contracts/CertificateNFTGovernance.sol:CertificateNFTGovernance",
        "label": "_balances",
        "offset": 0,
        "slot": "3",
        "type": "t_mapping(t_address,t_uint256)"
      },
      {
        "astId": 183,
        "contract": "contracts/CertificateNFTGovernance.sol:CertificateNFTGovernance",
        "label": "_tokenApprovals",
        "offset": 0,
        "slot": "4",
        "type": "t_mapping(t_uint256,t_address)"
      },
      {
        "astId": 189,
        "contract": "contracts/CertificateNFTGovernance.sol:CertificateNFTGovernance",
        "label": "_operatorApprovals",
        "offset": 0,
        "slot": "5",
        "type": "t_mapping(t_address,t_mapping(t_address,t_bool))"
      },
      {
        "astId": 6244,
        "contract": "contracts/CertificateNFTGovernance.sol:CertificateNFTGovernance",
        "label": "tokenCounter",
        "offset": 0,
        "slot": "6",
        "type": "t_uint256"
      },
      {
        "astId": 6246,
        "contract": "contracts/CertificateNFTGovernance.sol:CertificateNFTGovernance",
        "label": "owner",
        "offset": 0,
        "slot": "7",
        "type": "t_address_payable"
      },
      {
        "astId": 6251,
        "contract": "contracts/CertificateNFTGovernance.sol:CertificateNFTGovernance",
        "label": "institutions",
        "offset": 0,
        "slot": "8",
        "type": "t_mapping(t_address,t_enum(institutionStatus)6266)"
      },
      {
        "astId": 6255,
        "contract": "contracts/CertificateNFTGovernance.sol:CertificateNFTGovernance",
        "label": "institutionNames",
        "offset": 0,
        "slot": "9",
        "type": "t_mapping(t_address,t_string_storage)"
      },
      {
        "astId": 6259,
        "contract": "contracts/CertificateNFTGovernance.sol:CertificateNFTGovernance",
        "label": "tokenURIs",
        "offset": 0,
        "slot": "10",
        "type": "t_mapping(t_uint256,t_string_storage)"
      },
      {
        "astId": 6262,
        "contract": "contracts/CertificateNFTGovernance.sol:CertificateNFTGovernance",
        "label": "institutionAddresses",
        "offset": 0,
        "slot": "11",
        "type": "t_array(t_address)dyn_storage"
      },
      {
        "astId": 1426,
        "contract": "contracts/CertificateNFTGovernance.sol:CertificateNFTGovernance",
        "label": "_status",
        "offset": 0,
        "slot": "12",
        "type": "t_uint256"
      },
      {
        "astId": 6608,
        "contract": "contracts/CertificateNFTGovernance.sol:CertificateNFTGovernance",
        "label": "s_proposals",
        "offset": 0,
        "slot": "13",
        "type": "t_mapping(t_uint256,t_struct(Proposal)6603_storage)"
      },
      {
        "astId": 6615,
        "contract": "contracts/CertificateNFTGovernance.sol:CertificateNFTGovernance",
        "label": "s_rejectedInstitutions",
        "offset": 0,
        "slot": "14",
        "type": "t_mapping(t_address,t_uint256)"
      },
      {
        "astId": 6619,
        "contract": "contracts/CertificateNFTGovernance.sol:CertificateNFTGovernance",
        "label": "s_hasVoted",
        "offset": 0,
        "slot": "15",
        "type": "t_mapping(t_bytes32,t_bool)"
      },
      {
        "astId": 6621,
        "contract": "contracts/CertificateNFTGovernance.sol:CertificateNFTGovernance",
        "label": "s_proposalCounter",
        "offset": 0,
        "slot": "16",
        "type": "t_uint256"
      }
    ],
    "types": {
      "t_address": {
        "encoding": "inplace",
        "label": "address",
        "numberOfBytes": "20"
      },
      "t_address_payable": {
        "encoding": "inplace",
        "label": "address payable",
        "numberOfBytes": "20"
      },
      "t_array(t_address)dyn_storage": {
        "base": "t_address",
        "encoding": "dynamic_array",
        "label": "address[]",
        "numberOfBytes": "32"
      },
      "t_bool": {
        "encoding": "inplace",
        "label": "bool",
        "numberOfBytes": "1"
      },
      "t_bytes32": {
        "encoding": "inplace",
        "label": "bytes32",
        "numberOfBytes": "32"
      },
      "t_enum(institutionStatus)6266": {
        "encoding": "inplace",
        "label": "enum CertificateNFT.institutionStatus",
        "numberOfBytes": "1"
      },
      "t_mapping(t_address,t_bool)": {
        "encoding": "mapping",
        "key": "t_address",
        "label": "mapping(address => bool)",
        "numberOfBytes": "32",
        "value": "t_bool"
      },
      "t_mapping(t_address,t_enum(institutionStatus)6266)": {
        "encoding": "mapping",
        "key": "t_address",
        "label": "mapping(address => enum CertificateNFT.institutionStatus)",
        "numberOfBytes": "32",
        "value": "t_enum(institutionStatus)6266"
      },
      "t_mapping(t_address,t_mapping(t_address,t_bool))": {
        "encoding": "mapping",
        "key": "t_address",
        "label": "mapping(address => mapping(address => bool))",
        "numberOfBytes": "32",
        "value": "t_mapping(t_address,t_bool)"
      },
      "t_mapping(t_address,t_string_storage)": {
        "encoding": "mapping",
        "key": "t_address",
        "label": "mapping(address => string)",
        "numberOfBytes": "32",
        "value": "t_string_storage"
      },
      "t_mapping(t_address,t_uint256)": {
        "encoding": "mapping",
        "key": "t_address",
        "label": "mapping(address => uint256)",
        "numberOfBytes": "32",
        "value": "t_uint256"
      },
      "t_mapping(t_bytes32,t_bool)": {
        "encoding": "mapping",
        "key": "t_bytes32",
        "label": "mapping(bytes32 => bool)",
        "numberOfBytes": "32",
        "value": "t_bool"
      },
      "t_mapping(t_uint256,t_address)": {
        "encoding": "mapping",
        "key": "t_uint256",
        "label": "mapping(uint256 => address)",
        "numberOfBytes": "32",
        "value": "t_address"
      },
      "t_mapping(t_uint256,t_string_storage)": {
        "encoding": "mapping",
        "key": "t_uint256",
        "label": "mapping(uint256 => string)",
        "numberOfBytes": "32",
        "value": "t_string_storage"
      },
      "t_mapping(t_uint256,t_struct(Proposal)6603_storage)": {
        "encoding": "mapping",
        "key": "t_uint256",
        "label": "mapping(uint256 => struct CertificateNFTGovernance.Proposal)",
        "numberOfBytes": "32",
        "value": "t_struct(Proposal)6603_storage"
      },
      "t_string_storage": {
        "encoding": "bytes",
        "label": "string",
        "numberOfBytes": "32"
      },
      "t_struct(Proposal)6603_storage": {
        "encoding": "inplace",
        "label": "struct CertificateNFTGovernance.Proposal",
        "members": [
          {
            "astId": 6594,
            "contract": "contracts/CertificateNFTGovernance.sol:CertificateNFTGovernance",
            "label": "institutionAddress",
            "offset": 0,
            "slot": "0",
            "type": "t_address"
          },
          {
            "astId": 6596,
            "contract": "contracts/CertificateNFTGovernance.sol:CertificateNFTGovernance",
            "label": "votesFor",
            "offset": 0,
            "slot": "1",
            "type": "t_uint256"
          },
          {
            "astId": 6598,
            "contract": "contracts/CertificateNFTGovernance.sol:CertificateNFTGovernance",
            "label": "votesAgainst",
            "offset": 0,
            "slot": "2",
            "type": "t_uint256"
          },
          {
            "astId": 6600,
            "contract": "contracts/CertificateNFTGovernance.sol:CertificateNFTGovernance",
            "label": "endTime",
            "offset": 0,
            "slot": "3",
            "type": "t_uint256"
          },
          {
            "astId": 6602,
            "contract": "contracts/CertificateNFTGovernance.sol:CertificateNFTGovernance",
            "label": "executed",
            "offset": 0,
            "slot": "4",
            "type": "t_bool"
          }
        ],
        "numberOfBytes": "160"
      },
      "t_uint256": {
        "encoding": "inplace",
        "label": "uint256",
        "numberOfBytes": "32"
      }
    }
  }
}