{
  "address": "0xe5041aeafDE3d90583B325cd94B371D95275969b",
  "abi": [
    {
      "inputs": [],
      "stateMutability": "nonpayable",
      "type": "constructor"
    },
    {
      "inputs": [
        {
          "internalType": "address",
          "name": "sender",
          "type": "address"
        },
        {
          "internalType": "uint256",
          "name": "tokenId",
          "type": "uint256"
        },
        {
          "internalType": "address",
          "name": "owner",
          "type": "address"
        }
      ],
      "name": "ERC721IncorrectOwner",
      "type": "error"
    },
    {
      "inputs": [
        {
          "internalType": "address",
          "name": "operator",
          "type": "address"
        },
        {
          "internalType": "uint256",
          "name": "tokenId",
          "type": "uint256"
        }
      ],
      "name": "ERC721InsufficientApproval",
      "type": "error"
    },
    {
      "inputs": [
        {
          "internalType": "address",
          "name": "approver",
          "type": "address"
        }
      ],
      "name": "ERC721InvalidApprover",
      "type": "error"
    },
    {
      "inputs": [
        {
          "internalType": "address",
          "name": "operator",
          "type": "address"
        }
      ],
      "name": "ERC721InvalidOperator",
      "type": "error"
    },
    {
      "inputs": [
        {
          "internalType": "address",
          "name": "owner",
          "type": "address"
        }
      ],
      "name": "ERC721InvalidOwner",
      "type": "error"
    },
    {
      "inputs": [
        {
          "internalType": "address",
          "name": "receiver",
          "type": "address"
        }
      ],
      "name": "ERC721InvalidReceiver",
      "type": "error"
    },
    {
      "inputs": [
        {
          "internalType": "address",
          "name": "sender",
          "type": "address"
        }
      ],
      "name": "ERC721InvalidSender",
      "type": "error"
    },
    {
      "inputs": [
        {
          "internalType": "uint256",
          "name": "tokenId",
          "type": "uint256"
        }
      ],
      "name": "ERC721NonexistentToken",
      "type": "error"
    },
    {
      "inputs": [
        {
          "internalType": "address",
          "name": "institution",
          "type": "address"
        }
      ],
      "name": "InstitutionAlreadyExist",
      "type": "error"
    },
    {
      "inputs": [],
      "name": "ReentrancyGuardReentrantCall",
      "type": "error"
    },
    {
      "inputs": [],
      "name": "enteredInstitutionDoesNotExist",
      "type": "error"
    },
    {
      "inputs": [],
      "name": "institutionHasAlreadyVoted",
      "type": "error"
    },
    {
      "inputs": [],
      "name": "invalidDuration",
      "type": "error"
    },
    {
      "inputs": [],
      "name": "notAnInstitution",
      "type": "error"
    },
    {
      "inputs": [
        {
          "internalType": "address",
          "name": "institution",
          "type": "address"
        }
      ],
      "name": "notUnverifiedInstitution",
      "type": "error"
    },
    {
      "inputs": [],
      "name": "ownerOnly",
      "type": "error"
    },
    {
      "inputs": [
        {
          "internalType": "uint256",
          "name": "proposalId",
          "type": "uint256"
        }
      ],
      "name": "proposalAlreadyExecuted",
      "type": "error"
    },
    {
      "inputs": [
        {
          "internalType": "uint256",
          "name": "proposalId",
          "type": "uint256"
        }
      ],
      "name": "proposalEnded",
      "type": "error"
    },
    {
      "inputs": [
        {
          "internalType": "uint256",
          "name": "proposalId",
          "type": "uint256"
        }
      ],
      "name": "proposalIdNotFound",
      "type": "error"
    },
    {
      "inputs": [
        {
          "internalType": "uint256",
          "name": "proposalId",
          "type": "uint256"
        }
      ],
      "name": "proposalNotEnded",
      "type": "error"
    },
    {
      "inputs": [
        {
          "internalType": "address",
          "name": "institution",
          "type": "address"
        }
      ],
      "name": "rejectedInstitution",
      "type": "error"
    },
    {
      "inputs": [],
      "name": "soulBoundToken",
      "type": "error"
    },
    {
      "inputs": [
        {
          "internalType": "address",
          "name": "institution",
          "type": "address"
        }
      ],
      "name": "unverifiedInstitution",
      "type": "error"
    },
    {
      "inputs": [
        {
          "internalType": "address",
          "name": "institution",
          "type": "address"
        }
      ],
      "name": "verifiedInstitutionAlreadyExists",
      "type": "error"
    },
    {
      "anonymous": false,
      "inputs": [
        {
          "indexed": true,
          "internalType": "address",
          "name": "owner",
          "type": "address"
        },
        {
          "indexed": true,
          "internalType": "address",
          "name": "approved",
          "type": "address"
        },
        {
          "indexed": true,
          "internalType": "uint256",
          "name": "tokenId",
          "type": "uint256"
        }
      ],
      "name": "Approval",
      "type": "event"
    },
    {
      "anonymous": false,
      "inputs": [
        {
          "indexed": true,
          "internalType": "address",
          "name": "owner",
          "type": "address"
        },
        {
          "indexed": true,
          "internalType": "address",
          "name": "operator",
          "type": "address"
        },
        {
          "indexed": false,
          "internalType": "bool",
          "name": "approved",
          "type": "bool"
        }
      ],
      "name": "ApprovalForAll",
      "type": "event"
    },
    {
      "anonymous": false,
      "inputs": [
        {
          "indexed": true,
          "internalType": "address",
          "name": "from",
          "type": "address"
        },
        {
          "indexed": true,
          "internalType": "address",
          "name": "to",
          "type": "address"
        },
        {
          "indexed": true,
          "internalType": "uint256",
          "name": "tokenId",
          "type": "uint256"
        }
      ],
      "name": "Transfer",
      "type": "event"
    },
    {
      "anonymous": false,
      "inputs": [
        {
          "indexed": true,
          "internalType": "address",
          "name": "recipient",
          "type": "address"
        },
        {
          "indexed": true,
          "internalType": "uint256",
          "name": "tokenId",
          "type": "uint256"
        }
      ],
      "name": "mintedCertificateNFT",
      "type": "event"
    },
    {
      "anonymous": false,
      "inputs": [
        {
          "indexed": true,
          "internalType": "address",
          "name": "institution",
          "type": "address"
        },
        {
          "indexed": true,
          "internalType": "uint256",
          "name": "duration",
          "type": "uint256"
        }
      ],
      "name": "proposalCreated",
      "type": "event"
    },
    {
      "anonymous": false,
      "inputs": [
        {
          "indexed": true,
          "internalType": "address",
          "name": "institution",
          "type": "address"
        },
        {
          "indexed": true,
          "internalType": "bool",
          "name": "approved",
          "type": "bool"
        }
      ],
      "name": "proposalExecuted",
      "type": "event"
    },
    {
      "anonymous": false,
      "inputs": [
        {
          "indexed": true,
          "internalType": "uint256",
          "name": "proposalId",
          "type": "uint256"
        }
      ],
      "name": "proposalVoted",
      "type": "event"
    },
    {
      "anonymous": false,
      "inputs": [
        {
          "indexed": false,
          "internalType": "address",
          "name": "institution",
          "type": "address"
        }
      ],
      "name": "verifiedInstitution",
      "type": "event"
    },
    {
      "inputs": [
        {
          "internalType": "address",
          "name": "institution",
          "type": "address"
        },
        {
          "internalType": "string",
          "name": "name",
          "type": "string"
        }
      ],
      "name": "addNewInstitution",
      "outputs": [],
      "stateMutability": "nonpayable",
      "type": "function"
    },
    {
      "inputs": [
        {
          "internalType": "address",
          "name": "to",
          "type": "address"
        },
        {
          "internalType": "uint256",
          "name": "tokenId",
          "type": "uint256"
        }
      ],
      "name": "approve",
      "outputs": [],
      "stateMutability": "nonpayable",
      "type": "function"
    },
    {
      "inputs": [
        {
          "internalType": "address",
          "name": "owner",
          "type": "address"
        }
      ],
      "name": "balanceOf",
      "outputs": [
        {
          "internalType": "uint256",
          "name": "",
          "type": "uint256"
        }
      ],
      "stateMutability": "view",
      "type": "function"
    },
    {
      "inputs": [
        {
          "internalType": "uint256",
          "name": "duration",
          "type": "uint256"
        },
        {
          "internalType": "bool",
          "name": "isDay",
          "type": "bool"
        }
      ],
      "name": "createProposal",
      "outputs": [],
      "stateMutability": "nonpayable",
      "type": "function"
    },
    {
      "inputs": [
        {
          "internalType": "uint256",
          "name": "proposalId",
          "type": "uint256"
        }
      ],
      "name": "executeProposal",
      "outputs": [],
      "stateMutability": "nonpayable",
      "type": "function"
    },
    {
      "inputs": [],
      "name": "getAllInstitutions",
      "outputs": [
        {
          "internalType": "address[]",
          "name": "",
          "type": "address[]"
        }
      ],
      "stateMutability": "view",
      "type": "function"
    },
    {
      "inputs": [],
      "name": "getAllProposals",
      "outputs": [
        {
          "components": [
            {
              "internalType": "address",
              "name": "institutionAddress",
              "type": "address"
            },
            {
              "internalType": "uint256",
              "name": "votesFor",
              "type": "uint256"
            },
            {
              "internalType": "uint256",
              "name": "votesAgainst",
              "type": "uint256"
            },
            {
              "internalType": "uint256",
              "name": "endTime",
              "type": "uint256"
            },
            {
              "internalType": "bool",
              "name": "executed",
              "type": "bool"
            }
          ],
          "internalType": "struct CertificateNFTGovernance.Proposal[]",
          "name": "",
          "type": "tuple[]"
        }
      ],
      "stateMutability": "view",
      "type": "function"
    },
    {
      "inputs": [
        {
          "internalType": "uint256",
          "name": "tokenId",
          "type": "uint256"
        }
      ],
      "name": "getApproved",
      "outputs": [
        {
          "internalType": "address",
          "name": "",
          "type": "address"
        }
      ],
      "stateMutability": "view",
      "type": "function"
    },
    {
      "inputs": [],
      "name": "getCounter",
      "outputs": [
        {
          "internalType": "uint256",
          "name": "",
          "type": "uint256"
        }
      ],
      "stateMutability": "view",
      "type": "function"
    },
    {
      "inputs": [
        {
          "internalType": "address",
          "name": "institution",
          "type": "address"
        }
      ],
      "name": "getDaysLeft",
      "outputs": [
        {
          "internalType": "uint256",
          "name": "",
          "type": "uint256"
        }
      ],
      "stateMutability": "view",
      "type": "function"
    },
    {
      "inputs": [
        {
          "internalType": "address",
          "name": "institution",
          "type": "address"
        }
      ],
      "name": "getInstitutionName",
      "outputs": [
        {
          "internalType": "string",
          "name": "",
          "type": "string"
        }
      ],
      "stateMutability": "view",
      "type": "function"
    },
    {
      "inputs": [
        {
          "internalType": "address",
          "name": "institution",
          "type": "address"
        }
      ],
      "name": "getInstitutionStatus",
      "outputs": [
        {
          "internalType": "enum CertificateNFT.institutionStatus",
          "name": "",
          "type": "uint8"
        }
      ],
      "stateMutability": "view",
      "type": "function"
    },
    {
      "inputs": [],
      "name": "getOwner",
      "outputs": [
        {
          "internalType": "address",
          "name": "",
          "type": "address"
        }
      ],
      "stateMutability": "view",
      "type": "function"
    },
    {
      "inputs": [
        {
          "internalType": "uint256",
          "name": "proposalId",
          "type": "uint256"
        }
      ],
      "name": "getProposal",
      "outputs": [
        {
          "components": [
            {
              "internalType": "address",
              "name": "institutionAddress",
              "type": "address"
            },
            {
              "internalType": "uint256",
              "name": "votesFor",
              "type": "uint256"
            },
            {
              "internalType": "uint256",
              "name": "votesAgainst",
              "type": "uint256"
            },
            {
              "internalType": "uint256",
              "name": "endTime",
              "type": "uint256"
            },
            {
              "internalType": "bool",
              "name": "executed",
              "type": "bool"
            }
          ],
          "internalType": "struct CertificateNFTGovernance.Proposal",
          "name": "",
          "type": "tuple"
        }
      ],
      "stateMutability": "view",
      "type": "function"
    },
    {
      "inputs": [],
      "name": "getProposalCounter",
      "outputs": [
        {
          "internalType": "uint256",
          "name": "",
          "type": "uint256"
        }
      ],
      "stateMutability": "view",
      "type": "function"
    },
    {
      "inputs": [],
      "name": "getRejectDuration",
      "outputs": [
        {
          "internalType": "uint256",
          "name": "",
          "type": "uint256"
        }
      ],
      "stateMutability": "pure",
      "type": "function"
    },
    {
      "inputs": [
        {
          "internalType": "uint256",
          "name": "tokenId",
          "type": "uint256"
        }
      ],
      "name": "getTokenURI",
      "outputs": [
        {
          "internalType": "string",
          "name": "",
          "type": "string"
        }
      ],
      "stateMutability": "view",
      "type": "function"
    },
    {
      "inputs": [
        {
          "internalType": "uint256",
          "name": "proposalId",
          "type": "uint256"
        }
      ],
      "name": "hasVoted",
      "outputs": [
        {
          "internalType": "bool",
          "name": "",
          "type": "bool"
        }
      ],
      "stateMutability": "view",
      "type": "function"
    },
    {
      "inputs": [
        {
          "internalType": "address",
          "name": "owner",
          "type": "address"
        },
        {
          "internalType": "address",
          "name": "operator",
          "type": "address"
        }
      ],
      "name": "isApprovedForAll",
      "outputs": [
        {
          "internalType": "bool",
          "name": "",
          "type": "bool"
        }
      ],
      "stateMutability": "view",
      "type": "function"
    },
    {
      "inputs": [
        {
          "internalType": "address",
          "name": "recipient",
          "type": "address"
        },
        {
          "internalType": "string",
          "name": "tokenURI",
          "type": "string"
        }
      ],
      "name": "mintNFT",
      "outputs": [],
      "stateMutability": "nonpayable",
      "type": "function"
    },
    {
      "inputs": [],
      "name": "name",
      "outputs": [
        {
          "internalType": "string",
          "name": "",
          "type": "string"
        }
      ],
      "stateMutability": "view",
      "type": "function"
    },
    {
      "inputs": [
        {
          "internalType": "uint256",
          "name": "tokenId",
          "type": "uint256"
        }
      ],
      "name": "ownerOf",
      "outputs": [
        {
          "internalType": "address",
          "name": "",
          "type": "address"
        }
      ],
      "stateMutability": "view",
      "type": "function"
    },
    {
      "inputs": [
        {
          "internalType": "uint256",
          "name": "",
          "type": "uint256"
        }
      ],
      "name": "s_proposals",
      "outputs": [
        {
          "internalType": "address",
          "name": "institutionAddress",
          "type": "address"
        },
        {
          "internalType": "uint256",
          "name": "votesFor",
          "type": "uint256"
        },
        {
          "internalType": "uint256",
          "name": "votesAgainst",
          "type": "uint256"
        },
        {
          "internalType": "uint256",
          "name": "endTime",
          "type": "uint256"
        },
        {
          "internalType": "bool",
          "name": "executed",
          "type": "bool"
        }
      ],
      "stateMutability": "view",
      "type": "function"
    },
    {
      "inputs": [
        {
          "internalType": "address",
          "name": "",
          "type": "address"
        }
      ],
      "name": "s_rejectedInstitutions",
      "outputs": [
        {
          "internalType": "uint256",
          "name": "",
          "type": "uint256"
        }
      ],
      "stateMutability": "view",
      "type": "function"
    },
    {
      "inputs": [
        {
          "internalType": "address",
          "name": "from",
          "type": "address"
        },
        {
          "internalType": "address",
          "name": "to",
          "type": "address"
        },
        {
          "internalType": "uint256",
          "name": "tokenId",
          "type": "uint256"
        }
      ],
      "name": "safeTransferFrom",
      "outputs": [],
      "stateMutability": "nonpayable",
      "type": "function"
    },
    {
      "inputs": [
        {
          "internalType": "address",
          "name": "from",
          "type": "address"
        },
        {
          "internalType": "address",
          "name": "to",
          "type": "address"
        },
        {
          "internalType": "uint256",
          "name": "tokenId",
          "type": "uint256"
        },
        {
          "internalType": "bytes",
          "name": "data",
          "type": "bytes"
        }
      ],
      "name": "safeTransferFrom",
      "outputs": [],
      "stateMutability": "nonpayable",
      "type": "function"
    },
    {
      "inputs": [
        {
          "internalType": "address",
          "name": "operator",
          "type": "address"
        },
        {
          "internalType": "bool",
          "name": "approved",
          "type": "bool"
        }
      ],
      "name": "setApprovalForAll",
      "outputs": [],
      "stateMutability": "nonpayable",
      "type": "function"
    },
    {
      "inputs": [
        {
          "internalType": "bytes4",
          "name": "interfaceId",
          "type": "bytes4"
        }
      ],
      "name": "supportsInterface",
      "outputs": [
        {
          "internalType": "bool",
          "name": "",
          "type": "bool"
        }
      ],
      "stateMutability": "view",
      "type": "function"
    },
    {
      "inputs": [],
      "name": "symbol",
      "outputs": [
        {
          "internalType": "string",
          "name": "",
          "type": "string"
        }
      ],
      "stateMutability": "view",
      "type": "function"
    },
    {
      "inputs": [],
      "name": "tokenCounter",
      "outputs": [
        {
          "internalType": "uint256",
          "name": "",
          "type": "uint256"
        }
      ],
      "stateMutability": "view",
      "type": "function"
    },
    {
      "inputs": [
        {
          "internalType": "uint256",
          "name": "tokenId",
          "type": "uint256"
        }
      ],
      "name": "tokenURI",
      "outputs": [
        {
          "internalType": "string",
          "name": "",
          "type": "string"
        }
      ],
      "stateMutability": "view",
      "type": "function"
    },
    {
      "inputs": [
        {
          "internalType": "address",
          "name": "from",
          "type": "address"
        },
        {
          "internalType": "address",
          "name": "to",
          "type": "address"
        },
        {
          "internalType": "uint256",
          "name": "tokenId",
          "type": "uint256"
        }
      ],
      "name": "transferFrom",
      "outputs": [],
      "stateMutability": "nonpayable",
      "type": "function"
    },
    {
      "inputs": [
        {
          "internalType": "address",
          "name": "institution",
          "type": "address"
        }
      ],
      "name": "verifyInstitution",
      "outputs": [],
      "stateMutability": "nonpayable",
      "type": "function"
    },
    {
      "inputs": [
        {
          "internalType": "uint256",
          "name": "proposalId",
          "type": "uint256"
        },
        {
          "internalType": "bool",
          "name": "voteFor",
          "type": "bool"
        }
      ],
      "name": "vote",
      "outputs": [],
      "stateMutability": "nonpayable",
      "type": "function"
    }
  ],
  "transactionHash": "0x22c4e1e085a0887a92964dd80663c0d259dbe0fe39fa68d7fc34bfafd350f160",
  "args": [],
  "numDeployments": 3,
  "solcInputHash": "0c973bdc2285f64894a46f9267d849f8",
  "bytecode": "0x608060405234801561001057600080fd5b506040518060400160405280600c81526020016b10d154951250d0551153919560a21b8152506040518060400160405280600381526020016210d49560ea1b81525081600090816100619190610136565b50600161006e8282610136565b505060006006819055600780546001600160a01b031916331790556001600c55601055506101f4565b634e487b7160e01b600052604160045260246000fd5b600181811c908216806100c157607f821691505b6020821081036100e157634e487b7160e01b600052602260045260246000fd5b50919050565b601f82111561013157806000526020600020601f840160051c8101602085101561010e5750805b601f840160051c820191505b8181101561012e576000815560010161011a565b50505b505050565b81516001600160401b0381111561014f5761014f610097565b6101638161015d84546100ad565b846100e7565b6020601f821160018114610197576000831561017f5750848201515b600019600385901b1c1916600184901b17845561012e565b600084815260208120601f198516915b828110156101c757878501518255602094850194600190920191016101a7565b50848210156101e55786840151600019600387901b60f8161c191681555b50505050600190811b01905550565b612363806102036000396000f3fe608060405234801561001057600080fd5b50600436106102265760003560e01c80638959d0701161012a578063c7f758a8116100bd578063d082e3811161008c578063e985e9c511610071578063e985e9c51461052a578063eacabe1414610566578063ecca031f1461057957600080fd5b8063d082e3811461050e578063e017ea321461051757600080fd5b8063c7f758a8146104b3578063c87b56dd146104d3578063c9d27afe146104e6578063cceb68f5146104f957600080fd5b806395d89b41116100f957806395d89b411461040c578063a22cb46514610414578063a7e9df5614610427578063b88d4fde146104a557600080fd5b80638959d070146103b05780638ada066e146103e95780638d5b4067146103f1578063958319ec146103f957600080fd5b80632dba0006116101bd5780634104180e1161018c5780636352211e116101715780636352211e1461037957806370a082311461038c578063893d20e81461039f57600080fd5b80634104180e1461035157806342842e0e1461036657600080fd5b80632dba00061461030257806336b659971461030b5780633bb3a24d1461032b5780633e1685161461033e57600080fd5b8063095ea7b3116101f9578063095ea7b3146102b45780630d61b519146102c95780631f832cd6146102dc57806323b872dd146102ef57600080fd5b806301ffc9a71461022b57806306d1b2fe1461025357806306fdde0314610274578063081812fc14610289575b600080fd5b61023e610239366004611c9c565b61058c565b60405190151581526020015b60405180910390f35b610266610261366004611ce2565b610629565b60405190815260200161024a565b61027c610695565b60405161024a9190611d21565b61029c610297366004611d54565b610727565b6040516001600160a01b03909116815260200161024a565b6102c76102c2366004611d6d565b610750565b005b6102c76102d7366004611d54565b61075f565b6102c76102ea366004611da7565b610957565b6102c76102fd366004611dd3565b610b93565b6276a700610266565b610266610319366004611ce2565b600e6020526000908152604090205481565b61027c610339366004611d54565b610be0565b6102c761034c366004611ce2565b610c82565b610359610d9c565b60405161024a9190611e10565b6102c7610374366004611dd3565b610dfd565b61029c610387366004611d54565b610e18565b61026661039a366004611ce2565b610e23565b6007546001600160a01b031661029c565b6103dc6103be366004611ce2565b6001600160a01b031660009081526008602052604090205460ff1690565b60405161024a9190611e72565b600654610266565b601054610266565b6102c7610407366004611f2a565b610e84565b61027c610fbc565b6102c7610422366004611f8c565b610fcb565b610471610435366004611d54565b600d60205260009081526040902080546001820154600283015460038401546004909401546001600160a01b0390931693919290919060ff1685565b604080516001600160a01b03909616865260208601949094529284019190915260608301521515608082015260a00161024a565b6102c76102fd366004611fb6565b6104c66104c1366004611d54565b610fd6565b60405161024a9190612032565b61027c6104e1366004611d54565b611098565b6102c76104f4366004611da7565b61110c565b610501611371565b60405161024a9190612076565b61026660065481565b61027c610525366004611ce2565b611494565b61023e6105383660046120ef565b6001600160a01b03918216600090815260056020908152604080832093909416825291909152205460ff1690565b6102c7610574366004611f2a565b6114bb565b61023e610587366004611d54565b61158e565b60006001600160e01b031982167f80ac58cd0000000000000000000000000000000000000000000000000000000014806105ef57506001600160e01b031982167f5b5e139f00000000000000000000000000000000000000000000000000000000145b8061062357507f01ffc9a7000000000000000000000000000000000000000000000000000000006001600160e01b03198316145b92915050565b6001600160a01b0381166000908152600e602052604081205480158061065a57506106576276a7008261212f565b42115b156106685750600092915050565b620151804261067a6276a7008461212f565b6106849190612142565b61068e9190612155565b9392505050565b6060600080546106a490612177565b80601f01602080910402602001604051908101604052809291908181526020018280546106d090612177565b801561071d5780601f106106f25761010080835404028352916020019161071d565b820191906000526020600020905b81548152906001019060200180831161070057829003601f168201915b5050505050905090565b6000610732826115ee565b506000828152600460205260409020546001600160a01b0316610623565b61075b828233611627565b5050565b6007546001600160a01b031633146107aa5760405162461bcd60e51b81526020600482015260096024820152686f776e65724f6e6c7960b81b60448201526064015b60405180910390fd5b6000818152600d6020908152604091829020825160a08101845281546001600160a01b0316815260018201549281019290925260028101549282019290925260038201546060820181905260049092015460ff16151560808201529082906108285760405163faf66ea960e01b81526004016107a191815260200190565b5080606001514211829061086b576040517f0fb891c50000000000000000000000000000000000000000000000000000000081526004016107a191815260200190565b5080608001511582906108ad576040517f09ff72520000000000000000000000000000000000000000000000000000000081526004016107a191815260200190565b506000828152600d60209081526040808320600401805460ff191660011790558301519083015111156108ed5781516108e590610c82565b506001610919565b81604001518260200151146109195781516001600160a01b03166000908152600e602052604090204290555b8151604051821515916001600160a01b0316907f7745d71a4be808e4c2ce16eabb0c47208c72a57fde3d997ba8847e4bf554276d90600090a3505050565b336000908152600e602052604090205480158061097f575061097c6276a7008261212f565b42115b33906109c3576040517f2b977d960000000000000000000000000000000000000000000000000000000081526001600160a01b0390911660048201526024016107a1565b5060013360009081526008602052604090205460ff1660028111156109ea576109ea611e5c565b143390610a2f576040517f04101f950000000000000000000000000000000000000000000000000000000081526001600160a01b0390911660048201526024016107a1565b5081158015610a4157506276a7008311155b80610a555750818015610a555750605a8311155b610a8b576040517f8e4c7b4300000000000000000000000000000000000000000000000000000000815260040160405180910390fd5b8115610aa157610a9e62015180846121ab565b92505b6040518060a00160405280336001600160a01b0316815260200160008152602001600081526020018442610ad5919061212f565b8152600060209182018190526010548152600d825260408082208451815473ffffffffffffffffffffffffffffffffffffffff19166001600160a01b03909116178155928401516001840155838101516002840155606084015160038401556080909301516004909201805460ff1916921515929092179091559051849133917fc89a81be55ee41b6033b5d2ec11727edaaea46f87eea47df78428b1e86ec0f679190a360108054906000610b89836121c2565b9190505550505050565b60405162461bcd60e51b815260206004820152600e60248201527f736f756c426f756e64546f6b656e00000000000000000000000000000000000060448201526064016107a1565b505050565b6000818152600a60205260409020805460609190610bfd90612177565b80601f0160208091040260200160405190810160405280929190818152602001828054610c2990612177565b8015610c765780601f10610c4b57610100808354040283529160200191610c76565b820191906000526020600020905b815481529060010190602001808311610c5957829003601f168201915b50505050509050919050565b6007546001600160a01b03163314610cc85760405162461bcd60e51b81526020600482015260096024820152686f776e65724f6e6c7960b81b60448201526064016107a1565b6001600160a01b03811660009081526008602052604081205460ff166002811115610cf557610cf5611e5c565b03610d425760405162461bcd60e51b815260206004820152601060248201527f6e6f74416e496e737469747574696f6e0000000000000000000000000000000060448201526064016107a1565b6001600160a01b038116600081815260086020908152604091829020805460ff1916600217905590519182527f39280a66601974b5c7bd9edb5dc20e0b27a0e012296956a440bdd5fa9e54d065910160405180910390a150565b6060600b80548060200260200160405190810160405280929190818152602001828054801561071d57602002820191906000526020600020905b81546001600160a01b03168152600190910190602001808311610dd6575050505050905090565b610bdb83838360405180602001604052806000815250610b93565b6000610623826115ee565b60006001600160a01b038216610e68576040517f89c62b64000000000000000000000000000000000000000000000000000000008152600060048201526024016107a1565b506001600160a01b031660009081526003602052604090205490565b60026001600160a01b03831660009081526008602052604090205460ff166002811115610eb357610eb3611e5c565b14158290610ef9576040517fef0cf6e80000000000000000000000000000000000000000000000000000000081526001600160a01b0390911660048201526024016107a1565b506001600160a01b03821660009081526008602052604081205460ff166002811115610f2757610f27611e5c565b03610f8557600b80546001810182556000919091527f0175b7a638427703f0dbe7bb9bbf987a2551717b34e79f33b5b1008d1fa01db901805473ffffffffffffffffffffffffffffffffffffffff19166001600160a01b0384161790555b6001600160a01b0382166000908152600860209081526040808320805460ff1916600117905560099091529020610bdb8282612229565b6060600180546106a490612177565b61075b338383611634565b6110136040518060a0016040528060006001600160a01b031681526020016000815260200160008152602001600081526020016000151581525090565b6000828152600d6020908152604091829020825160a08101845281546001600160a01b0316815260018201549281019290925260028101549282019290925260038201546060820181905260049092015460ff16151560808201529083906110915760405163faf66ea960e01b81526004016107a191815260200190565b5092915050565b60606110a3826115ee565b5060006110bb60408051602081019091526000815290565b905060008151116110db576040518060200160405280600081525061068e565b806110e5846116ec565b6040516020016110f69291906122e8565b6040516020818303038152906040529392505050565b60023360009081526008602052604090205460ff16600281111561113257611132611e5c565b143390611177576040517f5e3a1e7c0000000000000000000000000000000000000000000000000000000081526001600160a01b0390911660048201526024016107a1565b5061118061178c565b6000828152600d6020908152604091829020825160a08101845281546001600160a01b0316815260018201549281019290925260028101549282019290925260038201546060820181905260049092015460ff16151560808201529083906111fe5760405163faf66ea960e01b81526004016107a191815260200190565b5080606001514211158390611242576040517fca3fc1f50000000000000000000000000000000000000000000000000000000081526004016107a191815260200190565b506000833360405160200161127392919091825260601b6bffffffffffffffffffffffff1916602082015260340190565b60408051601f1981840301815291815281516020928301206000818152600f90935291205490915060ff16156112d5576040517f6805166500000000000000000000000000000000000000000000000000000000815260040160405180910390fd5b8215611302576000848152600d602052604081206001018054916112f8836121c2565b9190505550611325565b6000848152600d6020526040812060020180549161131f836121c2565b91905055505b6000818152600f6020526040808220805460ff191660011790555185917f07c415d500376b266976d88357535ad76a4c3da249c3c1fd45ddba7e1f8dc18791a2505061075b6001600c55565b6060600060105467ffffffffffffffff81111561139057611390611e9a565b6040519080825280602002602001820160405280156113fe57816020015b6113eb6040518060a0016040528060006001600160a01b031681526020016000815260200160008152602001600081526020016000151581525090565b8152602001906001900390816113ae5790505b50905060005b60105481101561148e576000818152600d6020908152604091829020825160a08101845281546001600160a01b031681526001820154928101929092526002810154928201929092526003820154606082015260049091015460ff1615156080820152825183908390811061147b5761147b612317565b6020908102919091010152600101611404565b50919050565b6001600160a01b0381166000908152600960205260409020805460609190610bfd90612177565b3360009081526008602052604081205460ff1660028111156114df576114df611e5c565b03611516576040517f86594fbb00000000000000000000000000000000000000000000000000000000815260040160405180910390fd5b611522826006546117cf565b6006546000908152600a6020526040902061153d8282612229565b506006546040516001600160a01b038416907f531d98725e7944ace85707198df213b1a7421fd9165ced340cb189321672c4ae90600090a360068054906000611585836121c2565b91905055505050565b60008082336040516020016115bf92919091825260601b6bffffffffffffffffffffffff1916602082015260340190565b60408051601f1981840301815291815281516020928301206000908152600f90925290205460ff169392505050565b6000818152600260205260408120546001600160a01b03168061062357604051637e27328960e01b8152600481018490526024016107a1565b610bdb8383836001611866565b6001600160a01b03821661167f576040517f5b08ba180000000000000000000000000000000000000000000000000000000081526001600160a01b03831660048201526024016107a1565b6001600160a01b03838116600081815260056020908152604080832094871680845294825291829020805460ff191686151590811790915591519182527f17307eab39ab6107e8899845ad3d59bd9653f200f220920489ca2b5937696c31910160405180910390a3505050565b606060006116f9836119b1565b600101905060008167ffffffffffffffff81111561171957611719611e9a565b6040519080825280601f01601f191660200182016040528015611743576020820181803683370190505b5090508181016020015b600019017f3031323334353637383961626364656600000000000000000000000000000000600a86061a8153600a850494508461174d57509392505050565b6002600c54036117c8576040517f3ee5aeb500000000000000000000000000000000000000000000000000000000815260040160405180910390fd5b6002600c55565b6001600160a01b038216611812576040517f64a0ae92000000000000000000000000000000000000000000000000000000008152600060048201526024016107a1565b600061182083836000611a93565b90506001600160a01b03811615610bdb576040517f73c6ac6e000000000000000000000000000000000000000000000000000000008152600060048201526024016107a1565b808061187a57506001600160a01b03821615155b1561197457600061188a846115ee565b90506001600160a01b038316158015906118b65750826001600160a01b0316816001600160a01b031614155b80156118e857506001600160a01b0380821660009081526005602090815260408083209387168352929052205460ff16155b1561192a576040517fa9fbf51f0000000000000000000000000000000000000000000000000000000081526001600160a01b03841660048201526024016107a1565b81156119725783856001600160a01b0316826001600160a01b03167f8c5be1e5ebec7d5bd14f71427d1e84f3dd0314c0f7b2291e5b200ac8c7c3b92560405160405180910390a45b505b50506000908152600460205260409020805473ffffffffffffffffffffffffffffffffffffffff19166001600160a01b0392909216919091179055565b6000807a184f03e93ff9f4daa797ed6e38ed64bf6a1f01000000000000000083106119fa577a184f03e93ff9f4daa797ed6e38ed64bf6a1f010000000000000000830492506040015b6d04ee2d6d415b85acef81000000008310611a26576d04ee2d6d415b85acef8100000000830492506020015b662386f26fc100008310611a4457662386f26fc10000830492506010015b6305f5e1008310611a5c576305f5e100830492506008015b6127108310611a7057612710830492506004015b60648310611a82576064830492506002015b600a83106106235760010192915050565b6000828152600260205260408120546001600160a01b0390811690831615611ac057611ac0818486611b99565b6001600160a01b03811615611afe57611add600085600080611866565b6001600160a01b038116600090815260036020526040902080546000190190555b6001600160a01b03851615611b2d576001600160a01b0385166000908152600360205260409020805460010190555b600084815260026020526040808220805473ffffffffffffffffffffffffffffffffffffffff19166001600160a01b0389811691821790925591518793918516917fddf252ad1be2c89b69c2b068fc378daa952ba7f163c4a11628f55a4df523b3ef91a4949350505050565b611ba4838383611c16565b610bdb576001600160a01b038316611bd257604051637e27328960e01b8152600481018290526024016107a1565b6040517f177e802f0000000000000000000000000000000000000000000000000000000081526001600160a01b0383166004820152602481018290526044016107a1565b60006001600160a01b03831615801590611c945750826001600160a01b0316846001600160a01b03161480611c7057506001600160a01b0380851660009081526005602090815260408083209387168352929052205460ff165b80611c9457506000828152600460205260409020546001600160a01b038481169116145b949350505050565b600060208284031215611cae57600080fd5b81356001600160e01b03198116811461068e57600080fd5b80356001600160a01b0381168114611cdd57600080fd5b919050565b600060208284031215611cf457600080fd5b61068e82611cc6565b60005b83811015611d18578181015183820152602001611d00565b50506000910152565b6020815260008251806020840152611d40816040850160208701611cfd565b601f01601f19169190910160400192915050565b600060208284031215611d6657600080fd5b5035919050565b60008060408385031215611d8057600080fd5b611d8983611cc6565b946020939093013593505050565b80358015158114611cdd57600080fd5b60008060408385031215611dba57600080fd5b82359150611dca60208401611d97565b90509250929050565b600080600060608486031215611de857600080fd5b611df184611cc6565b9250611dff60208501611cc6565b929592945050506040919091013590565b602080825282518282018190526000918401906040840190835b81811015611e515783516001600160a01b0316835260209384019390920191600101611e2a565b509095945050505050565b634e487b7160e01b600052602160045260246000fd5b6020810160038310611e9457634e487b7160e01b600052602160045260246000fd5b91905290565b634e487b7160e01b600052604160045260246000fd5b60008067ffffffffffffffff841115611ecb57611ecb611e9a565b50604051601f19601f85018116603f0116810181811067ffffffffffffffff82111715611efa57611efa611e9a565b604052838152905080828401851015611f1257600080fd5b83836020830137600060208583010152509392505050565b60008060408385031215611f3d57600080fd5b611f4683611cc6565b9150602083013567ffffffffffffffff811115611f6257600080fd5b8301601f81018513611f7357600080fd5b611f8285823560208401611eb0565b9150509250929050565b60008060408385031215611f9f57600080fd5b611fa883611cc6565b9150611dca60208401611d97565b60008060008060808587031215611fcc57600080fd5b611fd585611cc6565b9350611fe360208601611cc6565b925060408501359150606085013567ffffffffffffffff81111561200657600080fd5b8501601f8101871361201757600080fd5b61202687823560208401611eb0565b91505092959194509250565b60a0810161062382846001600160a01b0381511682526020810151602083015260408101516040830152606081015160608301526080810151151560808301525050565b602080825282518282018190526000918401906040840190835b81811015611e51576120d98385516001600160a01b0381511682526020810151602083015260408101516040830152606081015160608301526080810151151560808301525050565b6020939093019260a09290920191600101612090565b6000806040838503121561210257600080fd5b61210b83611cc6565b9150611dca60208401611cc6565b634e487b7160e01b600052601160045260246000fd5b8082018082111561062357610623612119565b8181038181111561062357610623612119565b60008261217257634e487b7160e01b600052601260045260246000fd5b500490565b600181811c9082168061218b57607f821691505b60208210810361148e57634e487b7160e01b600052602260045260246000fd5b808202811582820484141761062357610623612119565b6000600182016121d4576121d4612119565b5060010190565b601f821115610bdb57806000526020600020601f840160051c810160208510156122025750805b601f840160051c820191505b81811015612222576000815560010161220e565b5050505050565b815167ffffffffffffffff81111561224357612243611e9a565b612257816122518454612177565b846121db565b6020601f82116001811461228b57600083156122735750848201515b600019600385901b1c1916600184901b178455612222565b600084815260208120601f198516915b828110156122bb578785015182556020948501946001909201910161229b565b50848210156122d95786840151600019600387901b60f8161c191681555b50505050600190811b01905550565b600083516122fa818460208801611cfd565b83519083019061230e818360208801611cfd565b01949350505050565b634e487b7160e01b600052603260045260246000fdfea264697066735822122080f979272ee1962b8243c9ba126b556523d329fe51d4f4ca6cc480b8b2b5090864736f6c634300081c0033",
  "devdoc": {
    "errors": {
      "ERC721IncorrectOwner(address,uint256,address)": [
        {
          "details": "Indicates an error related to the ownership over a particular token. Used in transfers.",
          "params": {
            "owner": "Address of the current owner of a token.",
            "sender": "Address whose tokens are being transferred.",
            "tokenId": "Identifier number of a token."
          }
        }
      ],
      "ERC721InsufficientApproval(address,uint256)": [
        {
          "details": "Indicates a failure with the `operator`s approval. Used in transfers.",
          "params": {
            "operator": "Address that may be allowed to operate on tokens without being their owner.",
            "tokenId": "Identifier number of a token."
          }
        }
      ],
      "ERC721InvalidApprover(address)": [
        {
          "details": "Indicates a failure with the `approver` of a token to be approved. Used in approvals.",
          "params": {
            "approver": "Address initiating an approval operation."
          }
        }
      ],
      "ERC721InvalidOperator(address)": [
        {
          "details": "Indicates a failure with the `operator` to be approved. Used in approvals.",
          "params": {
            "operator": "Address that may be allowed to operate on tokens without being their owner."
          }
        }
      ],
      "ERC721InvalidOwner(address)": [
        {
          "details": "Indicates that an address can't be an owner. For example, `address(0)` is a forbidden owner in ERC-20. Used in balance queries.",
          "params": {
            "owner": "Address of the current owner of a token."
          }
        }
      ],
      "ERC721InvalidReceiver(address)": [
        {
          "details": "Indicates a failure with the token `receiver`. Used in transfers.",
          "params": {
            "receiver": "Address to which tokens are being transferred."
          }
        }
      ],
      "ERC721InvalidSender(address)": [
        {
          "details": "Indicates a failure with the token `sender`. Used in transfers.",
          "params": {
            "sender": "Address whose tokens are being transferred."
          }
        }
      ],
      "ERC721NonexistentToken(uint256)": [
        {
          "details": "Indicates a `tokenId` whose `owner` is the zero address.",
          "params": {
            "tokenId": "Identifier number of a token."
          }
        }
      ],
      "ReentrancyGuardReentrantCall()": [
        {
          "details": "Unauthorized reentrant call."
        }
      ]
    },
    "events": {
      "Approval(address,address,uint256)": {
        "details": "Emitted when `owner` enables `approved` to manage the `tokenId` token."
      },
      "ApprovalForAll(address,address,bool)": {
        "details": "Emitted when `owner` enables or disables (`approved`) `operator` to manage all of its assets."
      },
      "Transfer(address,address,uint256)": {
        "details": "Emitted when `tokenId` token is transferred from `from` to `to`."
      }
    },
    "kind": "dev",
    "methods": {
      "approve(address,uint256)": {
        "details": "See {IERC721-approve}."
      },
      "balanceOf(address)": {
        "details": "See {IERC721-balanceOf}."
      },
      "getApproved(uint256)": {
        "details": "See {IERC721-getApproved}."
      },
      "isApprovedForAll(address,address)": {
        "details": "See {IERC721-isApprovedForAll}."
      },
      "name()": {
        "details": "See {IERC721Metadata-name}."
      },
      "ownerOf(uint256)": {
        "details": "See {IERC721-ownerOf}."
      },
      "safeTransferFrom(address,address,uint256)": {
        "details": "See {IERC721-safeTransferFrom}."
      },
      "safeTransferFrom(address,address,uint256,bytes)": {
        "details": "See {IERC721-safeTransferFrom}."
      },
      "setApprovalForAll(address,bool)": {
        "details": "See {IERC721-setApprovalForAll}."
      },
      "supportsInterface(bytes4)": {
        "details": "See {IERC165-supportsInterface}."
      },
      "symbol()": {
        "details": "See {IERC721Metadata-symbol}."
      },
      "tokenURI(uint256)": {
        "details": "See {IERC721Metadata-tokenURI}."
      },
      "transferFrom(address,address,uint256)": {
        "details": "See {IERC721-transferFrom}."
      }
    },
    "version": 1
  },
  "userdoc": {
    "kind": "user",
    "methods": {},
    "version": 1
  },
  "storageLayout": {
    "storage": [
      {
        "astId": 788,
        "contract": "contracts/CertificateNFTGovernance.sol:CertificateNFTGovernance",
        "label": "_name",
        "offset": 0,
        "slot": "0",
        "type": "t_string_storage"
      },
      {
        "astId": 790,
        "contract": "contracts/CertificateNFTGovernance.sol:CertificateNFTGovernance",
        "label": "_symbol",
        "offset": 0,
        "slot": "1",
        "type": "t_string_storage"
      },
      {
        "astId": 794,
        "contract": "contracts/CertificateNFTGovernance.sol:CertificateNFTGovernance",
        "label": "_owners",
        "offset": 0,
        "slot": "2",
        "type": "t_mapping(t_uint256,t_address)"
      },
      {
        "astId": 798,
        "contract": "contracts/CertificateNFTGovernance.sol:CertificateNFTGovernance",
        "label": "_balances",
        "offset": 0,
        "slot": "3",
        "type": "t_mapping(t_address,t_uint256)"
      },
      {
        "astId": 802,
        "contract": "contracts/CertificateNFTGovernance.sol:CertificateNFTGovernance",
        "label": "_tokenApprovals",
        "offset": 0,
        "slot": "4",
        "type": "t_mapping(t_uint256,t_address)"
      },
      {
        "astId": 808,
        "contract": "contracts/CertificateNFTGovernance.sol:CertificateNFTGovernance",
        "label": "_operatorApprovals",
        "offset": 0,
        "slot": "5",
        "type": "t_mapping(t_address,t_mapping(t_address,t_bool))"
      },
      {
        "astId": 6861,
        "contract": "contracts/CertificateNFTGovernance.sol:CertificateNFTGovernance",
        "label": "tokenCounter",
        "offset": 0,
        "slot": "6",
        "type": "t_uint256"
      },
      {
        "astId": 6863,
        "contract": "contracts/CertificateNFTGovernance.sol:CertificateNFTGovernance",
        "label": "owner",
        "offset": 0,
        "slot": "7",
        "type": "t_address_payable"
      },
      {
        "astId": 6868,
        "contract": "contracts/CertificateNFTGovernance.sol:CertificateNFTGovernance",
        "label": "institutions",
        "offset": 0,
        "slot": "8",
        "type": "t_mapping(t_address,t_enum(institutionStatus)6883)"
      },
      {
        "astId": 6872,
        "contract": "contracts/CertificateNFTGovernance.sol:CertificateNFTGovernance",
        "label": "institutionNames",
        "offset": 0,
        "slot": "9",
        "type": "t_mapping(t_address,t_string_storage)"
      },
      {
        "astId": 6876,
        "contract": "contracts/CertificateNFTGovernance.sol:CertificateNFTGovernance",
        "label": "tokenURIs",
        "offset": 0,
        "slot": "10",
        "type": "t_mapping(t_uint256,t_string_storage)"
      },
      {
        "astId": 6879,
        "contract": "contracts/CertificateNFTGovernance.sol:CertificateNFTGovernance",
        "label": "institutionAddresses",
        "offset": 0,
        "slot": "11",
        "type": "t_array(t_address)dyn_storage"
      },
      {
        "astId": 2045,
        "contract": "contracts/CertificateNFTGovernance.sol:CertificateNFTGovernance",
        "label": "_status",
        "offset": 0,
        "slot": "12",
        "type": "t_uint256"
      },
      {
        "astId": 7225,
        "contract": "contracts/CertificateNFTGovernance.sol:CertificateNFTGovernance",
        "label": "s_proposals",
        "offset": 0,
        "slot": "13",
        "type": "t_mapping(t_uint256,t_struct(Proposal)7220_storage)"
      },
      {
        "astId": 7232,
        "contract": "contracts/CertificateNFTGovernance.sol:CertificateNFTGovernance",
        "label": "s_rejectedInstitutions",
        "offset": 0,
        "slot": "14",
        "type": "t_mapping(t_address,t_uint256)"
      },
      {
        "astId": 7236,
        "contract": "contracts/CertificateNFTGovernance.sol:CertificateNFTGovernance",
        "label": "s_hasVoted",
        "offset": 0,
        "slot": "15",
        "type": "t_mapping(t_bytes32,t_bool)"
      },
      {
        "astId": 7238,
        "contract": "contracts/CertificateNFTGovernance.sol:CertificateNFTGovernance",
        "label": "s_proposalCounter",
        "offset": 0,
        "slot": "16",
        "type": "t_uint256"
      }
    ],
    "types": {
      "t_address": {
        "encoding": "inplace",
        "label": "address",
        "numberOfBytes": "20"
      },
      "t_address_payable": {
        "encoding": "inplace",
        "label": "address payable",
        "numberOfBytes": "20"
      },
      "t_array(t_address)dyn_storage": {
        "base": "t_address",
        "encoding": "dynamic_array",
        "label": "address[]",
        "numberOfBytes": "32"
      },
      "t_bool": {
        "encoding": "inplace",
        "label": "bool",
        "numberOfBytes": "1"
      },
      "t_bytes32": {
        "encoding": "inplace",
        "label": "bytes32",
        "numberOfBytes": "32"
      },
      "t_enum(institutionStatus)6883": {
        "encoding": "inplace",
        "label": "enum CertificateNFT.institutionStatus",
        "numberOfBytes": "1"
      },
      "t_mapping(t_address,t_bool)": {
        "encoding": "mapping",
        "key": "t_address",
        "label": "mapping(address => bool)",
        "numberOfBytes": "32",
        "value": "t_bool"
      },
      "t_mapping(t_address,t_enum(institutionStatus)6883)": {
        "encoding": "mapping",
        "key": "t_address",
        "label": "mapping(address => enum CertificateNFT.institutionStatus)",
        "numberOfBytes": "32",
        "value": "t_enum(institutionStatus)6883"
      },
      "t_mapping(t_address,t_mapping(t_address,t_bool))": {
        "encoding": "mapping",
        "key": "t_address",
        "label": "mapping(address => mapping(address => bool))",
        "numberOfBytes": "32",
        "value": "t_mapping(t_address,t_bool)"
      },
      "t_mapping(t_address,t_string_storage)": {
        "encoding": "mapping",
        "key": "t_address",
        "label": "mapping(address => string)",
        "numberOfBytes": "32",
        "value": "t_string_storage"
      },
      "t_mapping(t_address,t_uint256)": {
        "encoding": "mapping",
        "key": "t_address",
        "label": "mapping(address => uint256)",
        "numberOfBytes": "32",
        "value": "t_uint256"
      },
      "t_mapping(t_bytes32,t_bool)": {
        "encoding": "mapping",
        "key": "t_bytes32",
        "label": "mapping(bytes32 => bool)",
        "numberOfBytes": "32",
        "value": "t_bool"
      },
      "t_mapping(t_uint256,t_address)": {
        "encoding": "mapping",
        "key": "t_uint256",
        "label": "mapping(uint256 => address)",
        "numberOfBytes": "32",
        "value": "t_address"
      },
      "t_mapping(t_uint256,t_string_storage)": {
        "encoding": "mapping",
        "key": "t_uint256",
        "label": "mapping(uint256 => string)",
        "numberOfBytes": "32",
        "value": "t_string_storage"
      },
      "t_mapping(t_uint256,t_struct(Proposal)7220_storage)": {
        "encoding": "mapping",
        "key": "t_uint256",
        "label": "mapping(uint256 => struct CertificateNFTGovernance.Proposal)",
        "numberOfBytes": "32",
        "value": "t_struct(Proposal)7220_storage"
      },
      "t_string_storage": {
        "encoding": "bytes",
        "label": "string",
        "numberOfBytes": "32"
      },
      "t_struct(Proposal)7220_storage": {
        "encoding": "inplace",
        "label": "struct CertificateNFTGovernance.Proposal",
        "members": [
          {
            "astId": 7211,
            "contract": "contracts/CertificateNFTGovernance.sol:CertificateNFTGovernance",
            "label": "institutionAddress",
            "offset": 0,
            "slot": "0",
            "type": "t_address"
          },
          {
            "astId": 7213,
            "contract": "contracts/CertificateNFTGovernance.sol:CertificateNFTGovernance",
            "label": "votesFor",
            "offset": 0,
            "slot": "1",
            "type": "t_uint256"
          },
          {
            "astId": 7215,
            "contract": "contracts/CertificateNFTGovernance.sol:CertificateNFTGovernance",
            "label": "votesAgainst",
            "offset": 0,
            "slot": "2",
            "type": "t_uint256"
          },
          {
            "astId": 7217,
            "contract": "contracts/CertificateNFTGovernance.sol:CertificateNFTGovernance",
            "label": "endTime",
            "offset": 0,
            "slot": "3",
            "type": "t_uint256"
          },
          {
            "astId": 7219,
            "contract": "contracts/CertificateNFTGovernance.sol:CertificateNFTGovernance",
            "label": "executed",
            "offset": 0,
            "slot": "4",
            "type": "t_bool"
          }
        ],
        "numberOfBytes": "160"
      },
      "t_uint256": {
        "encoding": "inplace",
        "label": "uint256",
        "numberOfBytes": "32"
      }
    }
  }
}