{
  "address": "0xE64aeBCb92cF9d2E55026979D19952607D4FBEA4",
  "abi": [
    {
      "inputs": [
        {
          "internalType": "uint256",
          "name": "fee",
          "type": "uint256"
        }
      ],
      "stateMutability": "nonpayable",
      "type": "constructor"
    },
    {
      "inputs": [
        {
          "internalType": "address",
          "name": "sender",
          "type": "address"
        },
        {
          "internalType": "uint256",
          "name": "tokenId",
          "type": "uint256"
        },
        {
          "internalType": "address",
          "name": "owner",
          "type": "address"
        }
      ],
      "name": "ERC721IncorrectOwner",
      "type": "error"
    },
    {
      "inputs": [
        {
          "internalType": "address",
          "name": "operator",
          "type": "address"
        },
        {
          "internalType": "uint256",
          "name": "tokenId",
          "type": "uint256"
        }
      ],
      "name": "ERC721InsufficientApproval",
      "type": "error"
    },
    {
      "inputs": [
        {
          "internalType": "address",
          "name": "approver",
          "type": "address"
        }
      ],
      "name": "ERC721InvalidApprover",
      "type": "error"
    },
    {
      "inputs": [
        {
          "internalType": "address",
          "name": "operator",
          "type": "address"
        }
      ],
      "name": "ERC721InvalidOperator",
      "type": "error"
    },
    {
      "inputs": [
        {
          "internalType": "address",
          "name": "owner",
          "type": "address"
        }
      ],
      "name": "ERC721InvalidOwner",
      "type": "error"
    },
    {
      "inputs": [
        {
          "internalType": "address",
          "name": "receiver",
          "type": "address"
        }
      ],
      "name": "ERC721InvalidReceiver",
      "type": "error"
    },
    {
      "inputs": [
        {
          "internalType": "address",
          "name": "sender",
          "type": "address"
        }
      ],
      "name": "ERC721InvalidSender",
      "type": "error"
    },
    {
      "inputs": [
        {
          "internalType": "uint256",
          "name": "tokenId",
          "type": "uint256"
        }
      ],
      "name": "ERC721NonexistentToken",
      "type": "error"
    },
    {
      "inputs": [],
      "name": "notAllowed",
      "type": "error"
    },
    {
      "inputs": [],
      "name": "notEnoughETHProvided",
      "type": "error"
    },
    {
      "inputs": [],
      "name": "soulBoundToken",
      "type": "error"
    },
    {
      "inputs": [],
      "name": "withdrawFailed",
      "type": "error"
    },
    {
      "anonymous": false,
      "inputs": [
        {
          "indexed": true,
          "internalType": "address",
          "name": "owner",
          "type": "address"
        },
        {
          "indexed": true,
          "internalType": "address",
          "name": "approved",
          "type": "address"
        },
        {
          "indexed": true,
          "internalType": "uint256",
          "name": "tokenId",
          "type": "uint256"
        }
      ],
      "name": "Approval",
      "type": "event"
    },
    {
      "anonymous": false,
      "inputs": [
        {
          "indexed": true,
          "internalType": "address",
          "name": "owner",
          "type": "address"
        },
        {
          "indexed": true,
          "internalType": "address",
          "name": "operator",
          "type": "address"
        },
        {
          "indexed": false,
          "internalType": "bool",
          "name": "approved",
          "type": "bool"
        }
      ],
      "name": "ApprovalForAll",
      "type": "event"
    },
    {
      "anonymous": false,
      "inputs": [
        {
          "indexed": true,
          "internalType": "address",
          "name": "from",
          "type": "address"
        },
        {
          "indexed": true,
          "internalType": "address",
          "name": "to",
          "type": "address"
        },
        {
          "indexed": true,
          "internalType": "uint256",
          "name": "tokenId",
          "type": "uint256"
        }
      ],
      "name": "Transfer",
      "type": "event"
    },
    {
      "anonymous": false,
      "inputs": [
        {
          "indexed": true,
          "internalType": "address",
          "name": "recipient",
          "type": "address"
        },
        {
          "indexed": true,
          "internalType": "uint256",
          "name": "tokenId",
          "type": "uint256"
        }
      ],
      "name": "mintedUserNFT",
      "type": "event"
    },
    {
      "inputs": [
        {
          "internalType": "address",
          "name": "to",
          "type": "address"
        },
        {
          "internalType": "uint256",
          "name": "tokenId",
          "type": "uint256"
        }
      ],
      "name": "approve",
      "outputs": [],
      "stateMutability": "nonpayable",
      "type": "function"
    },
    {
      "inputs": [
        {
          "internalType": "address",
          "name": "owner",
          "type": "address"
        }
      ],
      "name": "balanceOf",
      "outputs": [
        {
          "internalType": "uint256",
          "name": "",
          "type": "uint256"
        }
      ],
      "stateMutability": "view",
      "type": "function"
    },
    {
      "inputs": [],
      "name": "baseFee",
      "outputs": [
        {
          "internalType": "uint256",
          "name": "",
          "type": "uint256"
        }
      ],
      "stateMutability": "view",
      "type": "function"
    },
    {
      "inputs": [
        {
          "internalType": "uint256",
          "name": "tokenId",
          "type": "uint256"
        }
      ],
      "name": "getApproved",
      "outputs": [
        {
          "internalType": "address",
          "name": "",
          "type": "address"
        }
      ],
      "stateMutability": "view",
      "type": "function"
    },
    {
      "inputs": [],
      "name": "getBaseFee",
      "outputs": [
        {
          "internalType": "uint256",
          "name": "",
          "type": "uint256"
        }
      ],
      "stateMutability": "view",
      "type": "function"
    },
    {
      "inputs": [],
      "name": "getCounter",
      "outputs": [
        {
          "internalType": "uint256",
          "name": "",
          "type": "uint256"
        }
      ],
      "stateMutability": "view",
      "type": "function"
    },
    {
      "inputs": [
        {
          "internalType": "uint256",
          "name": "tokenId",
          "type": "uint256"
        }
      ],
      "name": "getTokenURI",
      "outputs": [
        {
          "internalType": "string",
          "name": "",
          "type": "string"
        }
      ],
      "stateMutability": "view",
      "type": "function"
    },
    {
      "inputs": [
        {
          "internalType": "address",
          "name": "owner",
          "type": "address"
        },
        {
          "internalType": "address",
          "name": "operator",
          "type": "address"
        }
      ],
      "name": "isApprovedForAll",
      "outputs": [
        {
          "internalType": "bool",
          "name": "",
          "type": "bool"
        }
      ],
      "stateMutability": "view",
      "type": "function"
    },
    {
      "inputs": [
        {
          "internalType": "address",
          "name": "recipient",
          "type": "address"
        },
        {
          "internalType": "string",
          "name": "tokenURI",
          "type": "string"
        }
      ],
      "name": "mintNFT",
      "outputs": [],
      "stateMutability": "payable",
      "type": "function"
    },
    {
      "inputs": [],
      "name": "name",
      "outputs": [
        {
          "internalType": "string",
          "name": "",
          "type": "string"
        }
      ],
      "stateMutability": "view",
      "type": "function"
    },
    {
      "inputs": [
        {
          "internalType": "uint256",
          "name": "tokenId",
          "type": "uint256"
        }
      ],
      "name": "ownerOf",
      "outputs": [
        {
          "internalType": "address",
          "name": "",
          "type": "address"
        }
      ],
      "stateMutability": "view",
      "type": "function"
    },
    {
      "inputs": [
        {
          "internalType": "address",
          "name": "from",
          "type": "address"
        },
        {
          "internalType": "address",
          "name": "to",
          "type": "address"
        },
        {
          "internalType": "uint256",
          "name": "tokenId",
          "type": "uint256"
        }
      ],
      "name": "safeTransferFrom",
      "outputs": [],
      "stateMutability": "nonpayable",
      "type": "function"
    },
    {
      "inputs": [
        {
          "internalType": "address",
          "name": "from",
          "type": "address"
        },
        {
          "internalType": "address",
          "name": "to",
          "type": "address"
        },
        {
          "internalType": "uint256",
          "name": "tokenId",
          "type": "uint256"
        },
        {
          "internalType": "bytes",
          "name": "data",
          "type": "bytes"
        }
      ],
      "name": "safeTransferFrom",
      "outputs": [],
      "stateMutability": "nonpayable",
      "type": "function"
    },
    {
      "inputs": [
        {
          "internalType": "address",
          "name": "operator",
          "type": "address"
        },
        {
          "internalType": "bool",
          "name": "approved",
          "type": "bool"
        }
      ],
      "name": "setApprovalForAll",
      "outputs": [],
      "stateMutability": "nonpayable",
      "type": "function"
    },
    {
      "inputs": [
        {
          "internalType": "bytes4",
          "name": "interfaceId",
          "type": "bytes4"
        }
      ],
      "name": "supportsInterface",
      "outputs": [
        {
          "internalType": "bool",
          "name": "",
          "type": "bool"
        }
      ],
      "stateMutability": "view",
      "type": "function"
    },
    {
      "inputs": [],
      "name": "symbol",
      "outputs": [
        {
          "internalType": "string",
          "name": "",
          "type": "string"
        }
      ],
      "stateMutability": "view",
      "type": "function"
    },
    {
      "inputs": [],
      "name": "tokenCounter",
      "outputs": [
        {
          "internalType": "uint256",
          "name": "",
          "type": "uint256"
        }
      ],
      "stateMutability": "view",
      "type": "function"
    },
    {
      "inputs": [
        {
          "internalType": "uint256",
          "name": "tokenId",
          "type": "uint256"
        }
      ],
      "name": "tokenURI",
      "outputs": [
        {
          "internalType": "string",
          "name": "",
          "type": "string"
        }
      ],
      "stateMutability": "view",
      "type": "function"
    },
    {
      "inputs": [
        {
          "internalType": "address",
          "name": "from",
          "type": "address"
        },
        {
          "internalType": "address",
          "name": "to",
          "type": "address"
        },
        {
          "internalType": "uint256",
          "name": "tokenId",
          "type": "uint256"
        }
      ],
      "name": "transferFrom",
      "outputs": [],
      "stateMutability": "nonpayable",
      "type": "function"
    },
    {
      "inputs": [],
      "name": "withdraw",
      "outputs": [],
      "stateMutability": "nonpayable",
      "type": "function"
    }
  ],
  "transactionHash": "0x9e6557d7fe8673405577ac9bffd69467ae82fc020766aff253e9867f945af669",
  "args": [
    40000
  ],
  "numDeployments": 1,
  "solcInputHash": "6adc2da405946d3234661652917143b0",
  "bytecode": "0x608060405234801561001057600080fd5b506040516127d33803806127d383398181016040528101906100329190610151565b6040518060400160405280600781526020017f555345524e4654000000000000000000000000000000000000000000000000008152506040518060400160405280600381526020017f554654000000000000000000000000000000000000000000000000000000000081525081600090816100ad91906103c4565b5080600190816100bd91906103c4565b50505060006006819055508060078190555033600860006101000a81548173ffffffffffffffffffffffffffffffffffffffff021916908373ffffffffffffffffffffffffffffffffffffffff16021790555050610496565b600080fd5b6000819050919050565b61012e8161011b565b811461013957600080fd5b50565b60008151905061014b81610125565b92915050565b60006020828403121561016757610166610116565b5b60006101758482850161013c565b91505092915050565b600081519050919050565b7f4e487b7100000000000000000000000000000000000000000000000000000000600052604160045260246000fd5b7f4e487b7100000000000000000000000000000000000000000000000000000000600052602260045260246000fd5b600060028204905060018216806101ff57607f821691505b602082108103610212576102116101b8565b5b50919050565b60008190508160005260206000209050919050565b60006020601f8301049050919050565b600082821b905092915050565b60006008830261027a7fffffffffffffffffffffffffffffffffffffffffffffffffffffffffffffffff8261023d565b610284868361023d565b95508019841693508086168417925050509392505050565b6000819050919050565b60006102c16102bc6102b78461011b565b61029c565b61011b565b9050919050565b6000819050919050565b6102db836102a6565b6102ef6102e7826102c8565b84845461024a565b825550505050565b600090565b6103046102f7565b61030f8184846102d2565b505050565b5b81811015610333576103286000826102fc565b600181019050610315565b5050565b601f8211156103785761034981610218565b6103528461022d565b81016020851015610361578190505b61037561036d8561022d565b830182610314565b50505b505050565b600082821c905092915050565b600061039b6000198460080261037d565b1980831691505092915050565b60006103b4838361038a565b9150826002028217905092915050565b6103cd8261017e565b67ffffffffffffffff8111156103e6576103e5610189565b5b6103f082546101e7565b6103fb828285610337565b600060209050601f83116001811461042e576000841561041c578287015190505b61042685826103a8565b86555061048e565b601f19841661043c86610218565b60005b828110156104645784890151825560018201915060208501945060208101905061043f565b86831015610481578489015161047d601f89168261038a565b8355505b6001600288020188555050505b505050505050565b61232e806104a56000396000f3fe60806040526004361061011f5760003560e01c80636ef25c3a116100a0578063b88d4fde11610064578063b88d4fde146103e7578063c87b56dd14610410578063d082e3811461044d578063e985e9c514610478578063eacabe14146104b55761011f565b80636ef25c3a1461030057806370a082311461032b5780638ada066e1461036857806395d89b4114610393578063a22cb465146103be5761011f565b806323b872dd116100e757806323b872dd1461021d5780633bb3a24d146102465780633ccfd60b1461028357806342842e0e1461029a5780636352211e146102c35761011f565b806301ffc9a71461012457806306fdde0314610161578063081812fc1461018c578063095ea7b3146101c957806315e812ad146101f2575b600080fd5b34801561013057600080fd5b5061014b6004803603810190610146919061185a565b6104d1565b60405161015891906118a2565b60405180910390f35b34801561016d57600080fd5b506101766105b3565b604051610183919061194d565b60405180910390f35b34801561019857600080fd5b506101b360048036038101906101ae91906119a5565b610645565b6040516101c09190611a13565b60405180910390f35b3480156101d557600080fd5b506101f060048036038101906101eb9190611a5a565b610661565b005b3480156101fe57600080fd5b50610207610677565b6040516102149190611aa9565b60405180910390f35b34801561022957600080fd5b50610244600480360381019061023f9190611ac4565b610681565b005b34801561025257600080fd5b5061026d600480360381019061026891906119a5565b6106be565b60405161027a919061194d565b60405180910390f35b34801561028f57600080fd5b50610298610763565b005b3480156102a657600080fd5b506102c160048036038101906102bc9190611ac4565b6108b2565b005b3480156102cf57600080fd5b506102ea60048036038101906102e591906119a5565b6108d2565b6040516102f79190611a13565b60405180910390f35b34801561030c57600080fd5b506103156108e4565b6040516103229190611aa9565b60405180910390f35b34801561033757600080fd5b50610352600480360381019061034d9190611b17565b6108ea565b60405161035f9190611aa9565b60405180910390f35b34801561037457600080fd5b5061037d6109a4565b60405161038a9190611aa9565b60405180910390f35b34801561039f57600080fd5b506103a86109ae565b6040516103b5919061194d565b60405180910390f35b3480156103ca57600080fd5b506103e560048036038101906103e09190611b70565b610a40565b005b3480156103f357600080fd5b5061040e60048036038101906104099190611ce5565b610a56565b005b34801561041c57600080fd5b50610437600480360381019061043291906119a5565b610a94565b604051610444919061194d565b60405180910390f35b34801561045957600080fd5b50610462610afd565b60405161046f9190611aa9565b60405180910390f35b34801561048457600080fd5b5061049f600480360381019061049a9190611d68565b610b03565b6040516104ac91906118a2565b60405180910390f35b6104cf60048036038101906104ca9190611e49565b610b97565b005b60007f80ac58cd000000000000000000000000000000000000000000000000000000007bffffffffffffffffffffffffffffffffffffffffffffffffffffffff1916827bffffffffffffffffffffffffffffffffffffffffffffffffffffffff1916148061059c57507f5b5e139f000000000000000000000000000000000000000000000000000000007bffffffffffffffffffffffffffffffffffffffffffffffffffffffff1916827bffffffffffffffffffffffffffffffffffffffffffffffffffffffff1916145b806105ac57506105ab82610c64565b5b9050919050565b6060600080546105c290611ed4565b80601f01602080910402602001604051908101604052809291908181526020018280546105ee90611ed4565b801561063b5780601f106106105761010080835404028352916020019161063b565b820191906000526020600020905b81548152906001019060200180831161061e57829003601f168201915b5050505050905090565b600061065082610cce565b5061065a82610d56565b9050919050565b610673828261066e610d93565b610d9b565b5050565b6000600754905090565b60006106b9576040517f4290ba9000000000000000000000000000000000000000000000000000000000815260040160405180910390fd5b505050565b60606009600083815260200190815260200160002080546106de90611ed4565b80601f016020809104026020016040519081016040528092919081815260200182805461070a90611ed4565b80156107575780601f1061072c57610100808354040283529160200191610757565b820191906000526020600020905b81548152906001019060200180831161073a57829003601f168201915b50505050509050919050565b600860009054906101000a900473ffffffffffffffffffffffffffffffffffffffff1673ffffffffffffffffffffffffffffffffffffffff163373ffffffffffffffffffffffffffffffffffffffff16146107ea576040517f932984d200000000000000000000000000000000000000000000000000000000815260040160405180910390fd5b6000600860009054906101000a900473ffffffffffffffffffffffffffffffffffffffff1673ffffffffffffffffffffffffffffffffffffffff164760405161083290611f36565b60006040518083038185875af1925050503d806000811461086f576040519150601f19603f3d011682016040523d82523d6000602084013e610874565b606091505b50509050806108af576040517f67b2cd0500000000000000000000000000000000000000000000000000000000815260040160405180910390fd5b50565b6108cd83838360405180602001604052806000815250610a56565b505050565b60006108dd82610cce565b9050919050565b60075481565b60008073ffffffffffffffffffffffffffffffffffffffff168273ffffffffffffffffffffffffffffffffffffffff160361095d5760006040517f89c62b640000000000000000000000000000000000000000000000000000000081526004016109549190611a13565b60405180910390fd5b600360008373ffffffffffffffffffffffffffffffffffffffff1673ffffffffffffffffffffffffffffffffffffffff168152602001908152602001600020549050919050565b6000600654905090565b6060600180546109bd90611ed4565b80601f01602080910402602001604051908101604052809291908181526020018280546109e990611ed4565b8015610a365780601f10610a0b57610100808354040283529160200191610a36565b820191906000526020600020905b815481529060010190602001808311610a1957829003601f168201915b5050505050905090565b610a52610a4b610d93565b8383610dad565b5050565b6000610a8e576040517f4290ba9000000000000000000000000000000000000000000000000000000000815260040160405180910390fd5b50505050565b6060610a9f82610cce565b506000610aaa610f1c565b90506000815111610aca5760405180602001604052806000815250610af5565b80610ad484610f33565b604051602001610ae5929190611f87565b6040516020818303038152906040525b915050919050565b60065481565b6000600560008473ffffffffffffffffffffffffffffffffffffffff1673ffffffffffffffffffffffffffffffffffffffff16815260200190815260200160002060008373ffffffffffffffffffffffffffffffffffffffff1673ffffffffffffffffffffffffffffffffffffffff16815260200190815260200160002060009054906101000a900460ff16905092915050565b600754341015610bd3576040517fd679199500000000000000000000000000000000000000000000000000000000815260040160405180910390fd5b610bdf82600654611001565b806009600060065481526020019081526020016000209081610c019190612157565b506006548273ffffffffffffffffffffffffffffffffffffffff167f8c18ca4dd0cd32078dbb27c0f8f5662350938fde79b357a9f994e1ab9717c42060405160405180910390a360066000815480929190610c5b90612258565b91905055505050565b60007f01ffc9a7000000000000000000000000000000000000000000000000000000007bffffffffffffffffffffffffffffffffffffffffffffffffffffffff1916827bffffffffffffffffffffffffffffffffffffffffffffffffffffffff1916149050919050565b600080610cda836110fa565b9050600073ffffffffffffffffffffffffffffffffffffffff168173ffffffffffffffffffffffffffffffffffffffff1603610d4d57826040517f7e273289000000000000000000000000000000000000000000000000000000008152600401610d449190611aa9565b60405180910390fd5b80915050919050565b60006004600083815260200190815260200160002060009054906101000a900473ffffffffffffffffffffffffffffffffffffffff169050919050565b600033905090565b610da88383836001611137565b505050565b600073ffffffffffffffffffffffffffffffffffffffff168273ffffffffffffffffffffffffffffffffffffffff1603610e1e57816040517f5b08ba18000000000000000000000000000000000000000000000000000000008152600401610e159190611a13565b60405180910390fd5b80600560008573ffffffffffffffffffffffffffffffffffffffff1673ffffffffffffffffffffffffffffffffffffffff16815260200190815260200160002060008473ffffffffffffffffffffffffffffffffffffffff1673ffffffffffffffffffffffffffffffffffffffff16815260200190815260200160002060006101000a81548160ff0219169083151502179055508173ffffffffffffffffffffffffffffffffffffffff168373ffffffffffffffffffffffffffffffffffffffff167f17307eab39ab6107e8899845ad3d59bd9653f200f220920489ca2b5937696c3183604051610f0f91906118a2565b60405180910390a3505050565b606060405180602001604052806000815250905090565b606060006001610f42846112fc565b01905060008167ffffffffffffffff811115610f6157610f60611bba565b5b6040519080825280601f01601f191660200182016040528015610f935781602001600182028036833780820191505090505b509050600082602001820190505b600115610ff6578080600190039150507f3031323334353637383961626364656600000000000000000000000000000000600a86061a8153600a8581610fea57610fe96122a0565b5b04945060008503610fa1575b819350505050919050565b600073ffffffffffffffffffffffffffffffffffffffff168273ffffffffffffffffffffffffffffffffffffffff16036110735760006040517f64a0ae9200000000000000000000000000000000000000000000000000000000815260040161106a9190611a13565b60405180910390fd5b60006110818383600061144f565b9050600073ffffffffffffffffffffffffffffffffffffffff168173ffffffffffffffffffffffffffffffffffffffff16146110f55760006040517f73c6ac6e0000000000000000000000000000000000000000000000000000000081526004016110ec9190611a13565b60405180910390fd5b505050565b60006002600083815260200190815260200160002060009054906101000a900473ffffffffffffffffffffffffffffffffffffffff169050919050565b80806111705750600073ffffffffffffffffffffffffffffffffffffffff168273ffffffffffffffffffffffffffffffffffffffff1614155b156112a457600061118084610cce565b9050600073ffffffffffffffffffffffffffffffffffffffff168373ffffffffffffffffffffffffffffffffffffffff16141580156111eb57508273ffffffffffffffffffffffffffffffffffffffff168173ffffffffffffffffffffffffffffffffffffffff1614155b80156111fe57506111fc8184610b03565b155b1561124057826040517fa9fbf51f0000000000000000000000000000000000000000000000000000000081526004016112379190611a13565b60405180910390fd5b81156112a257838573ffffffffffffffffffffffffffffffffffffffff168273ffffffffffffffffffffffffffffffffffffffff167f8c5be1e5ebec7d5bd14f71427d1e84f3dd0314c0f7b2291e5b200ac8c7c3b92560405160405180910390a45b505b836004600085815260200190815260200160002060006101000a81548173ffffffffffffffffffffffffffffffffffffffff021916908373ffffffffffffffffffffffffffffffffffffffff16021790555050505050565b600080600090507a184f03e93ff9f4daa797ed6e38ed64bf6a1f010000000000000000831061135a577a184f03e93ff9f4daa797ed6e38ed64bf6a1f01000000000000000083816113505761134f6122a0565b5b0492506040810190505b6d04ee2d6d415b85acef81000000008310611397576d04ee2d6d415b85acef8100000000838161138d5761138c6122a0565b5b0492506020810190505b662386f26fc1000083106113c657662386f26fc1000083816113bc576113bb6122a0565b5b0492506010810190505b6305f5e10083106113ef576305f5e10083816113e5576113e46122a0565b5b0492506008810190505b612710831061141457612710838161140a576114096122a0565b5b0492506004810190505b60648310611437576064838161142d5761142c6122a0565b5b0492506002810190505b600a8310611446576001810190505b80915050919050565b60008061145b846110fa565b9050600073ffffffffffffffffffffffffffffffffffffffff168373ffffffffffffffffffffffffffffffffffffffff161461149d5761149c818486611669565b5b600073ffffffffffffffffffffffffffffffffffffffff168173ffffffffffffffffffffffffffffffffffffffff161461152e576114df600085600080611137565b6001600360008373ffffffffffffffffffffffffffffffffffffffff1673ffffffffffffffffffffffffffffffffffffffff168152602001908152602001600020600082825403925050819055505b600073ffffffffffffffffffffffffffffffffffffffff168573ffffffffffffffffffffffffffffffffffffffff16146115b1576001600360008773ffffffffffffffffffffffffffffffffffffffff1673ffffffffffffffffffffffffffffffffffffffff168152602001908152602001600020600082825401925050819055505b846002600086815260200190815260200160002060006101000a81548173ffffffffffffffffffffffffffffffffffffffff021916908373ffffffffffffffffffffffffffffffffffffffff160217905550838573ffffffffffffffffffffffffffffffffffffffff168273ffffffffffffffffffffffffffffffffffffffff167fddf252ad1be2c89b69c2b068fc378daa952ba7f163c4a11628f55a4df523b3ef60405160405180910390a4809150509392505050565b61167483838361172d565b61172857600073ffffffffffffffffffffffffffffffffffffffff168373ffffffffffffffffffffffffffffffffffffffff16036116e957806040517f7e2732890000000000000000000000000000000000000000000000000000000081526004016116e09190611aa9565b60405180910390fd5b81816040517f177e802f00000000000000000000000000000000000000000000000000000000815260040161171f9291906122cf565b60405180910390fd5b505050565b60008073ffffffffffffffffffffffffffffffffffffffff168373ffffffffffffffffffffffffffffffffffffffff16141580156117e557508273ffffffffffffffffffffffffffffffffffffffff168473ffffffffffffffffffffffffffffffffffffffff1614806117a657506117a58484610b03565b5b806117e457508273ffffffffffffffffffffffffffffffffffffffff166117cc83610d56565b73ffffffffffffffffffffffffffffffffffffffff16145b5b90509392505050565b6000604051905090565b600080fd5b600080fd5b60007fffffffff0000000000000000000000000000000000000000000000000000000082169050919050565b61183781611802565b811461184257600080fd5b50565b6000813590506118548161182e565b92915050565b6000602082840312156118705761186f6117f8565b5b600061187e84828501611845565b91505092915050565b60008115159050919050565b61189c81611887565b82525050565b60006020820190506118b76000830184611893565b92915050565b600081519050919050565b600082825260208201905092915050565b60005b838110156118f75780820151818401526020810190506118dc565b60008484015250505050565b6000601f19601f8301169050919050565b600061191f826118bd565b61192981856118c8565b93506119398185602086016118d9565b61194281611903565b840191505092915050565b600060208201905081810360008301526119678184611914565b905092915050565b6000819050919050565b6119828161196f565b811461198d57600080fd5b50565b60008135905061199f81611979565b92915050565b6000602082840312156119bb576119ba6117f8565b5b60006119c984828501611990565b91505092915050565b600073ffffffffffffffffffffffffffffffffffffffff82169050919050565b60006119fd826119d2565b9050919050565b611a0d816119f2565b82525050565b6000602082019050611a286000830184611a04565b92915050565b611a37816119f2565b8114611a4257600080fd5b50565b600081359050611a5481611a2e565b92915050565b60008060408385031215611a7157611a706117f8565b5b6000611a7f85828601611a45565b9250506020611a9085828601611990565b9150509250929050565b611aa38161196f565b82525050565b6000602082019050611abe6000830184611a9a565b92915050565b600080600060608486031215611add57611adc6117f8565b5b6000611aeb86828701611a45565b9350506020611afc86828701611a45565b9250506040611b0d86828701611990565b9150509250925092565b600060208284031215611b2d57611b2c6117f8565b5b6000611b3b84828501611a45565b91505092915050565b611b4d81611887565b8114611b5857600080fd5b50565b600081359050611b6a81611b44565b92915050565b60008060408385031215611b8757611b866117f8565b5b6000611b9585828601611a45565b9250506020611ba685828601611b5b565b9150509250929050565b600080fd5b600080fd5b7f4e487b7100000000000000000000000000000000000000000000000000000000600052604160045260246000fd5b611bf282611903565b810181811067ffffffffffffffff82111715611c1157611c10611bba565b5b80604052505050565b6000611c246117ee565b9050611c308282611be9565b919050565b600067ffffffffffffffff821115611c5057611c4f611bba565b5b611c5982611903565b9050602081019050919050565b82818337600083830152505050565b6000611c88611c8384611c35565b611c1a565b905082815260208101848484011115611ca457611ca3611bb5565b5b611caf848285611c66565b509392505050565b600082601f830112611ccc57611ccb611bb0565b5b8135611cdc848260208601611c75565b91505092915050565b60008060008060808587031215611cff57611cfe6117f8565b5b6000611d0d87828801611a45565b9450506020611d1e87828801611a45565b9350506040611d2f87828801611990565b925050606085013567ffffffffffffffff811115611d5057611d4f6117fd565b5b611d5c87828801611cb7565b91505092959194509250565b60008060408385031215611d7f57611d7e6117f8565b5b6000611d8d85828601611a45565b9250506020611d9e85828601611a45565b9150509250929050565b600067ffffffffffffffff821115611dc357611dc2611bba565b5b611dcc82611903565b9050602081019050919050565b6000611dec611de784611da8565b611c1a565b905082815260208101848484011115611e0857611e07611bb5565b5b611e13848285611c66565b509392505050565b600082601f830112611e3057611e2f611bb0565b5b8135611e40848260208601611dd9565b91505092915050565b60008060408385031215611e6057611e5f6117f8565b5b6000611e6e85828601611a45565b925050602083013567ffffffffffffffff811115611e8f57611e8e6117fd565b5b611e9b85828601611e1b565b9150509250929050565b7f4e487b7100000000000000000000000000000000000000000000000000000000600052602260045260246000fd5b60006002820490506001821680611eec57607f821691505b602082108103611eff57611efe611ea5565b5b50919050565b600081905092915050565b50565b6000611f20600083611f05565b9150611f2b82611f10565b600082019050919050565b6000611f4182611f13565b9150819050919050565b600081905092915050565b6000611f61826118bd565b611f6b8185611f4b565b9350611f7b8185602086016118d9565b80840191505092915050565b6000611f938285611f56565b9150611f9f8284611f56565b91508190509392505050565b60008190508160005260206000209050919050565b60006020601f8301049050919050565b600082821b905092915050565b60006008830261200d7fffffffffffffffffffffffffffffffffffffffffffffffffffffffffffffffff82611fd0565b6120178683611fd0565b95508019841693508086168417925050509392505050565b6000819050919050565b600061205461204f61204a8461196f565b61202f565b61196f565b9050919050565b6000819050919050565b61206e83612039565b61208261207a8261205b565b848454611fdd565b825550505050565b600090565b61209761208a565b6120a2818484612065565b505050565b5b818110156120c6576120bb60008261208f565b6001810190506120a8565b5050565b601f82111561210b576120dc81611fab565b6120e584611fc0565b810160208510156120f4578190505b61210861210085611fc0565b8301826120a7565b50505b505050565b600082821c905092915050565b600061212e60001984600802612110565b1980831691505092915050565b6000612147838361211d565b9150826002028217905092915050565b612160826118bd565b67ffffffffffffffff81111561217957612178611bba565b5b6121838254611ed4565b61218e8282856120ca565b600060209050601f8311600181146121c157600084156121af578287015190505b6121b9858261213b565b865550612221565b601f1984166121cf86611fab565b60005b828110156121f7578489015182556001820191506020850194506020810190506121d2565b868310156122145784890151612210601f89168261211d565b8355505b6001600288020188555050505b505050505050565b7f4e487b7100000000000000000000000000000000000000000000000000000000600052601160045260246000fd5b60006122638261196f565b91507fffffffffffffffffffffffffffffffffffffffffffffffffffffffffffffffff820361229557612294612229565b5b600182019050919050565b7f4e487b7100000000000000000000000000000000000000000000000000000000600052601260045260246000fd5b60006040820190506122e46000830185611a04565b6122f16020830184611a9a565b939250505056fea2646970667358221220935e43944cc5b2fa0838e08faa6b3cff2c0a093306c1179fa4eed8cb7e8dcfb564736f6c634300081c0033",
  "devdoc": {
    "author": "samumaio",
    "errors": {
      "ERC721IncorrectOwner(address,uint256,address)": [
        {
          "details": "Indicates an error related to the ownership over a particular token. Used in transfers.",
          "params": {
            "owner": "Address of the current owner of a token.",
            "sender": "Address whose tokens are being transferred.",
            "tokenId": "Identifier number of a token."
          }
        }
      ],
      "ERC721InsufficientApproval(address,uint256)": [
        {
          "details": "Indicates a failure with the `operator`s approval. Used in transfers.",
          "params": {
            "operator": "Address that may be allowed to operate on tokens without being their owner.",
            "tokenId": "Identifier number of a token."
          }
        }
      ],
      "ERC721InvalidApprover(address)": [
        {
          "details": "Indicates a failure with the `approver` of a token to be approved. Used in approvals.",
          "params": {
            "approver": "Address initiating an approval operation."
          }
        }
      ],
      "ERC721InvalidOperator(address)": [
        {
          "details": "Indicates a failure with the `operator` to be approved. Used in approvals.",
          "params": {
            "operator": "Address that may be allowed to operate on tokens without being their owner."
          }
        }
      ],
      "ERC721InvalidOwner(address)": [
        {
          "details": "Indicates that an address can't be an owner. For example, `address(0)` is a forbidden owner in ERC-20. Used in balance queries.",
          "params": {
            "owner": "Address of the current owner of a token."
          }
        }
      ],
      "ERC721InvalidReceiver(address)": [
        {
          "details": "Indicates a failure with the token `receiver`. Used in transfers.",
          "params": {
            "receiver": "Address to which tokens are being transferred."
          }
        }
      ],
      "ERC721InvalidSender(address)": [
        {
          "details": "Indicates a failure with the token `sender`. Used in transfers.",
          "params": {
            "sender": "Address whose tokens are being transferred."
          }
        }
      ],
      "ERC721NonexistentToken(uint256)": [
        {
          "details": "Indicates a `tokenId` whose `owner` is the zero address.",
          "params": {
            "tokenId": "Identifier number of a token."
          }
        }
      ]
    },
    "events": {
      "Approval(address,address,uint256)": {
        "details": "Emitted when `owner` enables `approved` to manage the `tokenId` token."
      },
      "ApprovalForAll(address,address,bool)": {
        "details": "Emitted when `owner` enables or disables (`approved`) `operator` to manage all of its assets."
      },
      "Transfer(address,address,uint256)": {
        "details": "Emitted when `tokenId` token is transferred from `from` to `to`."
      }
    },
    "kind": "dev",
    "methods": {
      "approve(address,uint256)": {
        "details": "See {IERC721-approve}."
      },
      "balanceOf(address)": {
        "details": "See {IERC721-balanceOf}."
      },
      "getApproved(uint256)": {
        "details": "See {IERC721-getApproved}."
      },
      "isApprovedForAll(address,address)": {
        "details": "See {IERC721-isApprovedForAll}."
      },
      "name()": {
        "details": "See {IERC721Metadata-name}."
      },
      "ownerOf(uint256)": {
        "details": "See {IERC721-ownerOf}."
      },
      "safeTransferFrom(address,address,uint256)": {
        "details": "See {IERC721-safeTransferFrom}."
      },
      "safeTransferFrom(address,address,uint256,bytes)": {
        "details": "See {IERC721-safeTransferFrom}."
      },
      "setApprovalForAll(address,bool)": {
        "details": "See {IERC721-setApprovalForAll}."
      },
      "supportsInterface(bytes4)": {
        "details": "See {IERC165-supportsInterface}."
      },
      "symbol()": {
        "details": "See {IERC721Metadata-symbol}."
      },
      "tokenURI(uint256)": {
        "details": "See {IERC721Metadata-tokenURI}."
      },
      "transferFrom(address,address,uint256)": {
        "details": "See {IERC721-transferFrom}."
      }
    },
    "title": "User's ERC 721 NFT",
    "version": 1
  },
  "userdoc": {
    "kind": "user",
    "methods": {},
    "notice": "This smart contract mints a personal NFT on behalf of the sender of this contract. Furthermore this contract should be a Soul bound token so as to not be transfered",
    "version": 1
  },
  "storageLayout": {
    "storage": [
      {
        "astId": 169,
        "contract": "contracts/UserNFT.sol:UserNFT",
        "label": "_name",
        "offset": 0,
        "slot": "0",
        "type": "t_string_storage"
      },
      {
        "astId": 171,
        "contract": "contracts/UserNFT.sol:UserNFT",
        "label": "_symbol",
        "offset": 0,
        "slot": "1",
        "type": "t_string_storage"
      },
      {
        "astId": 175,
        "contract": "contracts/UserNFT.sol:UserNFT",
        "label": "_owners",
        "offset": 0,
        "slot": "2",
        "type": "t_mapping(t_uint256,t_address)"
      },
      {
        "astId": 179,
        "contract": "contracts/UserNFT.sol:UserNFT",
        "label": "_balances",
        "offset": 0,
        "slot": "3",
        "type": "t_mapping(t_address,t_uint256)"
      },
      {
        "astId": 183,
        "contract": "contracts/UserNFT.sol:UserNFT",
        "label": "_tokenApprovals",
        "offset": 0,
        "slot": "4",
        "type": "t_mapping(t_uint256,t_address)"
      },
      {
        "astId": 189,
        "contract": "contracts/UserNFT.sol:UserNFT",
        "label": "_operatorApprovals",
        "offset": 0,
        "slot": "5",
        "type": "t_mapping(t_address,t_mapping(t_address,t_bool))"
      },
      {
        "astId": 6174,
        "contract": "contracts/UserNFT.sol:UserNFT",
        "label": "tokenCounter",
        "offset": 0,
        "slot": "6",
        "type": "t_uint256"
      },
      {
        "astId": 6176,
        "contract": "contracts/UserNFT.sol:UserNFT",
        "label": "baseFee",
        "offset": 0,
        "slot": "7",
        "type": "t_uint256"
      },
      {
        "astId": 6178,
        "contract": "contracts/UserNFT.sol:UserNFT",
        "label": "owner",
        "offset": 0,
        "slot": "8",
        "type": "t_address_payable"
      },
      {
        "astId": 6182,
        "contract": "contracts/UserNFT.sol:UserNFT",
        "label": "tokenURIs",
        "offset": 0,
        "slot": "9",
        "type": "t_mapping(t_uint256,t_string_storage)"
      }
    ],
    "types": {
      "t_address": {
        "encoding": "inplace",
        "label": "address",
        "numberOfBytes": "20"
      },
      "t_address_payable": {
        "encoding": "inplace",
        "label": "address payable",
        "numberOfBytes": "20"
      },
      "t_bool": {
        "encoding": "inplace",
        "label": "bool",
        "numberOfBytes": "1"
      },
      "t_mapping(t_address,t_bool)": {
        "encoding": "mapping",
        "key": "t_address",
        "label": "mapping(address => bool)",
        "numberOfBytes": "32",
        "value": "t_bool"
      },
      "t_mapping(t_address,t_mapping(t_address,t_bool))": {
        "encoding": "mapping",
        "key": "t_address",
        "label": "mapping(address => mapping(address => bool))",
        "numberOfBytes": "32",
        "value": "t_mapping(t_address,t_bool)"
      },
      "t_mapping(t_address,t_uint256)": {
        "encoding": "mapping",
        "key": "t_address",
        "label": "mapping(address => uint256)",
        "numberOfBytes": "32",
        "value": "t_uint256"
      },
      "t_mapping(t_uint256,t_address)": {
        "encoding": "mapping",
        "key": "t_uint256",
        "label": "mapping(uint256 => address)",
        "numberOfBytes": "32",
        "value": "t_address"
      },
      "t_mapping(t_uint256,t_string_storage)": {
        "encoding": "mapping",
        "key": "t_uint256",
        "label": "mapping(uint256 => string)",
        "numberOfBytes": "32",
        "value": "t_string_storage"
      },
      "t_string_storage": {
        "encoding": "bytes",
        "label": "string",
        "numberOfBytes": "32"
      },
      "t_uint256": {
        "encoding": "inplace",
        "label": "uint256",
        "numberOfBytes": "32"
      }
    }
  }
}